:020000040804EE
:1000000040E602208502040845FD0508A1D8050840
:100010004DF5050807320508B94C06080000000038
:10002000000000000000000000000000C9010408FA
:10003000FD5B0508000000001D020408B13C060835
:100040009F0204089F0204089F020408151A06086C
:100050009F0204089F0204089F0204089F020408EC
:100060009F0204089F0204089F0204089F020408DC
:100070009F0204089F0204089F0204089F020408CC
:100080009F0204089F0204089F0204089F020408BC
:100090009F0204089F0204089F0204089F020408AC
:1000A0009F0204089F0204089F0204089F0204089C
:1000B0009F0204089F0204089F0204089F0204088C
:1000C0009F0204089F0204089F0204089F0204087C
:1000D0009F020408CD440608D94406089F0204087C
:1000E0009F0204089F0204089F0204089F0204085C
:1000F0009F0204089F0204089F0204089F0204084C
:100100009F02040879220608E93D06089F020408B8
:10011000394006089F0204089F0204089F02040851
:100120009F0204089F0204089F0204087D540508EA
:100130009F0204089F0204089F0204089F0204080B
:100140009F0204089F0204089F0204089F020408FB
:100150009F020408895405089F02040841450608C7
:100160009F0204089F0204089F0204089F020408DB
:100170009F0204089F0204089F0204080000000078
:100180009F0204089F0204089F0204089F020408BB
:100190009F0204089F0204089F0204089F020408AB
:1001A00051E805089F020408D9530508DFF814D068
:1001B00012F068FC12F086F800480047B9B507084D
:1001C00012F079FB40E602202B4B19680868B0E872
:1001D000F04F80F30988BFF36F8F4FF0000080F37A
:1001E000118870470000000006480068006880F32E
:1001F000088862B661B6BFF34F8FBFF36F8F00DF21
:1002000000BF00BF08ED00E0DFF80C00016841F41A
:1002100070010160704700BF88ED00E0EFF30980D6
:10022000BFF36F8F144B1A681EF0100F08BF20ED3C
:10023000108A20E9F04F106008B44FF0100080F3EE
:100240001188BFF34F8FBFF36F8F3EF0A5FA4FF0C9
:10025000000080F3118808BC19680868B0E8F04F06
:100260001EF0100F08BFB0EC108A80F30988BFF3AE
:100270006F8F704700BF00BFF4020020EFF30580CE
:10028000704700000648804706480047FEE7FEE743
:10029000FEE7FEE7FEE7FEE7FEE7FEE7FEE7FEE736
:1002A000953D0608AD010408704733F038BD70B5C0
:1002B000044600680D46016A20468847A84206D3D6
:1002C0002068C16920468847A188884201D8AFF3D9
:1002D00000802068426A20469047A188491CA1807E
:1002E00070BD70B50446006815460E46026A204689
:1002F0009047A84201D2AFF3008020683146426A9D
:100300002046BDE8704010478088704770B50446AD
:1003100000680D460021426A20469047281A86B29E
:100320002068016A20468847B6FBF0F6A088B042F4
:1003300012D920680021426A20469047281A85B2C7
:100340002068016A20468847B5FBF0F100FB115098
:10035000002804BF304670BDAFF3008000218180CB
:10036000704702490160002181807047A4F00B08AA
:1003700070472DE9F04F8FB080460888189D1C46C5
:1003800016460F46012801D0AFF3008011460AA897
:1003900033F01CFD21460CA833F018FD0AA80FF01D
:1003A000F7FC31460CA80FF0DBFCBDF93010BDF8AE
:1003B0002C20BDF8320012FB001202EB0804BDF83D
:1003C0002820DFF818841144ADF83010BDF82A1049
:1003D0000844ADF83200BDF934000090BDF9360094
:1003E0000190D8F800000168D1F890108847FC4EC1
:1003F00001286DD0404600680168096A8847BDF948
:100400003010BDF93220338807F1040803FB0211D4
:1004100001EB41010A18019900200029C8BFC5F16C
:10042000FF0775DD00990029C4BF0021DDF800C079
:100430006FDD2378FF2D03EB430343446BD2B6F803
:10044000009093F800B009FB00F909EB49098944D1
:1004500012F809A00AFB07FA0BFB05AA1FFA8AFA91
:100460000AEB1A2A0AF1010ACAF3072A02F809A0BC
:10047000B6F8009093F801B009FB00F909EB4909BF
:100480008944914499F801A00AFB07FA0BFB05AADD
:100490001FFA8AFA0AEB1A2A0AF1010A4FEA1A2A03
:1004A00089F801A0B6F800909B7809FB00F909EBE8
:1004B00049098944914499F802A00AFB07FA03FB11
:1004C00005A39BB203EB13235B1CC3F3072342E09A
:1004D0000DF1140901230B2231880020A9E80F0037
:1004E0000199BDF82C0089B2CDE90210009ABDF83F
:1004F000320092B2019204950090BDF830303A4635
:100500002146D8F8000007F024FC0FB0BDE8F08FBA
:1005100033E028E0FFE7B6F800A093F800900AFB6C
:1005200000FA0AEB4A0A8A4402F80A90B6F800A0D8
:1005300093F801900AFB00FA0AEB4A0A8A449244B3
:100540008AF80190B6F800909B7809FB00F909EB56
:10055000490989449144641CC91C89F80230BCF1E2
:10056000010C7FF466AFBDF92C300099401C591A7C
:100570000C44019981423FF755AF984800680168E3
:10058000496A8847C1E72DE9F04F0646088891B0CF
:100590001C4615460F4608B1AFF3008011460AA865
:1005A00033F014FC21460CA833F010FC0AA80FF01D
:1005B000EFFB29460CA80FF0D3FBBDF93010BDF8B6
:1005C0002C20BDF8320012FB00129519BDF828202E
:1005D000DFF808821144ADF83010BDF82A10BDF9DB
:1005E00034600844ADF83200BDF936000190D8F807
:1005F00000000168D1F890108847794C01287DD01F
:10060000404600680168096A8847BDF93010BDF9A5
:100610003220238807F1040903FB021101EB410199
:100620000B180199002000297ADD00210F46002EC9
:100630006EDD2A7809EB820292F803C0BCF1000F4C
:1006400061D0BCF1FF0F04BFDDF86880B8F1FF0F87
:100650007ED0DDF8688092F800A008FB0CFC0CEB63
:100660001C2C0CF1010CCCF3072CCCF1FF081AFB6D
:100670000CFBB4F800A00AFB00FA0AEB4A0A8A4411
:1006800013F80AE01EFB08BB1FFA8BFB0BEB1B2BBE
:100690000BF1010BCBF3072B03F80AB092F801A082
:1006A0001AFB0CFBB4F800A00AFB00FA0AEB4A0A9A
:1006B0008A449A449AF801E01EFB08BB1FFA8BFBA0
:1006C0000BEB1B2B0BF1010B4FEA1B2B8AF801B034
:1006D000927812FB0CFC2288424302EB42020A444D
:1006E0001A4492F802A01AFB08CC1FFA8CFC0CEBFF
:1006F0001C2C0CF1010C4FEA1C2C02E018E00FE05E
:1007000006E082F802C06D1CC91C7F1CB74290DB5A
:10071000BDF92C10401C891B0D440199884284DBD3
:100720002E4800680168496A884711B0BDE8F08F1B
:10073000012022880B21CDE90502CDE90710019A9D
:100740001A98BDF82C10CDE9031092B2B3B200E0B4
:100750000FE0CDE90132BDF832000090BDF8303035
:100760003A462946D8F8000007F0F3FA11B0BDE880
:10077000F08FB4F8008092F800C008FB00F808EB96
:100780004808884403F808C0B4F8008092F801C013
:1007900008FB00F808EB48088844984488F801C032
:1007A000B4F800C092780CFB00FC0CEB4C0C8C44B1
:1007B0009C448CF80220A6E738B50C78DDF810C010
:1007C00034B1012C0ED0022C18BF38BDAFF300801D
:1007D000CDF800C0FFF7D7FE38BD00003419002067
:1007E0002E190020CDF800C0FFF7C3FDF4E72DE976
:1007F000F04F91B007461E4614460D4604A833F04C
:10080000E5FA214606A833F0E1FA04A80FF0C0FA91
:10081000294606A80FF0A4FABDF91810BDF8142057
:10082000BDF81A0012FB001207EB8204BDF810207D
:10083000BDF91C701144ADF81810BDF81210084431
:10084000ADF81A00BDF91E00FE4D0290286801683F
:10085000896B8847FF2E19D010F0400F19D000BFC8
:100860000299BDF81400BAB289B203960092CDE99C
:1008700001102868BDF81A30BDF818200168D1F8B9
:1008800048C02146E04711B0BDE8F08F10F0200FBE
:10089000E6D1EC4800680168096A8847DFF8A8C318
:1008A000BDF91810BDF91A20BCF8003003FB021185
:1008B00001EB41010D180299002000297CDD002286
:1008C00011469046002F73DDBDF91430434302EB0F
:1008D000830A0AEB0403DB78002B63D0FF2B08BFED
:1008E000FF2E72D0734303EB13235B1CC3F3072368
:1008F00014F80AA0C3F1FF091AFB03FBBCF800A01F
:100900000AFB00FA0AEB4A0A8A4415F80AE01EFBC1
:1009100009BB1FFA8BFB0BEB1B2B0BF1010BCBF372
:10092000072B05F80AB0BDF914A00AFB00FA02EB88
:100930008A0AA2449AF801A01AFB03FBBCF800A0A3
:100940000AFB00FA0AEB4A0A8A44AA449AF801E030
:100950001EFB09BB1FFA8BFB0BEB1B2B0BF1010BD7
:100960004FEA1B2B8AF801B0BDF914A00AFB00FA6C
:1009700002EB8A0AA2449AF802A01AFB03F3BCF81D
:1009800000A00AFB00FA0AEB4A0A8A44AA449AF831
:1009900002B01BFB09339BB203EB13235B1C1B0A46
:1009A0008AF80230121DC91C08F10108B8458BDB1A
:1009B0000299401C884282DBA24800680168496AAB
:1009C000884711B0BDE8F08FFFE7BCF8009014F83D
:1009D0000A3009FB00F909EB4909894405F8093097
:1009E000BDF91430BCF80090434309FB00F902EB59
:1009F000830309EB490923448944A9445B7889F8B6
:100A00000130BDF91430BCF80090434309FB00F9F4
:100A100002EB830309EB490923448944A9449B78E9
:100A200089F80230BEE72DE9F04784B08946DDE958
:100A30000C648046002C04BF04B0BDE8F087154666
:100A40009A46084603F0FBF80746484603F01AF9B1
:100A5000ADF80C70ADF80850ADF80E00ADF80AA076
:100A6000484603F0BAF8012809D0484603F0B5F823
:100A7000022804D0484603F0B0F80B2837D1484686
:100A800003F0ABF80228484615D003F0A6F80B286F
:100A900048461AD003F038F80022CDE90042D8F8D1
:100AA000002001463346D2F810C002AA4046E04773
:100AB00004B0BDE8F08703F027F82346324602A9C8
:100AC000FFF795FE04B0BDE8F08703F01DF805467A
:100AD000484603F039F80146007802AA334640B18F
:100AE00001280DD002281CBF04B0BDE8F087AFF389
:100AF000008028460094FFF746FD04B0BDE8F0876B
:100B000028460094FFF735FC04B0BDE8F0872DE9D6
:100B1000F04F8FB01E46DDE9184917460D46002CF0
:100B200004BF0FB0BDE8F08F114606A833F04EF9B0
:100B3000314608A833F04AF906A80FF029F93946DA
:100B400008A80FF00DF9BDF92010BDF81C20BDF864
:100B5000220012FB001202EB42025619BDF81820C7
:100B6000384F1144ADF82010BDF81A10BDF924809B
:100B70000844ADF822003868BDF926500168896B39
:100B80008847FF2C02D210F0040F0DD1B9F1000FED
:100B900018BF10F0100F07D1FF2C08BFB9F1000FDC
:100BA00019D110F0010F16D0BDF81C00A9B2CDE983
:100BB00001101FFA88F00090CDE903493868BDF8AC
:100BC0002230BDF820200168D1F844C03146E0470A
:100BD0000FB0BDE8F08F38680168096A8847DFF810
:100BE00068C0BDF92010BDF92220BCF80030FF2CF0
:100BF00003FB021101EB410101EB000938D2002196
:100C0000C4F1FF0A002DC8BF08EB480B5DDD00BF33
:100C1000BBF1000F28DDBDF91C0001EB410200FB18
:100C20000263BCF80000484300EB400000EB0902FF
:100C30004FEA0B0013F8018B92F800E008FB04F870
:100C400004E00000341900202E1900200EFB0A8851
:100C50001FFA88F808EB182808F101084FEA18284D
:100C600002F8018B401EE5D1491C8D42D0DC2CE0FE
:100C70000023002DC8BF08EB480426DD002C21DD31
:100C8000BDF91C0003EB430100FB0160411EBCF8F1
:100C90000000584300EB40004844401E18F0010F8C
:100CA00003D011F8012F00F8012F62100AD000BF05
:100CB00091F801A080F801A011F802AF00F802AF8E
:100CC000521EF5D15B1C9D42D8DC38680168496A28
:100CD00088470FB0BDE8F08F70B582B00D46DDE9F2
:100CE00006611C460C2A24BF02B070BDDFE802F08A
:100CF0001A0E061A1A1A1A1A1A1A1A1A0B4602B0D9
:100D0000324621462846BDE8704070E50022CDE914
:100D10000012016833462246D1F810C02946E04748
:100D200002B070BDAFF300802DE9F04FDFF878B46A
:100D3000054689B0DBF8000014460E4690F84800DE
:100D4000022800F0C280ADF8043001A802F045FF8F
:100D500007462868416A2846884787427ED101A80D
:100D600002F0D2FE0090002878D0214606A833F089
:100D70002DF8314602A833F029F82788648801A8A5
:100D800002F05DFF064601A802F07CFFADF814609A
:100D9000ADF81070ADF81600ADF8124006A80EF0D0
:100DA000F7FF02A80EF0F4FF04A80EF0F1FFFF4CCD
:100DB0000022BDF908102088944603B2FC4817466B
:100DC0008B42008800B273DDBDF90C6001EB0608B0
:100DD00090456DDD0CEB0006BDF90A00864267DD2B
:100DE000BDF90E908144E14562DD9142D8BF1146C4
:100DF0006045C8BF84460FFA88F01A4412B2904288
:100E0000A8BF1046401AADF80C000FFA89F032B2B4
:100E10009042A8BF1046A0EB0C00ADF80810ADF84A
:100E20000E00ADF80AC000BFBDF90C60002E1CBF5B
:100E3000BDF90EC0BCF1000F43D0BDF90830BDF9BB
:100E40001820934241DBBDF90A10BDF91A00814216
:100E50003BDB3344BDF91C60324400E035E09A428C
:100E600033DBBDF91E206144104481422DDC28682B
:100E7000816A284688478146DBF800000168896A54
:100E800088470146BDF90820BDF81000BDF914805F
:100E9000101A00B2009D08EB480A002817DD00EB8D
:100EA0004002A8EB00001544ADF8140019E0FFE77C
:100EB000ADF80870ADF80C70ADF80A70ADF80E70B2
:100EC000B2E7009809B0BDE8F08FAFF3008008DA10
:100ED000A2EB0002ADF80820BDF80C201044ADF8DC
:100EE0000C00BDF90A20BDF81200A2EB000000B210
:100EF000002808DD00FB0A55BDF81620A2EB000013
:100F0000ADF8160009E008DAA2EB0002ADF80A20FD
:100F1000BDF80E201044ADF80E00BDF91470002F7E
:100F2000C4BFBDF916000028CBDDBDF9083003EBC6
:100F300043021144BDF90A2002FB0916BDF90C1049
:100F4000B942B8BF0F462188CB1ABB42D8BF1F4653
:100F5000BDF90E308342B8BF1846954B1B889A1ACC
:100F60008242D8BF104604468F4208BF884524D12C
:100F7000DBF800000168896B884710F0010F11D081
:100F8000ADF80C70ADF80E40CDF80080DBF8000035
:100F90002B460168D1F860C0DDE90212E04709B0D4
:100FA000BDE8F08FDBF8000004FB09F3324601686E
:100FB000D1F834C02946E04783E74FF00008002C01
:100FC000C8BF07EB47077FF77CAFDBF800003B4665
:100FD00032460168D1F834C02946E04708F10108DB
:100FE0004E4455444445F0DC6BE7002B08BF704786
:100FF0002DE9F04F888887B01D469146002819BF1B
:10100000C888002807B0BDE8F08F04A832F0DEFEE3
:1010100004A80EF0BDFEDFF89081D8F8000001684A
:10102000896B8847FF2D03D010F0080F18D002E01D
:1010300010F0020F14D0BDF81600BDF81410CDE961
:1010400000100295D8F80000BDF81230BDF810204D
:101050000168D1F854C04946E04707B0BDE8F08FB9
:10106000D8F80000BDF91460BDF916700168096A6E
:1010700088474E4ABDF91010BDF91230B2F800C0D1
:10108000C9F3074A03FB0C1101EB41010B18C5F131
:10109000FF0CC9F3072409F0FF01FF2D34D20AFB2E
:1010A00005F9694304FB05FA4FF0000B002F43DDFF
:1010B000002E24DD1088344600FB0BF000EB4000CE
:1010C0001844057805FB0C15ADB205EB15256D1C14
:1010D0002D0A0570457805FB0CA5ADB205EB15256D
:1010E0006D1C2D0A4570857805FB0C95ADB205EB9E
:1010F00015256D1C2D0A8570C01C641EE1D10BF1F5
:10110000010B5F45D4DC17E04FF0000C002F13DD1E
:10111000002E0DDD1088354600FB0CF000EB400082
:1011200018440170447080F802A0C01C6D1EF8D1F4
:101130000CF1010C6745EBDCD8F800000168496A46
:10114000884707B0BDE8F08F2DE9F04F1E462DED22
:10115000028BBFB08846DDE94F454B98DDE94CA9CD
:10116000038980890021ADF8F430ADF8F010ADF8B6
:10117000F6001746DDF828B1ADF8F2103CA80EF0E5
:1011800007FE3268DBF80000BAF90030B9F900B0A8
:10119000811A03EB020CABEB0C000D908842A4BF4C
:1011A0003FB0BDEC028B05E0341900202E19002061
:1011B00030190020A8BFBDE8F08FB9F904000BEB8F
:1011C000000EE645C1F2B282C4F1FF00DDF82C91B9
:1011D0001890D8F80000D9F80090CDF82890CDF8F4
:1011E0002090BAF90290D6F814A0D8F80480D1441F
:1011F00009FB0838904408EB480840448D42C8BFBA
:101200000D46309501EE105AD7ED091AD6ED070AB2
:10121000B8EEC11AB7EE007A96ED0A0AD6ED0D3A8D
:1012200021EE815A01EE105AD7ED0B1AB8EEC11A11
:1012300070EE854A21EE813A01EE105AD7ED0D1A73
:101240000025B8EEC11A70EE035A0495E34561EE2D
:10125000812AC7EE201A33EEA22A61EE800A21EE1F
:10126000A30A39DDDDF8C0C00D9D309E95FBFCFC66
:1012700001EE10CA06FB1C55B8EEC11A0495BCF16C
:10128000000F45EE014A01EE10CAB8EEC11A43EE56
:10129000015A01EE10CAB8EEC11A02EE812A12DD1F
:1012A00034EEC50AB0EE471AB5EEC00AF1EE10FAF8
:1012B00001D087EE001A35EEC30A60EE010A32EE65
:1012C000620A20EE010A0CFB06F50CFB161105EB79
:1012D00045050CFB0622284402EB010C03EB0C0530
:1012E000AE45BCBFAEEB0301891A002941F31E8253
:1012F000309A309B91FBF2F203FB12111492319160
:1013000011B9511E31931491DFEDFE1A4E99091F48
:10131000DFEDFD6A1C911499B6EE006A0029DCBF6E
:101320003199002941F3028287EE241ADDF8C0C00A
:1013300021EE254A61EE023A20EEA11A74EE600A0F
:10134000BDEEC11A60EEA10A11EE102A20EE211A9C
:1013500033EEC00AFDEEE00ABDEEC11A10EE903A7F
:1013600020EE210A11EE101A93FBFCF3BDEEC00A29
:10137000359310EE103A93FBFCF33393149B002B40
:10138000CCBF6346319B0393049B002B10DD03EB22
:1013900043031844DDF810C0359B03FB0C22339B3C
:1013A00003FB0C11039BA3EB0C0303930023049397
:1013B0004E9B13F0010F04BF02F5004201F50041FE
:1013C0001314DDF80CC0359DACF1010C0CFB0525A8
:1013D0002E14339D0F140CFB051C4FEA2C4C002BD4
:1013E000A4BFBDF9F4509D4210DD002FA4BFBDF98C
:1013F000F630BB420ADD002EA8BFB54206DDBCF1C7
:10140000000FA8BF6345C8BF002300DC01231A9367
:101410004E9B0B2B00F0D7860EDCDDF870C0BCF1C4
:10142000070F81F07281DFE81CF06A05EB04E60823
:10143000E6086D066308FF052C2B00F0C5812D2BF7
:1014400007D02E2B00F06B842F2B00F0C48201F00C
:101450005CB94B9B5B681B7833B1012B7DD0022BB1
:1014600000F0BC8101F051B9DDF80CC00023BCF1E3
:10147000000F41F34A8100BF1A9D4FEA224C0E141F
:1014800065B1BCF1000FA4BFBDF9F450654565DD41
:10149000002EA4BFBDF9F650B5425FDD002C5DD033
:1014A000089D4FF00408AC44BDF9F45006FB05CC90
:1014B0004B9ED6F804909CF8006008EB860659F81D
:1014C00006709CF80160AC4408EB86069CF800505E
:1014D0009CF801C008EB850508EB8C0C1FFA82F81C
:1014E00000EE108A1FFA81F800EE908A59F8066023
:1014F00059F80550F8EE600A59F80CC0C7F30748D0
:10150000C6F3074920EEA61A00EE908A07EE909ADD
:10151000B8EE400AF8EE600AF8EE677AC5F3074ABB
:1015200020EE260ACCF3074B77EEE07A08EE10BAED
:1015300047EE800A07EE90AAB8EE488AF8EE677A7E
:1015400038EE678A48EE007A77EEE07A47EE810A55
:1015500070EE860AFCEEE00A01E095E085E010EE10
:10156000908AC7F3072EC6F3072B00EE90EA07EE2A
:1015700090BAC5F3072AF8EE600AF8EE677ACCF362
:10158000072908EE109AFFB277EEE07AB8EE488AA3
:10159000F6B2EDB247EE800A07EE90AA0CF0FF0C0F
:1015A00008F0FF08F8EE677AFF2C38EE678A48EEFD
:1015B000007A08EE10CAB8EE488A77EEE07A47EE75
:1015C000810A07EE906AF8EE677A70EE860AFCEE02
:1015D000E00A10EE909A00EE907A09F0FF09F8EE1A
:1015E000600A77EEE07A47EE800A07EE905AF8EE4E
:1015F000677A38EE678A48EE007A37EEE00A40EE06
:10160000010A30EE860ABCEEC00A10EE10CA0CF0D9
:10161000FF0C24D00678C4F1FF050CFB04FC06FB8C
:1016200005CC477809FB04F607FB0566B6B206EB66
:101630001626761CC6F30729877808FB04F607FBF5
:1016400005651FFA8CFCADB20CEB1C2C05EB1525C7
:101650000CF1010C6D1CCCF3072CC5F3072880F8A6
:1016600000C080F8019080F80280DDF8D4C0C01C72
:101670006244DDF8CCC05B1C6144DDF80CC06345FE
:10168000FFF6FAAE01F041B800230293039B002B52
:1016900041F33B801A9D13144FEA214C75B1002B86
:1016A000A4BFBDF9F4509D4206DDBCF1000FA4BFFC
:1016B000BDF9F650654501DCC01C77E0089DC2F31A
:1016C00003392B44BDF9F4500CFB0533DDF82CC174
:1016D0001E78DCF804C006EB4606361D0CEB060748
:1016E0005E782B4406EB46061D785B7805EB4505D6
:1016F000361D2D1D03EB4303664465441B1D9C44AE
:10170000002303E00000804700008037C1F3033866
:1017100019FB08FB08EB090ACDF874B04FEAEB0B94
:10172000CAF1000A0BEB4A0A0AF1200ACBEB49097D
:10173000CBEB4808CDF81CA0CDE9008917F801BB18
:1017400016F801AB15F8019B1CF801EBCDF824E06D
:10175000DDF81CE0DDF874800EFB0BFEDDF804B054
:101760004FEAE8080AFB0BEADDF800B0DDF824E0F8
:101770000BFB09F90EFB0898D044C8F34718FF2C5F
:101780000FD008FB04F990F800A0DDF860800AFB98
:1017900008981FFA88F808EB182808F10108C8F320
:1017A00007285B1C00F8018B032BC7DB359BDDF89A
:1017B0000CC01A44339B1944029B5B1C0293634583
:1017C000FFF668AF00F0A1BF4B9B5B681B783BB195
:1017D000012B6AD0022B40F0988700BFAFF3008046
:1017E000039B0027002BC8BF4FF0040840F38D87F0
:1017F0001A9D13144FEA214C65B1002BA4BFBDF90B
:10180000F4509D4246DDBCF1000FA4BFBDF9F65077
:1018100065453FDD089D1D44BDF9F4300CFB035CBC
:101820004B9B9CF800C05B6808EB8C0C53F80C5089
:1018300084B3C5F30743C5F3072CEEB2FF2C25D0C4
:1018400090F80090C4F1FF05664309FB056690F827
:1018500001900CFB04FC09FB05CC90F8029063435B
:10186000B6B209FB053306EB1626761C1FFA8CFC74
:101870009BB20CEB1C2C03EB13230CF1010C5B1C37
:10188000C6F30726CCF3072CC3F30723067080F8B2
:1018900001C08370359BC01C1A44339B7F1C1944C4
:1018A000039B9F42A4DB00F030BFFF2C58D2039B68
:1018B0004FF0000C002B40F3288713141A9E0D14D0
:1018C0006EB1002BA4BFBDF9F4609E4205DD002D72
:1018D000A4BFBDF9F660AE4201DCC01C35E0089E35
:1018E00007783344BDF9F46005FB06354B9B2D7832
:1018F0005B6805EB45052D1D2B441D7805FB04F6A3
:10190000189D07FB0565ADB205EB15256D1C2D0A6D
:1019100000F8015B5D780778189E654307FB065564
:10192000ADB205EB15256D1C2D0A00F8015B9B7807
:10193000067803FB04F5189B06FB03539BB203EBED
:1019400013235B1C1B0A00F8013B359B0CF1010CB7
:101950001A44339B1944039B9C45AEDB00F0D5BE73
:10196000039B002BC4BF00259C4640F3CE86359BCD
:101970001A9F03FB05231E14339B03FB05131B1443
:101980006FB1002EA4BFBDF9F470B74205DD002B86
:10199000A4BFBDF9F6709F4201DCC01C15E0089F92
:1019A0003E44BDF9F47003FB07664B9B36785B68D9
:1019B00006EB4606361D33441E7800F8016B5E7850
:1019C00000F8016B9B7800F8013B6D1CBCF1010C29
:1019D000CDD100F09ABE4B9B5B681B78002B40F08A
:1019E00094869C46039B002B40F38F8613141A9E0B
:1019F0000D146EB1002BA4BFBDF9F4609E4240F3FC
:101A00008181002DA4BFBDF9F660AE4240F37A811A
:101A1000089EBDF9F490334405FB09354B9B042720
:101A20006E78D3F804802B7807EB860607EB8303E8
:101A300058F8066058F803300F9609EB05061FFAB0
:101A400082F9357800EE109A07EB85051FFA81F9C7
:101A500058F805E0757800EE909A07EB8505B8EE2A
:101A6000400A58F80560F8EE600A1B960F9E1D0E9E
:101A70004FEA166820EEA68A00EE905A01EE108A10
:101A800020EE260AF8EE600AB8EE411A1B9E4FEAD5
:101A90001E67360E31EE601A07EE906A41EE000ABC
:101AA00001EE107AF8EE677AB8EE411A77EEC17A55
:101AB00007EE801A31EE601A41EE080A70EE860ACF
:101AC000FCEEE00A10EE909A19F0FF09CDF8349080
:101AD0007DD003F0FF1903F47F4309FB05F903FBF5
:101AE00005FA4FF0FF1505EA19234B4403F10113E2
:101AF00005EA132B0AEB1A2303F580734FF47F4991
:101B000009EA13234BEA0303DDF83CA0DDF83CB0FF
:101B10000AF0FF1A0BF47F4B0AFB08FA0BFB08F8DC
:101B200005EA1A2BDA4408EB18280AF1011A08F51D
:101B3000807805EA1A2A09EA18284AEA08080EF005
:101B4000FF1A0EF47F4B0AFB07FA0BFB07F705EAB7
:101B50001A2BDA4407EB17270AF1011A07F58077E9
:101B600005EA1A2A09EA17274AEA0707DDF86CA0EE
:101B7000DDF86CB00AF0FF1A0BF47F4B0AFB06FA93
:101B80000BFB06F605EA1A2BDA440AF1011A05EAFC
:101B90001A2A06EB162505F5807509EA15251E0C8F
:101BA0004FEA184900EE906A01EE109A4AEA0505DC
:101BB000F8EE600AB8EE411A4FEA174A4FEA154BA1
:101BC00031EE601A41EE000A01EE10AA00E099E041
:101BD00007EE90BAB8EE411AC8F3072AF8EE677A12
:101BE000C7F3072EC5F3072B08F0FF0877EEC17A7D
:101BF000FFB2EDB207EE801A07EE90BAF8EE677A00
:101C000031EE601A41EE080A01EE10AAB8EE411A50
:101C100070EE860AFCEEE00A10EE906A06F0FF090C
:101C2000C3F3072600EE906ADBB2F8EE600A31EEED
:101C3000601A41EE000A01EE10EAB8EE411A77EEA2
:101C4000C17A07EE801A07EE905AF8EE677A31EE05
:101C5000601A41EE080A70EE860AFCEEE00A10EE09
:101C6000906A00EE903AF6B2B8EE601A00EE908AF2
:101C7000F8EE600A70EEC10A00EE801A00EE907A6B
:101C8000F8EE600A77EEE07A47EE800A30EEC10A9D
:101C900000EE081A31EE060ABCEEC00A10EE103A49
:101CA000DDB20D9BFF2B08BFFF2C27D0634303EB56
:101CB00013235B1CC3F307230778C3F1FF036543BA
:101CC00017FB0355ADB205EB15256D1C4778C5F321
:101CD0000725664317FB0366B6B206EB1626761C8D
:101CE00090F80280C6F3072609FB04F718FB03737C
:101CF0009BB203EB13235B1CC3F3072905704670EB
:101D000080F80290359BC01C1A44339B0CF1010CE7
:101D10001944039B9C45FFF669AE00F0F6BC4B9B53
:101D20005B681B78002B40F0F0849C46039B002BE3
:101D3000C8BF042740F3E98413141A9E0D145EB142
:101D4000002BA4BFBDF9F4609E4257DD002DA4BF57
:101D5000BDF9F660AE4251DD089E3344BDF9F46032
:101D600005FB06354B9B5E682B7807EB8303F35826
:101D70001D0E43D0C3F30748C3F30726DBB2FF2D84
:101D800008BFFF2C29D0654305EB15256D1CC5F355
:101D9000072590F800A0C5F1FF096B431AFB093332
:101DA0009BB203EB13235B1C90F801A0C3F3072342
:101DB0006E431AFB0966B6B206EB162608FB05F55C
:101DC000761C90F80280C6F3072618FB0955ADB2C1
:101DD00005EB15256D1CC5F3072800F8013B00F83D
:101DE000016B00F8018B359B0CF1010C1A44339BFD
:101DF0001944039B9C459FDB00F087BCC01CF2E7A5
:101E000000230293039B002B40F37F841A9D4FEA2B
:101E1000224C0B1465B1BCF1000FA4BFBDF9F45006
:101E200065455EDD002BA4BFBDF9F6509D4258DD2F
:101E3000BDF9F4504FF0030803FB05C303EB430C5B
:101E4000089BC2F30339634405EB450C0CEB030517
:101E5000EE1C8446C1F3033719FB07FACDF844A002
:101E600007EB090ACAF1000BDDF844A04FEAEA0AC1
:101E70000AEB4B0B0BF1200BCAEB4707CAEB4909E6
:101E8000CDF84CB0059793F800B0DDF84CA015F8EC
:101E900001EB0BFB0AFB93F803A0119F0AFB09BAA5
:101EA000DDF814B0FF100EFB0BFB16F801EBFF2C56
:101EB0000EFB07B75744C7F347170CD007FB04FBCB
:101EC0009CF800A0189F0AFB07B7BFB207EB1727C3
:101ED0007F1CC7F307275B1C0CF8017BB8F10108D6
:101EE000D1D1359BDDF80CC01A44339BC01C19447A
:101EF000029B5B1C0293634588DB00F006BCFF2C51
:101F000054D2039B4FF0000C002B40F3FE831314BC
:101F10001A9E0D146EB1002BA4BFBDF9F4609E4251
:101F200005DD002DA4BFBDF9F660AE4201DCC01C8A
:101F300031E0BDF9F460077805FB063303EB430598
:101F4000089B2B441D7805FB04F6189D07FB0565CF
:101F5000ADB205EB15256D1C2D0A00F8015B5D780F
:101F6000077805FB04F6189D07FB0565ADB205EB88
:101F700015256D1C2D0A00F8015B9B78057803FB85
:101F800004F6189B05FB03639BB203EB13235B1C56
:101F90001B0A00F8013B359B0CF1010C1A44339BE2
:101FA0001944039B9C45B2DB00F0AFBB039B002BA5
:101FB000C4BF0023039D40F3A88300BFDDF8D4C055
:101FC0001A9F0CFB032C4FEA2C46DDF8CCC00CFB0F
:101FD000031C4FEA2C4C77B1002EA4BFBDF9F4705E
:101FE000B74206DDBCF1000FA4BFBDF9F67067452E
:101FF00001DCC01C13E0BDF9F4700CFB076C089EFB
:102000000CEB4C0CB4449CF8006000F8016B9CF89D
:10201000016000F8016B9CF802C000F801CB5B1C6A
:102020006D1ECBD100F071BB039B0025002B40F34C
:102030006C831A9E13144FEA214C66B1002BA4BF87
:10204000BDF9F4609E425BDDBCF1000FA4BFBDF999
:10205000F660664554DD0A9E06EB8306BDF9F43052
:1020600003FB0CF356F823305FEA136C48D0C3F33C
:102070000746C3F3072703F0FF08BCF1FF0F08BFB3
:10208000FF2C2DD004FB0CF303EB13235B1CC3F3D9
:10209000072C90F80090CCF1FF0308FB0CF819FB1B
:1020A00003881FFA88F808EB182808F1010890F84F
:1020B0000190C8F3072807FB0CF719FB0377BFB2A1
:1020C00007EB172706FB0CFC7F1C8678C7F3072756
:1020D00016FB03C39BB203EB13235B1CC3F307265E
:1020E00000F8018B00F8017B00F8016B359B6D1C3B
:1020F0001A44339B1944039B9D429ADB00F005BBB5
:10210000C01CF3E7DDF80CC00023BCF1000F40F366
:10211000FC821A9E15144FEA214C66B1002DA4BF13
:10212000BDF9F460AE4240DDBCF1000FA4BFBDF9C3
:10213000F660664539DD0A9E06EB8505BDF9F4605B
:1021400006FB0CFC55F82CC07CB3CCF30745CCF354
:1021500007260CF0FF07FF2C24D090F80080C4F174
:10216000FF0C674308FB0C7790F80180664308FB7F
:102170000C66BFB207EB17277F1CB6B206EB16261C
:10218000761C90F80280654308FB0C5C1FFA8CFCFF
:102190000CEB1C2C0CF1010CC7F30727C6F3072628
:1021A000CCF30725077046708570DDF8D4C0C01CDD
:1021B0006244DDF8CCC05B1C6144DDF80CC06345B3
:1021C000A7DB00F0A2BA039B0027002B40F39D82FF
:1021D0001A9D4FEA224C0B1465B1BCF1000FA4BF4D
:1021E000BDF9F45065457CDD002BA4BFBDF9F65068
:1021F0009D4276DD0A9D1FFA82FB05EB8C0CBDF932
:10220000F45000EE10BA6B430CEB8303B8EE400AB7
:10221000D3E9008953F825A003EB85034FEA18653D
:1022200001EE105A4FEA196C5E68F8EE417A01EE41
:1022300010CA60EE260A1B96B8EE411A4FEA1A63DE
:10224000360E08EE106A31EE671A1FFA81FBB8EEFF
:10225000488A00EE10BA41EE207A01EE103AB8EE4C
:10226000400AB8EE411A20EE260A38EE418A08EEFE
:10227000201A31EE671A41EE007A37EE861ABCEE6C
:10228000C11A11EE10BA1BF0FF0BCDF834B028D0F4
:1022900008F0FF1B08F47F4E0BFB05F80EFB05FB57
:1022A0004FF0FF1505EA182EF0440BEB1B2B0BF536
:1022B000807E08F101184FF47F4B05EA18280BEADD
:1022C0001E2B48EA0B0E09F0FF1B09F47F480BFB9D
:1022D0000CF908FB0CFC05EA1928C84408F10118A0
:1022E00000E0FAE00CEB1C2C0CF580794FF47F4CED
:1022F0000CEA192C05EA182848EA0C0C0AF0FF1819
:102300000AF47F4908FB03F809FB03F305EA1829DF
:10231000C84403EB132303F5807908F101182B124D
:1023200005EA182803EA192348EA03091B9BDDF88C
:102330006C8003F0FF1308F47F48734308FB06F634
:1023400005EA1328434403F1011305EA132506EBBC
:10235000162303F580764FF47F4303EA162345EAFC
:10236000030A4FEA1E454FEA1C4601EE105A07EEDB
:10237000906A4FEA1948B8EE411AF8EE677A4FEAC8
:102380001A4308EE103ACEF3072677EEC17AB8EE7C
:10239000488ACCF3072B07EEA01A07EE908ACAF3FF
:1023A0000728F8EE677A38EE678A48EE207A77EEEB
:1023B000C17A07EE801A07EE90BAF8EE677A31EE2E
:1023C000061ABCEEC11A11EE103A01EE106ADDB227
:1023D000B8EE411AC9F3072377EEC17A07EEA01AC7
:1023E00007EE903AB8EE678A07EE908AF8EE677AC1
:1023F00077EEC87A07EEA08A78EE417A07EE801A67
:1024000031EE061A0CF0FF0C07EE90CA09F0FF0837
:10241000BCEEC11AF8EE677A0AF0FF0911EE103A25
:1024200008EE109ADDF834C0DEB20EF0FF0301EEC4
:10243000103AB8EE488ABCF1FF0FB8EE411A77EEB9
:10244000C17A07EEA01A07EE908AF8EE677A38EEA6
:10245000678A48EE207A77EEC10A00EE801A31EEE4
:10246000060ABCEEC00A10EE103ADBB208BFFF2C21
:102470002CD004FB0CFC0CEB1C2C0CF1010C03FB12
:1024800004F8CCF3072C0378CCF1FF0C13FB0C837E
:102490009BB203EB132306FB04F85B1C4678C3F3E3
:1024A000072316FB0C86B6B206EB1626761C90F8B0
:1024B0000280C6F30726654318FB0C5C1FFA8CFCF0
:1024C0000CEB1C2C0CF1010CCCF3072500F8013BA4
:1024D00000F8016B00F8015B00E0C01C359B7F1C1D
:1024E0001A44339B1944039B9F42FFF671AE0CE1E3
:1024F000DDF80CC00023BCF1000F7CDD1A9D4FEA13
:10250000224C0E1465B1BCF1000FA4BFBDF9F4500C
:10251000654544DD002EA4BFBDF9F650B5423EDD51
:10252000ECB30A9DBDF9F48005EB8C0C08FB06F5B5
:102530000CEB850CDCE900755CF828600CEB880C72
:10254000DCF8048007F0FF1C07F47F474CEA070C17
:1025500005F0FF1705F47F453D4306F0FF1706F42D
:102560007F463E4308F0FF1708F47F4847EA080714
:102570001FFA82F800EE108A1FFA81F800EE908AA6
:10258000B8EE400A4FEA1C49F8EE600A4FEA1548D7
:1025900020EE260A4FEA164A60EEA60A00E0A7E0FF
:1025A00001EE109A07EE908A4FEA174BB8EE411AE7
:1025B000F8EE677ACCF3072E77EEC17A07EE801A31
:1025C00007EE90AAB8EE678A07EE90BAC5F3072B1C
:1025D000F8EE677A77EEC87A07EE808A78EE417A6D
:1025E00007EEA01A31EE061ABCEEC11A11EE108ADF
:1025F00008F0FF0800E088E001EE10EA07EE90BA6C
:10260000C6F3072AB8EE411AF8EE677AC7F307292E
:1026100008EE109A0CF0FF0C77EEC17AB8EE488AFB
:10262000EDB2F6B207EE801A07EE90AAFFB2FF2CC9
:10263000F8EE677A38EE678A48EE007A08EE107A8C
:10264000B8EE488A77EEC17A07EEA01A07EE905AE4
:10265000F8EE677A31EE061ABCEEC11A11EE109A46
:1026600001EE10CA09F0FF09B8EE411A77EEC17AFF
:1026700007EE801A07EE906AF8EE677A38EE678AFE
:1026800048EE007A37EEC10A00EE201A31EE060A53
:10269000BCEEC00A10EE10CA0CF0FF0523D006787D
:1026A000C4F1FF0C654306FB0C55477809FB04F6A3
:1026B00007FB0C66ADB205EB15256D1CB6B206EB3B
:1026C0001626761CC6F30729877808FB04F607FB55
:1026D0000C6C1FFA8CFC0CEB1C2C0CF1010CC5F3E0
:1026E0000725CCF30728057080F8019080F8028058
:1026F000DDF8D4C0C01C6244DDF8CCC05B1C614472
:10270000DDF80CC06345FFF6F9AE74EE854A75EE50
:10271000835A32EE222A1499F0EE440AB0EE630A8C
:102720000029C4BF491E14913EF7F8AD3FB0BDEC7F
:10273000028BBDE8F08F0300FC480288C2F1000064
:1027400006D001290BD002290BD003290BD07047EA
:10275000012906D0022906D0032908BF70470120AD
:102760007047104670474FF0FF3070470300EF4846
:102770000288C2F1000007D001290CD002290CD038
:10278000032908BF70470BE0012906D0022908BFC2
:102790007047032904D0104670474FF0FF30704750
:1027A000012070472DE9FF4F89B0DDE91A20DDE9EE
:1027B0001F49DDE91DABB2F900109388DDF8608098
:1027C0000B441BB205935388D288169F1A4412B249
:1027D0000492427B12F0080318BF4FF4807390F804
:1027E00006C012F0100243EA0C0518BF4FF48072C5
:1027F000C379002D42EA030612BF002E0DB0BDE8DA
:10280000F08FB8F1000F90F9090004BF384407B207
:102810000CD0A8EB00001FFA80F80FFA88F000280F
:1028200004DAA7EB080007B24FF00008B94204DD54
:10283000C81B40441FFA80F80F46BD4800780128A5
:1028400018BF0020009039460BA8219B179A06F06C
:1028500019FCADF8180039460BA8219B179A06F011
:1028600029FCADF81C0007A906A80DF009FA21996A
:102870000098CDF80CB0084304D001294AD1009843
:10288000002847D0DFF8ACB2DBF800000168896BA4
:10289000884710F0800F06D0042C04D1BAF1000F45
:1028A00018BF012100D1002110F4807F03D0082C33
:1028B00008BF012000D0002008432BD000290CBF06
:1028C0004FF480708020199958EA010122D10599AE
:1028D0007A198A421EDC17998A190499914219DBE8
:1028E000082C1CBF691C21F00105CDE90056CDE97B
:1028F00004900295BDF81C0083B2BDF8180082B2A6
:10290000DBF800000168D1F84CC01C99E0470DB01D
:10291000BDE8F08F0A9820B9864800680168096A06
:1029200088478249BDF91820BDF91CC00B880CFBF3
:10293000032101EB410108440121A140491E01F09E
:10294000FF0B012C08BFFF2107D0022C08BF552127
:1029500003D0042C0CBF1121012102910021AC46AF
:10296000042C04D1BAF1000F18BF012200D10022BB
:102970002A4218BF05F1010CDDF864A01C9A58EA40
:102980000A0A0ED019990CFB018161431FFA81FAE2
:102990000AF0070102EBDA02DDF864A0A6EB0A06F2
:1029A000B6B2DDF800E0DDF884A0BEF1000F09D07A
:1029B000BAF1010F1AD0BAF1020F10D0BAF1030F19
:1029C0000FD011E0BAF1010F09D0BAF1020F08D00F
:1029D000BAF1030F18BF4FF0010A05D006E09A467E
:1029E00004E04FF0FF3A01E0C3F1000ACDF804A083
:1029F000DDF884A0BEF1000F09D0BAF1010F16D0A6
:102A0000BAF1020F0DD0BAF1030F0DD00EE0BAF1FA
:102A1000010F06D0BAF1020F06D0BAF1030F05D0AC
:102A200005E04FF0FF3302E05B4200E001239E46E9
:102A3000DDF85CA0049BA3EB0A03B342D8BF1E469B
:102A4000A7EB0807059BDB1BAB42D8BF1D46A5EBD8
:102A500008030093ACEB030363430493039BC3F3AA
:102A6000074CCDF820C0C3F3072CDFB2CDF814C05B
:102A700013780396CB40002E7EDDDDF804C0DDE93F
:102A800000560CEB4C0806FB15EC0CEB4C0CCDF88F
:102A900004C000BFDDF800C0BCF1000F5FDD00BF67
:102AA00013EA0B054DD0029E7543FF2D02DBB9F1F1
:102AB000FF0F41D205FB09F5ADB205EB15256D1CE5
:102AC000C5F3072590F800E0C5F1FF0607FB05FAFE
:102AD0001EFB06AA1FFA8AFA0AEB1A2A0AF1010A51
:102AE0004FEA1A2A80F800A0DDF814A090F801E05F
:102AF0000AFB05FA1EFB06AA1FFA8AFA0AEB1A2A33
:102B00000AF1010A4FEA1A2A80F801A0DDF820A094
:102B10000AFB05F590F802A01AFB0655ADB205EBCD
:102B200015256D1CC5F307250AE000002E190020AD
:102B300024190020341900200770059D4570089D58
:102B40008570214489B2E340082902D312F8013F7D
:102B50000021ACF1010C4044BCF1000FA0DCDDF819
:102B600010C0BCF1000F09D0614489B202EBD10260
:102B700001F00701137800E00DE0CB40DDF804C060
:102B80006044DDF80CC0ACF1010CCDF80CC0BCF118
:102B9000000F3FF77FAF0A9800281CBF0DB0BDE8BB
:102BA000F08F874800680168496A88470DB0BDE822
:102BB000F08F2DE9F04F8846044600F10801814866
:102BC00085B0002500882E460FFA80F97E480088DF
:102BD0000FFA80FA684631F0F9F8BDF90000AB460B
:102BE00081457DDDBDF9041000EB010CAC4577DDBE
:102BF000BDF9021006EB0A028A4271DDBDF906300A
:102C00000B44B3426CDDA842D8BF28468246B1428D
:102C1000C8BF0E460FFA8CF005EB090109B28842D5
:102C2000A8BF0846A0EB0A00ADF8040018B211B224
:102C30008842A8BF0846801BADF800A0ADF806008A
:102C4000ADF80260DDE900606168002919BF01B2DA
:102C5000002905B0BDE8F08F001404BF05B0BDE841
:102C6000F08F574800680168096A88470546D8F818
:102C70000000816A40468847844600200246019051
:102C8000606801210078029100281CBF0FFA86F8C5
:102C90004FEA26497ED00A2804BFD21D00207DD0ED
:102CA000A0F120013F299CBF1F38C0B20DD9A0F16F
:102CB00060011A2998BF3F3806D9A0F17B0103298A
:102CC00094BF3938002000D8C0B2404931F8100014
:102CD00003900020CDF80000C0F10E01012000E0BB
:102CE0001FE000FA01F1039801EA00033848009957
:102CF000002B80FB0160A0EBE070A0EB80060E448F
:102D0000217D01EB410707F1010A019F01FB00FE54
:102D10000AFB07F701FB06771CBF0020002933DD03
:102D200009E0ADF800B0ADF804B0ADF802B0ADF810
:102D300006B087E729B3237D00210EEB000600BF14
:102D400094F814B007EB010AC24402FB0B9B0AEB98
:102D50004A0AAA44B3440BFB0CAA94F810B08AF8B0
:102D600000B0B4F810B0491C4FEA1B2B8AF801B030
:102D7000D4F810B05B1E4FEA1B4B8AF802B0DFD1CB
:102D8000217D401C8142D5DC0098401C00900F281A
:102D9000A2DB01E00CE001E00198401C01906168B9
:102DA0000298085C0299491C029100287FF473AFD5
:102DB000034800680168496A05B0BDE8F04F08475C
:102DC000341900202A1900202C19002004C70B08F0
:102DD000565555550749016000218180C180FF216A
:102DE00001727047704730F09ABF8180C28070478F
:102DF000017270471CEF0B08FE48C068704770B541
:102E00000C00054613D0FB4E0020A5F88400706826
:102E100010B1016849698847746021682046C96813
:102E200088472868816A2846BDE870400847AFF3A4
:102E30000080F14900B50A88F04983B04FF0000CDA
:102E40000988ADF800C0ADF80420ADF802C0ADF8B7
:102E500006100168CA6A6946904703B000BD2DE9B3
:102E6000F04F824610B28DB00C461546002812BFB6
:102E70005FEA25400DB0BDE8F08FBAF8E800002801
:102E800000F05981B0F1010900F155811FFA89F074
:102E90000AEBC00021B2D0E92A870FFA88F08842F5
:102EA00014DC22144FEA284393420FDC0FFA85FC0E
:102EB0003EB28C440644B44508DC02EB254C03EBDF
:102EC00027429445DCBF0DB0BDE8F08F884239DB66
:102ED0004FEA284223149A4234DB0FFA87FC2EB2C1
:102EE00084440E4466452DDB02EB274C03EB254260
:102EF000624527DB0020ADF81800ADF81C00ADF8E6
:102F00001A00ADF81E00BAF8E8001FFA89F70AF1B6
:102F1000A806B84240F20B8106EBC701884606A816
:102F200030F054FFB6F84000401E80B2A6F84000D2
:102F3000B84240F2FC8006EBC001404630F046FF4C
:102F400000F0F5B82AB28B1883426ADD3BB2034425
:102F50008B4266DD211401EB254C4FEA28439C454A
:102F60005FDD03EB27438B425BDD0020ADF82000E3
:102F7000ADF82400ADF82200ADF82600BAF8E8005C
:102F80001FFA89FB0AF1A806584512D906EBCB01B6
:102F900008A8009130F01AFFB6F84000401E80B239
:102FA000A6F84000584504D906EBC001009830F05F
:102FB0000DFF3BB2002B18BF5FEA27467DD00FFA0A
:102FC00085FBBBF1000F18BF5FEA254776D022B220
:102FD0000FFA88FC6245B4BF10466046864620144E
:102FE0004FEA28484045B4BF014641465A4463442D
:102FF00012B21BB29A42D8BF1A46384403B208EB49
:10300000060000B28342C8BF18466EF30F04A2EB5D
:103010000E0262F30F05401A61F31F4460F31F456F
:1030200085E039B2A3462E46002918BF5FEA274340
:1030300047D00FFA86FCCDF810C0BCF1000F7BD052
:103040005FEA264CCDF80CC076D00FFA8BFCCDF899
:1030500008C08445A8BF84464FEA2B4ECDF814C063
:103060004FEA284CCDE900ECE645B8BFF446E64609
:10307000DDF810C0DDF808800844C4440FFA8CFC69
:1030800000B28445D8BF8446E046DDF800C003980E
:1030900060440FFA80FC0198184400B28445C8BF10
:1030A0006046059BA0EB0E0063F30F0BA8EB030338
:1030B0006EF31F4B63F30F0601E038E042E060F36C
:1030C0001F4628144243381401FB002000EB400146
:1030D00001EBC00116FB16F000EB800040008142BE
:1030E00025DD0020ADF82800ADF82C00ADF82A0051
:1030F000ADF82E00BAF8E8001FFA89F50AF1A80425
:10310000A84212D904EBC5010F460AA830F05EFEB2
:10311000B4F84000401E80B2A4F84000A84204D990
:1031200004EBC001384630F051FE5C463546B9F13B
:1031300001097FF5ABAE00E00FE0BAF8E80008281F
:1031400016D07DE068F30F044FEA284063F30F05C3
:1031500060F31F4466F31F45E9E760F30F0B4FEA86
:10316000284061F30F0660F31F4B63F31F46A8E787
:103170000020ADF80000ADF80400ADF80200ADF895
:103180000600BAF8E8000AF1A806072812D906F1E5
:1031900038010F46684630F019FEB6F84000401E70
:1031A00080B2A6F84000072804D906EBC0013846D3
:1031B00030F00CFEDDE900010EB2002E18BF5FEA10
:1031C00021493DD02FB2002F18BF5FEA254B2ED0EA
:1031D00022B201B28A42B4BF94468C464FEA2448D8
:1031E00000148045B4BF434603463A44314417B205
:1031F00009B205E0E81800202A1900202C19002047
:103200008F42D8BF0F4608EB0B01484409B202B207
:103210009142C8BF0A466CF30F04A7EB0C0060F3A1
:103220000F05D01A63F31F4460F31F4508E060F3F5
:103230000F04001466F30F0560F31F4469F31F4584
:10324000CDE90045BAF8E8200AF1A801082A01D31F
:10325000AFF3008001EBC200521CA1F84020694688
:1032600030F0B4FD0DB0BDE8F08F2DE9F04300263D
:1032700085B081460F463446FE4800880FFA80F834
:10328000FD48008805B2684630F0A0FDBDF9001089
:1032900088452EDDBDF9040001EB000CB44528DDA6
:1032A000BDF902006219824223DDBDF906300344F4
:1032B000A3421EDDB142D4BF35460D46A042C8BF71
:1032C00004460FFA8CF006EB080109B28842A8BF49
:1032D0000846401BADF8040018B211B28842A8BFDE
:1032E0000846001BADF80050ADF80600ADF80240EE
:1032F00008E00020ADF80000ADF80400ADF80200D1
:10330000ADF80600009802900198039002A9384693
:1033100030F05CFDD9484068002804BF05B0BDE826
:10332000F08399F82C1151B13946684630F04EFDC2
:10333000DDE9001205B04846BDE8F0438FE50168BD
:103340008A6839469047CE48006801684A6905B0E6
:103350003946BDE8F0431047C8484068002808BF18
:103360007047026892691047C4484068002808BF47
:1033700070470268D2691047C0484068002808BFFB
:1033800070470268126A10472DE9F041BB4D0446B0
:103390000026A86808B1017A19B194F82D11C1B9B5
:1033A00006E084F82D6101688968BDE8F0410847AE
:1033B00000281CBF007A00280BD0686810B1016893
:1033C00009698847A8680168C9688847012084F8A6
:1033D0002D01B4F88400002700280FDDE01990F8D3
:1033E000880030B1201DB9B250F821000168096D84
:1033F0008847B4F884007F1CB842EFDC80B2431EDB
:10340000002BA8BF04F1880C41DBE01890F888007D
:10341000D8BB211D98B20A4651F82080B4F8841018
:10342000002000291DDD00BF52F82010414508BFD3
:10343000014607D010E000BF02EB81077F6842F829
:103440002170491CB2F88070B942B8BF1F29F3DB64
:10345000B9B2491EA2F88010B2F88010401C814217
:10346000E2DCB4F8841098B281420AD92118401CD9
:1034700091F8892081F88820B4F8841080B28142C4
:10348000F4D8B4F8840000F80C605B1EBDD5686801
:10349000002808BFBDE8F0810168496ABDE8F04135
:1034A000084776484068002808BF70470268926A5B
:1034B000104770472DE9F04FA9B00025044680F869
:1034C0002C1100291EBFA0F8E85029B0BDE8F08FEC
:1034D000B4F8E800002804BF29B0BDE8F08F04A8C4
:1034E00008231A46674930F0A5FC0021634FA0F875
:1034F0004010B4F8E8003E88B04288BF0DF1700873
:103500001CD900BF04F1A80000EBC60104AD404681
:1035100030F05CFCBDF85000082880F0158205EB07
:10352000C002401CADF850004146104630F04EFC41
:10353000701C86B2B4F8E8008642E3D34F48058891
:10354000B4F82A01A84288BF02AE11D904F1EA00FA
:1035500000EBC501304630F039FCDDE902122046AF
:10356000FFF77DFC681C85B2B4F82A01A842EDD8AB
:103570004348006890F8480001284AD00228DFF844
:1035800000813E4800F030810588B4F8E800A84288
:1035900019D900BF04EBC500D0E92A10CDE902100B
:1035A000BDF80C0000281CBFBDF80E00002804D098
:1035B000206802A9C26A20469047681C85B2B4F808
:1035C000E800A842E6D82D4D286958B12C490A6870
:1035D00092F8761000291ABFD16C00299168026810
:1035E0009268904728480078002804BF29B0BDE8B9
:1035F000F08F0020A4F82A012D88BDF85000A842C1
:1036000087BF0DF110081EAF29B0BDE8F08F00F0A4
:103610008FB9DFF868C0B4F8E8200026BCF80000D5
:1036200082420FDD04F1A80381B203EBC101B1F9BD
:103630000230B1F906101944B142C8BF0E46401C11
:103640008242EFDC0C4800880F288CBFC0080120A4
:103650000022ADF85820ADF85C201A90ADF85A2041
:10366000ADF85E201746002EC8BF0DF160087BDD67
:10367000034D0BE02A1900202C190020E818002027
:1036800034190020D9270708251900202868016867
:10369000D1F88C108847BDF95A10BDF95E2011444D
:1036A0001A9A0A448242C8BF864203DD8142C8BFDB
:1036B00000297BDD0AB2824201DC864200DA304614
:1036C000401A20A94FF0000CFE4B1B88ADF8843047
:1036D000ADF880C0ADF88600ADF8822016A830F0B5
:1036E00075FBF9480588B4F8E800A8426ED900BF18
:1036F00004F1A80000EBC501404630F067FBBDF9BE
:103700005820BDF95C00BDF9601002EB000C8C453F
:103710004DDDBDF9640001EB0009914547DDBDF9C0
:103720005A30BDF95E0003EB000ABDF96200824524
:103730003DDDBDF966B083449B4538DD9142D8BF7D
:1037400011469842D8BF18460FFA89F30FFA8CF247
:103750009342B8BF1A46521AADF864200FFA8BF2A2
:103760000FFA8AF39A4200E038E0A8BF1A46121A0C
:10377000ADF86010ADF86620ADF86200DDE9180123
:10378000CDE92201BDF88C0000281CBFBDF88E00D9
:10379000002804D0206822A9C26A20469047681CED
:1037A00085B2B4F8E800A842A2D80FE008E0ADF86E
:1037B0006070ADF86470ADF86270ADF86670DDE70A
:1037C00028680168D1F8882001219047BDF95A0086
:1037D000BDF95E100844B042FFF64AAFBB4800682E
:1037E0000168C9698847EEE60688B4F8E800B04287
:1037F00084BFB74F00257FF6E6AE00BF04EBC601DD
:10380000D1E92A01CDE920013878012804BF20A898
:103810000CF0BEFABDF9840000281CBFBDF886106C
:1038200000293CD0BDF88010ADF80810ADF80E505E
:10383000BDF88210ADF80A10ADF80C00BDF882009A
:10384000BDF88610BDF80C300844BDF80A10401AC7
:1038500080B20090D8F800008AB2BDF80810D0F805
:1038600000C0DCF884C0E04700B2ADF80E00397843
:1038700001291BD0206802A9C26A2046904700BFD8
:10388000BDF80A00BDF80E10BDF98620084400B24C
:10389000ADF80A00BDF9821011448142CEDC701CE3
:1038A00086B2B4F8E800B042A8D88CE6ADF804506F
:1038B000ADF80650BDF80810ADF85410BDF80A1068
:1038C000ADF800500844401EADF85800ADF8025065
:1038D00016A915A80CF030FABDF85400ADF8000098
:1038E000BDF85800ADF80200BDF80800BDF80C1096
:1038F0000844ADF85400BDF80A00ADF8580016A908
:1039000015A80CF019FABDF80000BDF85410081AFB
:10391000401CADF80400BDF80210BDF85800401A74
:10392000ADF8060020686946C26A20469047A7E7BE
:1039300008EBC50104F1EA06384630F047FAB6F85C
:103940004000082802D300BFAFF3008006EBC0029E
:10395000401CA6F840003946104630F037FA681C83
:1039600085B2BDF850008542E2D329B0BDE8F08FA2
:1039700010B5B0F884300022002B12D900F1040CED
:103980005CF822C08C4508D1811891F88800FF2886
:103990003CBF401C81F8880010BD521C92B293427B
:1039A000ECD8202B08D21A180123001D82F8883089
:1039B000B0F88020202A01D3AFF300809300521C7E
:1039C000A0F88020C15010BD0021A0F88410C0F8DC
:1039D0008810C0F88C10C0F89010C0F89410C0F88F
:1039E0009810C0F89C10C0F8A010C0F8A410704740
:1039F000B0F884300022002B98BF704700F1040C0F
:103A00005CF822C08C450DD100EB020C9CF888C0FC
:103A1000BCF1000F06D0104490F88810491E80F8C1
:103A200088107047521C92B29342E7D87047B0F8A2
:103A300084007047B0F884300022002B0ED900BFFC
:103A400000F1040C5CF822C08C4503D1104490F8BE
:103A500088007047521C92B29342F1D80020704700
:103A600070B51C4901600025A0F884500823A830D7
:103A70001A46194930F0DEF9A0F8405008234230C8
:103A80001A46154930F0D6F9A0F8405080F8425057
:103A9000A0F1EA0480F84350104911480CF050FAA4
:103AA000094E002818BF358006D14FF48060308061
:103AB0000220706007F08AFCF5607560B560A4F8BC
:103AC00084500FE02A190020E81800203419002043
:103AD0002419002074EB0B08D9270708CDB5E8B5E9
:103AE000C2A507F4C4F88850C4F88C50C4F89050AC
:103AF000C4F89450C4F89850C4F89C50C4F8A0502E
:103B00002046C4F8A45070BDFD4A10B5936873B147
:103B100001884FF6FF70814224BF002010BDA1F53F
:103B20007F40FE3805D1F7480068406C10BDAFF308
:103B300000801069002819BF50F82100002801EB0F
:103B4000810053F8200010BD02884FF6FE708242BB
:103B500036D2EB48034641881B698A4220D28068EE
:103B600002EB820100EB81014868002814BF002BA2
:103B7000704753F82220002A08BF7047088A4B8AF2
:103B8000400BC00040EA53300B280889498900FBEC
:103B900001F018BF4000C01C20F003001044704723
:103BA000B0F804C08C4494450AD9511AC068C1EBDE
:103BB000C10100EB4100017B01F01F010B2901D085
:103BC00000207047018940894843C01C53F82210E7
:103BD00020F0030008447047B6E7C94900888B68A5
:103BE000DBB14A8890420AD200EB800003EB8000F0
:103BF000018A408A490BC90041EA503070478B88DE
:103C00001344984209D2801AC968C0EBC00001EB86
:103C10004000007B00F01F007047A0F57F41FE3997
:103C20001CBF00207047B748016891F87600002853
:103C30001ABFC86C002888680168496A0847B049FB
:103C400010B58B68A3B100884A8890423CBF00EB56
:103C5000800003EB800009D38B881344984209D27B
:103C6000801AC968C0EBC00001EB4000008910BD9C
:103C7000AFF30080A0F57F41FE3912BF0020A248BB
:103C8000008810BD9E4910B58B68A3B100884A8892
:103C900090423CBF00EB800003EB800009D38B888F
:103CA0001344984209D2801AC968C0EBC00001EBE6
:103CB0004000408910BDAFF30080A0F57F41FE3980
:103CC00012BF00209148008810BD8D4A10B5D2F86F
:103CD00008C0BCF1000F16D009885388994214D24D
:103CE00001EB81010CEB81010A8AB1F80CC0CB8990
:103CF000498AA0F800C0C2F30C024380C1F30C0152
:103D00008280C18010BDAFF30080B2F804C09C4433
:103D100061450AD2C91AD268C1EBC10102EB410167
:103D20000A6802604968416010BDA1F57F424FF00A
:103D3000000CFE3A634609D173490A887349098821
:103D4000A0F800C043808280C18010BDA0F800C0F0
:103D5000002243808280C28010BD69498B6853B3C2
:103D600000884A88904210D200EB800003EB80006C
:103D7000018A0289C1F30C0191421AD3418A408918
:103D8000C1F30C01814214D315E08B88134498428F
:103D900011D2801AC968C0EBC00001EB4000B0F935
:103DA00004100289914204DBB0F906104089814277
:103DB00001DA012070470020704770B4504C206930
:103DC000002804BF70BC70476188A2884FF6FE755A
:103DD00011444B1C2B404FEA810CC2EBC2025B002A
:103DE00055006044C218E2602A44C4E9050200227A
:103DF0002280266AA6EB0C0CACEB03035B1BE36191
:103E0000E28000291CBF00234FF6FF7C07D0256904
:103E100045F823205B1C20F802CB491EF7D1A1886E
:103E2000002904BF70BC704711F0010004D0E268A3
:103E3000137B23F020031373884232BFD4F80CC0E5
:103E400070BC7047C0EBC0020CEB4202801C137BBD
:103E5000884223F020031373937E23F0200393768C
:103E6000F0D370BC7047264BD3F818C0BCF1000FDC
:103E700018BF7047002908BF704710B592B29A80EA
:103E8000B3F802C094440CEB4C0C4FEA4C0CC2EB60
:103E9000C2020CEB42028A4201D3AFF300801962E6
:103EA0001861BDE8104088E770B5DFF854C0049C85
:103EB000DCF80850002D18BF70BDCCF80800ACF835
:103EC0000210DCF81800002818BF70BD002B08BFD6
:103ED00070BDA0B20144ACF8040001EB41014900FF
:103EE000C0EBC00001EB4000984201D3AFF300806B
:103EF000CCF82030CCF81020BDE870405DE7000021
:103F0000FC180020341900202A1900202C19002048
:103F10002DE9F0470E464FF6FE71884280F0F4809E
:103F200000EB8004FE48826802EB8400018A438A29
:103F3000490BC90041EA53310389B0F80AC00C2982
:103F400003FB0CF580F0E080DFE801F02412068B23
:103F5000DC755F4F4F4F4FA1F248AB0052F8242061
:103F600000680168D1F834C03146BDE8F0476047C9
:103F700005EB4500C01C20F00303EA48E84952F86D
:103F8000242000688969D0F800C0DCF834C0BDE89E
:103F9000F04760470320E34F00EB450020F00308A3
:103FA0003868DFF87C9352F8242001684346D1F842
:103FB00034C03146E047002808BFBDE8F087D9F893
:103FC000081001EB84014A68002A08BFBDE8F087A9
:103FD000E81C20F00303386806EB0801D0F800C0A5
:103FE000DCF834C0BDE8F0476047E81C20F003036C
:103FF000CC48CB4952F8242000688969D0F800C029
:10400000DCF834C0BDE8F047604703891FFA8CF044
:104010005B1C5B085843C01C20F00303C148C04927
:1040200052F8242000688969D0F800C0DCF834C058
:10403000BDE8F047604703891FFA8CF0DB1C9B0842
:104040005843C01C20F00303B648B54952F8242059
:1040500000688969D0F800C0DCF834C0BDE8F047DA
:10406000604703891FFA8CF0DB1DDB085843C01C36
:1040700020F00303AB48AA4952F82420006889695C
:10408000D0F800C0DCF834C0BDE8F0476047E81C59
:10409000A44D20F00307DFF88882286852F8242016
:1040A0003B460168D1F834C03146E047D8F80810E3
:1040B0004FF0000C01EB84014A6813785188002B03
:1040C00004BF042303EB810C0BD0012B04BF01EBD5
:1040D000410101F1040C04D0022B04BF042303EBC3
:1040E000410C002808BFBDE8F0870CF1030020F068
:1040F00003032868F119D0F800C0DCF834C0BDE82B
:10410000F0476047AFF300800020BDE8F0872DE95D
:10411000F0414FF6FE7188427DD281494F88C11B24
:10412000C1EBC1027E49B842CB68896803EB420407
:1041300000EB800201EB820210D2138AB2F812C0A7
:104140005B0BDB0043EA5C36536811895589002B11
:1041500014BF4FF001084FF0000806E0237B2189CF
:10416000658903F01F064FF0000801FB05FC0C2ECB
:1041700073D2DFE806F00A1A0634702C24212121BC
:10418000213C4FEA8C00BDE8F081032000EB4C009D
:1041900020F00301B8F1000F1ABF0CF1030020F06A
:1041A000030000200844BDE8F0810CEB4C00C01C6B
:1041B00020F00300BDE8F0810CF1030013E0481C7F
:1041C00040086843C01C20F00300BDE8F081C81C13
:1041D00080086843C01C20F00300BDE8F081C81DC2
:1041E000C0086843C01C20F00300BDE8F081002136
:1041F000B84216D2506802784088002A04BF0421D1
:1042000001EB80011CD0012A04BF00EB4000011D1E
:1042100016D0022A00E01EE004BF042101EB400199
:104220000EE0207B800908BF40F2044108D001283D
:1042300008BF4FF4417103D0022808BF4FF4017149
:104240000CF10300C91C20F0030021F00301084415
:10425000BDE8F08101E0AFF300800020BDE8F0810F
:104260002DE9F04F2E4983B04FF6FE734A888888B7
:104270004FF0000802EB00094FEA8902019209F1B0
:1042800001021A405200C0EBC00000924FEA400BFE
:104290000869019A46461044009A5F1C104400EBDE
:1042A0000B0A544646E01E48006950F825000028D5
:1042B00008BF21F816703BD02846FFF728FFDFF82B
:1042C00060E08446DEF8100050F82500844224D0D7
:1042D0004FEA9C0100EB81010B1A9910002912DDB5
:1042E000011F201F13F0040F03D051F8042F40F8D2
:1042F000042FDA1007D04B68436051F8083F40F8AC
:10430000083F521EF7D1DEF8100040F82540DEF8D5
:10431000140020F8167020F81850644404E00000DF
:10432000FC1800203419002008F101001FFA80F861
:10433000701C86B24E4505D2FB48416931F81650D3
:10434000BD42B0D1F8488461A0F80080026A0199AA
:10435000521A0099511AA1EB0B01A4EB0A02891A17
:10436000C16103B0BDE8F08F70B5EF4C0546A069A0
:10437000002832D06088A1880844A8422DD9E0885E
:10438000002818BFFFF76CFF206950F825000028AF
:104390001CBF012070BD2846FFF7B9FE0646E06944
:1043A00086421AD86088854204D22846A169FFF760
:1043B000AFFD90B12169A06941F82500E069801B3B
:1043C000E061A0693044A0612188606920F8115043
:1043D0002088401C2080012070BD002070BDD24983
:1043E0008A6932B1096951F8200000281CBF0120F8
:1043F0007047002070472DE9F041CB4E0D46044632
:10440000B1693069AC420AD100291FBF50F82400BD
:1044100000280120BDE8F0810020BDE8F0810029DE
:104420001CBF71888D4238BF8C42F5D250F82410E1
:104430000029F1D050F825000028EDD12046FFF7E3
:1044400066FE07462846FFF762FE8742E4D13069E0
:1044500050F8241040F82510002140F8241050F89E
:1044600025102846FFF754FD030014D00023B6F8AA
:1044700000C01846BCF1000F88BF71690BD900BF9E
:1044800031F81020A24203D121F81050012302E09C
:10449000401C6045F4D31846BDE8F08170B5A24CCD
:1044A000A16909B3216951F82020EAB1002241F83D
:1044B0002020E188491CE1802188626902EB4102E9
:1044C00032F8022C824229D1002918BF4FF6FF751D
:1044D00024D02088616901EB4000216930F8020C8A
:1044E00051F82010D1B901E0002070BDFFF70FFE98
:1044F000A169091AA161E1690844E0612088616944
:1045000001EB400020F8025C2088401E0004000CF3
:104510002080E188A1F10101E180DAD1012070BDA4
:1045200010B500214FF6FE72904201D3AFF3008028
:104530007D4A9369002B1CBF116951F82010084671
:1045400010BD2DE9F041784C012600256088002837
:1045500038D9A069002838D06088A1880844A842CA
:1045600033D9E088002818BFFFF77AFE2946206972
:1045700050F82500F8B90846FFF7C9FD0746E0697D
:10458000874222D8618828468D4203D2A169FFF76D
:10459000BFFCD0B12269A16942F82510E069C01BB7
:1045A000E061A0693844A0612288616921F8125055
:1045B0002088401C2080681C85B2608806F00106B7
:1045C0008542C6D33046BDE8F081AFF300802DE9C7
:1045D000F047554F064690463846BA880024C068D2
:1045E00088B099460D46002A0CD900BFC4EBC4011F
:1045F00000EB4101097B01F0200100291CBF641C74
:104600009442F3D3944202BF4FF6FF7008B0BDE866
:10461000F087C4EBC40100EB4101B8F10C0F0E812F
:104620004D810A7B68F3040242F020020A7340D2F3
:10463000DFE808F006064B060606064B4B4B4B150B
:104640000023ADF80030ADF80460C4EBC402694645
:10465000ADF80230ADF8065000EB420027E0C4EBA5
:10466000C40100EB4100B9F1000F017B69F3871130
:10467000017306D0B9F1010F18BFB9F1020F0CD0C8
:1046800017E00021ADF80810ADF80C1002AAADF843
:104690000A10ADF80E10114609E00023ADF81030F5
:1046A000ADF8146004A9ADF81230ADF816502FF033
:1046B0008DFB788820441FFA80FA5046FFF754FE9D
:1046C00020B3B8F10B0F0FD01CE00021ADF818108B
:1046D000ADF81C10ADF81A10ADF81E10C4EBC401F3
:1046E00006AA00EB4100D6E7386950F82A1006FB0D
:1046F00005F0C01C20F0030008444FF48071A0F8BE
:104700000090418008B05046BDE8F087F968C4EBDE
:10471000C40001EB4000017B21F02001017308B0CF
:104720004FF6FF70BDE8F087FC180020BB494A88AF
:10473000904211D38B88134483420DD9821AC968E1
:10474000C2EBC20201EB4202117B11F0200F03D039
:1047500021F020011173A1E600207047AF494A887B
:10476000904207D38B881A4490423EBF096951F8A2
:104770002000704700207047A84A10B5538898421F
:1047800012D3B2F804C09C4484450DD9C01AD26833
:10479000C0EBC00002EB4000027B12F0200F03D000
:1047A0002FF014FB012010BD002010BD2DE9F04FAB
:1047B00006469A480D4683B041888E42C0F01D815E
:1047C00082880A44B24240F21881711AC068C1EB73
:1047D000C10100EB4104207B10F0200F00F00D819F
:1047E000B5F90010B4F9000081421ADBB5F90230C6
:1047F000B4F90220934214DBB5F904C001EB0C07B5
:10480000B4F904C08444BC450BDBB5F906C09C4434
:10481000B4F906301A446245A2BF012003B0BDE8D6
:10482000F08F884217DBB4F90230B5F902209342C9
:1048300011DBB4F9047000EB070CB5F904700F44F8
:10484000674508DBB4F906C06344B5F906C06244A5
:104850009A4280F2CC80814257D1B5F90400B4F974
:104860000470B84251D1294668462FF0AFFA002FA4
:104870001CBFB4F90690B9F1000F3DD0BDF904B0EA
:10488000BBF1000F1CBFBDF906A0BAF1000F27D085
:10489000BDF90030B4F900804345B4BF1A46424622
:1048A000BDF90200B4F902108842B4BF84468C46B8
:1048B0005B4447441BB23FB2BB42D8BF3B46504467
:1048C000494400B209B28842D8BF0846ADF800207A
:1048D000991AADF802C0ADF80410A0EB0C0009E085
:1048E0002088ADF800006088ADF80200A088ADF81F
:1048F0000400E088ADF80600B5F90600B4F906102A
:104900000844BDF90610884260DDB5F90200B4F92B
:104910000210884261D1B5F90600B4F90610884248
:104920005BD1294668462FF051FAB4F904A0BAF1D8
:10493000000F1CBFB4F90680B8F1000F3DD0BDF9DF
:1049400004B0BBF1000F1CBFBDF90690B9F1000F18
:1049500027D0BDF90000B4F90070B842B4BF0246D8
:104960003A46BDF90230B4F902C06345B4BF1946F6
:1049700061465844574400B23FB2B842D8BF3846A7
:104980004B44C4441BB20FFA8CFC6345D8BF63464A
:10499000ADF80020801AADF80400ADF80210581AE6
:1049A00009E02088ADF800006088ADF80200A0881A
:1049B000ADF80400E088ADF80600B5F90400B4F9DC
:1049C00004100844BDF90410884206DC69463046EC
:1049D000FFF7D2FE03B0BDE8F08FA888E98810FB8E
:1049E00001F0A188E28811FB02F1884205D903B0E9
:1049F00029463046BDE8F04FBEE603B00020BDE8D2
:104A0000F08F06480021C160016141618161C1618F
:104A1000016201808180C18070470000FC18002085
:104A200070B4002691F82CC066F30F0366F30F02F2
:104A300066F31F4366F31F42BCF1000F04D191F8E7
:104A400026C0BCF1FF0F06D1B1F808C049896CF34C
:104A50000F0261F31F420360426070BC704710B5E3
:104A600082B0044668462FF0B1F920686946426A70
:104A7000204690470948016891F8760000281ABF3F
:104A8000C86C0028886894F82630A26A0168D1F8BA
:104A90001CC06946E04702B010BD00003419002078
:104AA00070B4002691F826C066F30F0366F30F0278
:104AB00066F31F4366F31F42BCF1FF0F06D1B1F846
:104AC00008C049896CF30F0261F31F420360426022
:104AD00070BC70472DE9F04F90F8306004460289B1
:104AE000704202EB40020FFA82F9628997B002EB42
:104AF00040000FFA80F866F30F0769F30F0A0D46BE
:104B000066F31F4768F31F4A0CA82FF05FF938B20D
:104B10000FFA8AF10144BDF930000027814240F3C9
:104B20000581BDF9341000EB010CB44540F3FE8063
:104B3000BDF9321006EB08028A4240F3F780BDF956
:104B40003630B0460B44B34240F3F080B042D8BF99
:104B5000404680463046B142D8BF01460FFA8CF03D
:104B600006EB090C0FFA8CFC6045A8BF6046A0EB71
:104B70000800ADF8340018B212B29042B8BF024635
:104B8000501AADF83080ADF83600ADF8321000BFE5
:104B9000DDE90C01CDE91401206814A9426A204620
:104BA0009047DFF8AC81D8F8001091F87600002823
:104BB0001ABFC86C0028886894F82630A26A016879
:104BC000D1F81CC014A9E04794F83000002804BFB5
:104BD00017B0BDE8F08F00232189ADF83410ADF88F
:104BE0003030ADF83600ADF832301846618994F8AF
:104BF00030202389891AADF83C30ADF83800ADF883
:104C00003E20ADF83A1094F830006189002243420A
:104C100001EB4301ADF84020ADF84400ADF842008F
:104C2000ADF84610218994F830000DF1300A0A1AC7
:104C30006189434201EB4301ADF84820ADF84C00D7
:104C4000ADF84A00ADF84E1000260DF1280900BF5E
:104C50000AEBC60148462FF0B9F8B5F90010B5F9CE
:104C6000040001EB000CBDF92800844567DDBDF9A7
:104C70002C2000EB020B8B4561DDB5F90230B5F954
:104C8000062003EB020EBDF92A20964557DDBDF93B
:104C90002EE096449E4552DD8842D8BF08469A428F
:104CA000D8BF1A460FFA8BF10FFA8CF39942A8BFBE
:104CB0001946091AADF82C106B88B5F806C00FFA22
:104CC0008EF163441BB29942A8BF1946891AADF808
:104CD0002800ADF82E10ADF82A2000BFDDE90A014A
:104CE000CDE90601BDF81C0000281CBFBDF81E0060
:104CF000002815D0206806A9426A20469047D8F8B7
:104D0000001091F8760000281ABFC86C0028886847
:104D100094F82630E26A0168D1F81CC006A9E04781
:104D2000761C042E94DB17B0BDE8F08FADF8307020
:104D3000ADF83470ADF83270ADF8367028E7ADF8E4
:104D40002870ADF82C70ADF82A70ADF82E70C5E75C
:104D5000341900202DE9F047074690F82C0088B060
:104D60000E46002819BF386B0390F88DADF80C0083
:104D70000024254603A8FEF762FF0FFA80F903A876
:104D8000FEF780FF03B2ADF81840ADF81C90ADF807
:104D90001A50ADF81E30B6F90000B6F90410002222
:104DA00000EB010C4FF00108BCF1000FC4BFA1449F
:104DB000814568DDB6F90210B6F906A08A44AA4515
:104DC000C4BF2B448B425EDD8442D8BF04468D4273
:104DD000D8BF0D460FFA89F00FFA8CF18842A8BFB0
:104DE0000846001BADF81C0019B27088F3881844FF
:104DF00000B28142B8BF0846401BADF81840ADF87C
:104E00001E00ADF81A503F480068002844D0BDF895
:104E10000C00A0F57F41FF3919BFBDF81C00002828
:104E200008B0BDE8F087BDF81E00002804BF08B038
:104E3000BDE8F087ADF81020ADF81420ADF81220D1
:104E4000ADF81620386804A9426A384690472E48C3
:104E5000016891F8760000281ABFC86C002888689D
:104E600097F8321006AACDE90021CDF80880016834
:104E7000BDF91230BDF91020D1F80CC003A9E047EC
:104E800008B0BDE8F087ADF81820ADF81C20ADF8EB
:104E90001A20ADF81E20B6E7AFF3008010B5044627
:104EA0000888E0851088208604F13000FEF7C7FEF0
:104EB000208104F13000FEF7E5FE608110BD10B5E1
:104EC000044691F8320084B0FF2806D200232380E4
:104ED0006380A380E38004B010BD91F82C0038B14A
:104EE00030316846FEF7F1FE00982060019806E038
:104EF0002E3102A8FEF7E9FE029820600398606058
:104F000004B010BD041900203419002010B400248E
:104F10008480C480048144818481C4810482448269
:104F2000446184610122C46180F82520846280F894
:104F30002C4080F824204FF6FF73C3850386FF22A0
:104F400080F83220964A0260214683868163C163DD
:104F500080F8401080F8411010BC70472DE9F04FE8
:104F600093B00E460446FFF7F5FEA08EA0F57F41F4
:104F7000FF3904BF13B0BDE8F08FDFF82882D8F8FE
:104F80000000002800F0E780DFF81C92A18EB9F83D
:104F90000020914280F0DF8010F811008349002545
:104FA00002AA096851F8207094F84100ADF8085041
:104FB000ADF80C50ADF80A50ADF80E5094F8401012
:104FC00029B101291CD0022901D0032918D0B4F934
:104FD0000A10B4F808C0091A01EBD1714FF0000AA9
:104FE00041F34F01ADF838A0ADF83CC00EABADF8C1
:104FF0003A10ADF83E00104619462EF0E7FE17E0D5
:10500000B4F90810B4F80AC0091A01EBD17141F3E0
:105010004F01ADF83010ADF834000CAB4FF0000A82
:10502000ADF832A0ADF836C0104619462EF0CEFECF
:1050300002A908A82EF0CAFEB6F90010B6F90400BD
:1050400001EB000CBDF9200084457CDDBDF9242076
:1050500000EB020A8A4576DDB6F902B0B6F9062001
:105060000BEB0203BDF92220934276DDBDF9263019
:1050700013445B4571DD8842D8BF08465A45D8BF06
:105080005A460FFA8AF10FFA8CFC6145A8BF6146B7
:10509000091AADF8241019B27388B6F806C0634433
:1050A0001BB29942A8BF1946891AADF82000ADF885
:1050B0002610ADF8222000BFDDE90801CDE904018A
:1050C000BDF81400002819BFBDF81600002813B061
:1050D000BDE8F08FBDF81000BDF80810401AADF81B
:1050E0001000BDF81200BDF80A10401AADF8120009
:1050F000206802A9426A2046904794F82C000028B4
:1051000014BFE06BA06B94F83230D8F8002012B3D3
:10511000A18EB9F800C061451DD202EB410194F89F
:1051200040604A788DF8263002F00301C2F3810214
:105130008DF81C108DF81D20069708908DF81E60C4
:10514000ADF8245000E008E08DF827508DF8285085
:10515000A18E61450AD3AFF30080ADF82050ADF8C1
:105160002450ADF82250ADF82650A5E7104800684D
:105170002EF020FC01460F48026892F876000028C5
:105180001ABFD06C0028906806AACDE90021DDE99D
:10519000021204AB03F079FC13B0BDE8F08F0000FD
:1051A00030EF0B0838190020441900204019002066
:1051B0003C1900203419002010B400248480C480DD
:1051C000048144818481C481048244824461846175
:1051D000C46180F82440012180F825106C49846264
:1051E000016047F6FF718185FF2180F82E1010BC09
:1051F000704770472EF093BD8162704710B5806A8A
:10520000002818BF10BDAFF300802DE9F04F93B018
:10521000044604AF38462EF0D9FD5E4800780128D8
:105220001FBFBE1CBD1D07F1040802AF01BF04AEC5
:105230003D1D0DF10808BF1D20682146426F0AA8D8
:10524000904728884FF00009002818BF4FF0010A46
:105250005CD000BFB4F92C10B5F900008142B8BF92
:105260000846ADF80800002833DD00BFB8F900108B
:10527000B7F90030BDF91020BDF91200ADF80020DB
:10528000ADF80410ADF80200ADF80630BDF928C045
:10529000BDF92CB0E3449345C4BF1144614518DD0A
:1052A000BDF92A10BDF92E200A448242C4BF184419
:1052B00088420EDD20686946826F2046904740B9DB
:1052C000BDF908004FF001094010ADF808000028B2
:1052D000CCDCBDF9080000280CBFADF808A0B9F17E
:1052E000000F06D0B4F92C20A2F5FE41FF3908BF0B
:1052F000A0853088BDF80810084430802888BDF8A3
:105300000810401A00B228800028A3D1B4F92C005C
:10531000A0F5FE41FF3904BF401EA08513B0BDE8D3
:10532000F08F0A894FF0000C4989A0F800C0A0F85E
:1053300002C08280C180704730B50446006883B0E7
:105340002146426F6846904721896089002561F3B4
:105350000F0365F30F0260F31F4365F31F4210B2A2
:1053600019B200EB010C2068BDF900106946026912
:105370002046904703B030BD4FF0000CA0F800C0AD
:10538000A0F802C0A0F804C0A0F806C07047000052
:1053900024EC0B08241900202DE9F0070DF11C0A5C
:1053A000BAE8F01383808471C379DFF838A165F31C
:1053B000060366F3C713C371077280F80980A0F86B
:1053C0000A90A0F80CC0484B036001618282BDE8DE
:1053D000F007704730B4828A0023521E002AA4BF0F
:1053E0000424D0F810C017DB981800EBD0704010E0
:1053F000C0EBC00504EB45053CF805508D4238BFB5
:10540000431C88BF421E05D1C0EBC00030BC0CEB72
:10541000400070479342E7DD30BC002070472DE923
:10542000F0470446808A17460022A0F1010C0425AB
:105430001E46BCF1000FA8BF236919DB02EB0C006C
:1054400000EBD0704010C0EBC00805EB480833F803
:105450000890894538BF421C88BFA0F1010C05D1D6
:10546000C0EBC00013EB400828D101E06245E5DD48
:10547000002918BF0A2931D02068016920468847D1
:105480000346A08A0022401E0028A8BFD4F810C0FE
:1054900024DB111801EBD1714910C1EBC10805EBF8
:1054A00048083CF80880984538BF4A1C88BF481E09
:1054B00012D1C1EBC1001CEB40080FD0206841465F
:1054C000826C2046904738602068416B20468847B0
:1054D00030704046BDE8F0878242DADD0020BDE84A
:1054E000F08700004CF40B0840FB0B0810B581421C
:1054F00015D04A699AB90022C1E90502826A002AD8
:1055000004BF816210BD906928B18A4207D002466B
:1055100080690028F9D18A421CBF916110BDAFF3A8
:105520000080826A002A08BF704700238A4207D1A0
:105530004B618A69002A14BF8262836206D1704778
:105540009069884204D1886990614B618B61704792
:105550000200F5D17047816A002914BF002270470C
:105560008B6983624A618A61816A0029F8D1704738
:1055700000218162704702460020926A002A08BF1B
:105580007047002818BF70478A420CBF01200020D6
:105590009269F3E7836A2BB1002904BF93618262A9
:1055A00009D003E001684B6E114618478B4204D1C5
:1055B000996991619A61506170479B69002BF5D19F
:1055C00070472DE9F0410E4690F824101F4615460D
:1055D000002918BF3860846A002C08BFBDE8F0813C
:1055E00094F82500E0B1B4F90410201DB14217DC95
:1055F000B0F904208B189E4212DAB0F902209542CD
:105600000EDBB0F906001318AB4209DD701A01B2C7
:10561000A81A02B220683B46D0F81CC02046E047DA
:10562000A469002CDCD1BDE8F08190F82520002A87
:1056300008BF70472DE9F043846A87B0002C04BF8F
:1056400007B0BDE8F08304A82EF0C0FB6F4600262B
:1056500094F82500002860D0251D04A938462EF0B6
:10566000B5FBB5F90020B5F90400BDF9001002EB57
:10567000000C8C4557DDBDF9040001EB0009914594
:1056800051DDB5F90230B5F9060003EB0008BDF9AC
:105690000200804547DDBDF906808044984542DD23
:1056A0009142D8BF11469842D8BF18460FFA89F2E6
:1056B0000FFA8CF39A42A8BF1A46521AADF804208A
:1056C0006A88EB880FFA88FC1A4412B29445B8BF76
:1056D0006246121AADF80010ADF80620ADF80200CF
:1056E000DDE90001CDE90201BDF80C0000281CBF76
:1056F000BDF80E00002810D0BDF80800A188401A9F
:10570000ADF80800BDF80A00E188401AADF80A00BB
:10571000206802A9826820469047A469002C97D18E
:1057200007B0BDE8F083ADF80060ADF80460ADF8F7
:105730000260ADF80660D3E74FF0000CA0F800C09F
:10574000A0F802C0A0F804C0A0F806C0704770B569
:10575000846A0D46002C08BF70BD28682146826807
:1057600028469047A469002CF7D170BD2DE9F04F71
:105770000026D1F828C066F30F0366F30F0266F324
:105780001F4366F31F42BCF1000F4BD0BCF9084029
:105790000CF10401002C1CBFB1F90650002D3CD0C7
:1057A0000FFA82FABAF1000F18BF5FEA224B28D035
:1057B000B1F900800FFA83F9C145B4BF4E464646A1
:1057C0001F14B1F902E07745B4BF39467146D144A0
:1057D00044440FFA89F924B2A145D8BFA14607EB8A
:1057E0000B04754424B22DB2AC42D8BF2C4666F3EC
:1057F0000F0361F31F43A9EB060565F30F02611A5E
:1058000009E00C8864F30F034C8864F31F438C8811
:10581000C98864F30F0261F31F42DCF818C0BCF1C1
:10582000000FB3D103604260BDE8F08F70B5846AA9
:1058300015460E46002C08BF70BD20682A4631462A
:10584000436D20469847A469002CF6D170BD2DE920
:10585000F04F0F4690F825108DB0914600291FBFDC
:10586000846A002C0DF12008002604BF0DB0BDE8AD
:10587000F08F00BF94F82500002861D0251D39461F
:1058800040462EF0A3FAB5F90030B5F904001A1815
:10589000BDF92000824259DDBDF9241000EB010C56
:1058A0009C4553DDB5F90210B5F906A001EB0A0BD2
:1058B000BDF922A0D34549DDBDF926B0D3448B45BF
:1058C00044DD9842D8BF18468A45C8BF51460FFAF2
:1058D0008CF312B29342A8BF13461A1AADF82420D3
:1058E0006B88B5F806C00FFA8BF263441BB29A427C
:1058F000A8BF1A46521AADF82000ADF82620ADF820
:10590000221000BFDDE90801CDE90001BDF8040067
:1059100000281CBFBDF80600002811D0BDF800000B
:10592000A1884A46401AADF80000BDF80200E1889F
:10593000401AADF8020020686946036E2046984779
:10594000A469002C96D10DB0BDE8F08FADF82060B1
:10595000ADF82460ADF82260ADF82660D2E7000013
:10596000804B0360C0E901120021C16001617047F2
:10597000D0E9031081420CBF012000207047D0E91C
:105980000321891A0029DCBF806801440129D4BFA2
:1059900001200020704710B50446D4E90320801A86
:1059A0000028DCBFA368184401280DD9606800EB0B
:1059B00042101F220CF0D2FBE068A168401C81421B
:1059C00098BF401AE06010BDAFF3008010B50446E8
:1059D000006801682046884708B1AFF3008020695D
:1059E000A168401C814298BF401A206110BD4168E7
:1059F000006901EB4010704770B50D4604466068C1
:105A000001684A6890470028F9D1574E306801680C
:105A1000096F88472CF0C2FA606801688A682946D5
:105A200090472068C16A2046884730680168C96E7F
:105A3000BDE87040084710B5044640680168096831
:105A40008847002818BF10BD607A002808BF10BD25
:105A5000207A002818BF10BD2068416A2046BDE8A2
:105A600010400847406801680968084740680168B5
:105A70004968084770B504460120207260680168D3
:105A80008969884705460068202811D00ADC01286A
:105A90000ED002282FD0042815D008281FD000BF10
:105AA000AFF3008040281CBF8028B0F5807FF7D17D
:105AB0002068C16B2046884720682946026B204633
:105AC000BDE8704010472068297F826B20469047D0
:105AD00020682946026B2046BDE8704010472068C8
:105AE000297F826B2046904720682946426B2046DA
:105AF000BDE8704010472068C16B20468847206889
:105B00002946426B2046BDE87040104710B5044658
:105B1000406801680968884738B9207A28B1606808
:105B20000168496988470020207260680168096837
:105B3000884718B1BDE810402CF03ABA2068416A95
:105B40002046BDE8104008470168096908477047CA
:105B50007047704710B52CF017FABDE810402CF0D4
:105B600009BA0000F0F00B0834190020F0B50D461A
:105B700007468088098885B0084406B22E80F888D8
:105B80006988084404B26C80391D68462EF01EF9FD
:105B9000B5F904003318BDF90000834240DDBDF9BA
:105BA000041000EB010CB4453ADDB5F9061062189B
:105BB000BDF902108A4233DDBDF906200A44A24233
:105BC0002EDDB042C8BF0646A142C8BF0C460FFA40
:105BD0008CF118B28142B8BF0846801BADF80400B2
:105BE00011B26888EA88104400B28142B8BF084602
:105BF000001BADF80060ADF80600ADF8024000985B
:105C000002900198039002A928462EF0DFF87869E7
:105C100080B101680A6905B02946BDE8F040104727
:105C20000020ADF80000ADF80400ADF80200ADF8BA
:105C30000600E4E7FDF7E0F80168CA6A05B0294606
:105C4000BDE8F040104700B5D0E9011283B0CDE9BE
:105C500000120021ADF80010ADF8021001680A69C9
:105C60006946904703B000BD30B50546086883B06B
:105C70000C46C2686846904720686946426A2046DA
:105C80009047009828600198686003B030BD2DE906
:105C9000F00382880B8800261A4414B20C80C28854
:105CA0004B881A440FFA82FCA1F802C0B0F9042014
:105CB000B0F90850031D5719A74243DDB1F904504C
:105CC00004EB050890453DDDB3F90250B3F90690A9
:105CD000A944E14536DDB1F90690E144A94531DD3D
:105CE0009442C8BF2246AC45D8BFAC460FFA88F4F0
:105CF0003DB2AC42A8BF2C46A41A8C804D88CC88FB
:105D00002C445D88DB8824B22B441BB29C42A8BF84
:105D10001C46A4EB0C03CB800A80A1F802C08A8841
:105D2000002A19BFCA88002ABDE8F00370474069FD
:105D3000002804BFBDE8F00370470268126ABDE89E
:105D4000F00310470E804E808E80CE80BDE8F003B9
:105D5000704710B50A4682B00446098950894FF051
:105D6000000CADF800C0ADF80410ADF802C0ADF8FD
:105D7000060010686946436A1046984700982060FC
:105D80000198606002B010BD82880B881A440A80B6
:105D9000C2884B881A444A804069002808BF70476F
:105DA0000268526A104710B5044684B051EA0200F6
:105DB00004BF04B010BDD4E90103CDE90003E088BD
:105DC000104402B2A088084401B22068436B204608
:105DD0009847D4E90101CDE90201606950B1016839
:105DE0000A6969469047606901680A6902A9904793
:105DF00004B010BDFDF700F80168CA6A6946904713
:105E0000FCF7FAFF0168CA6A02A9904704B010BD06
:105E1000844604480A4600680168D1F89430614617
:105E2000184700003419002010B400248480C48076
:105E3000048144818481C4810482448244618461F8
:105E4000C46180F82440012280F82520F74A84624A
:105E5000026080F82C4080F82D4021460463818642
:105E6000C186018741878187C18780F84010A0F8EB
:105E700042104164816410BC70472DE9F05F044614
:105E80000163408F0D4600281ABF208F0028BDE80F
:105E9000F09FA08E00281ABFA06C0028BDE8F09FDC
:105EA0000168C9688847002808BFBDE8F09F002046
:105EB000002D08DDB4F9342095FBF2F0411CC043FD
:105EC00001FB125500B2B4F934104A42AA4205DB74
:105ED00095FBF1F2801A02FB115500B294F82D6087
:105EE0005EB1B4F9381090FBF1F201FB12000844E6
:105EF00090FBF1F201FB120010E00028BCBF00FB98
:105F0000115500200BDBB4F93A201318B4F93820EE
:105F10009A4204DAD21A02FB0155104400B294F8F6
:105F20004010002700291CBFB4F93CC084451ED096
:105F3000B4F93A700121012F19DD00BF0CEB010209
:105F400043184EB1B4F9388092FBF8F908FB1922D6
:105F500093FBF8F908FB1933824201D14F4206E066
:105F60009C4501D10F4602E0491C8F42E6DCB4F9A2
:105F70003E100026CA1BB4F93A100A4492FBF1F312
:105F800001FB1322E287A0870029C8BF4FF0000B56
:105F90006FDD00BFB4F93E00B4F93A10821992FBEC
:105FA000F1F001FB102AB4F84200504401B2606CD9
:105FB000026892689047814694F82C00B4F9341036
:105FC0000028B4F9360006FB0100284407D001B2CE
:105FD000D9F800000022836D4846984706E002B2D7
:105FE000D9F800000021836D48469847B4F93C0079
:105FF00000EB060894F82D0048B1B4F9380098FB7E
:10600000F0F100FB1188B8F1000F0ADA06E0B8F1F0
:10601000000FA4BFB4F93800404502DC89F825B070
:1060200022E0012089F8250094F8400030B1BE42FA
:1060300004DBB4F93A003844864215DBA06C0168F1
:10604000C968884780B1B4F84200504402B2D4E92C
:1060500011100368D3F808C00FFA88F3E047D9F8A5
:106060000000416948468847B4F93A00761CB042BE
:1060700090DC012084F84000BDE8F09F426C002ACB
:106080001CBFB0F934100029DCBF0020704770B588
:10609000054690F82C00002814BFB5F90800B5F9A2
:1060A0000A00801E084490FBF1F0401C04B295F8F1
:1060B0002D0020B9B5F93800A042B8BF04461068D9
:1060C000C16810468847B5F94210401AA042B8BFCF
:1060D000044620B270BDF8B500274787426C0446DD
:1060E000002A08BFF8BDB4F934100029D8BF3846DB
:1060F00020DD94F82C00002814BFB4F90800B4F98E
:106100000A00801E084490FBF1F0401C05B294F890
:106110002D0020B9B4F93800A842B8BF0546106870
:10612000C16810468847B4F94210401AA842B8BF67
:10613000054628B260872046FFF70DFAB4F93A0009
:106140000025002836DD00BFB4F84200284401B223
:10615000606C026892689047064694F82C0000280C
:1061600030460FD0B4F90A100091E28EA18E52424F
:1061700001EB42010BB201680022D1F828C01146A0
:10618000E0470EE0E28EA18E524201EB4201B4F9EB
:10619000083009B2009101680022D1F828C01146E8
:1061A000E04731462046FFF7A1F9B4F93A006D1CEB
:1061B000A842C9DC84F84070A787E7872046216B96
:1061C000BDE8F84059E6018185E7418183E790F811
:1061D0002C2009B11AB17047002A08BF704780F817
:1061E0002C1078E790F82C00704790F82D2009B11A
:1061F0001AB17047002A08BF704780F82D106AE76F
:1062000090F82D00704701EB42018186C2867047ED
:10621000B0F934007047818EC08E404201EB4000DF
:1062200000B27047B0F9360070470000A8EC0B08C8
:106230004164A0F8422083644DE7B0F93A0070470A
:10624000018748E7B0F938007047006B70470029B4
:10625000A4BFB0F93A208A421FDD002A1CBFB0F962
:106260003830002B19D0B0F93EC01144A1EB0C011D
:1062700091FBF2FC02FB1C11828F90F82D0011445F
:1062800009B200281CBF91FBF3F003FB1011002999
:10629000A8BF8B42C4BF084670474FF0FF3070471D
:1062A000F0B4B2F1FF3FA4BFB0F93A30934235DD0C
:1062B000002B1CBFB0F93840002C2FD0002A09DB7E
:1062C000B0F93EC0A2EB0C021A4492FBF3FC03FBB4
:1062D0001C2212B2521C12B29342C4BFB0F93C60ED
:1062E00090F82D501ADD00BF06EB020C0FFA8CFC63
:1062F000002D1CBF9CFBF4F704FB17CC614509D1B2
:10630000B0F93E00F0BC104490FBF3F103FB110028
:1063100000B27047521C12B29342E5DCF0BC4FF061
:10632000FF3070472DE9F00F8A464FF000094FF01B
:10633000FF3C03E05146BCF1FF3F49DBB0F93A5066
:10634000654545DD002D1CBFB0F93880B8F1000F60
:106350003ED0BCF1000F0ADBB0F93E40ACEB040CC0
:10636000AC449CFBF5F405FB14CC0FFA8CFC0CF14F
:10637000010C0FFA8CFC6545C4BFB0F93C7090F875
:106380002D6025DD07EB0C0424B2002E1CBF94FB0E
:10639000F8FB08FB1B44A14214D1B0F93E10614444
:1063A00091FBF5FC05FB1C110FFA81FCBCF1000F01
:1063B0000EDB4B45BEDD22F819C009F101010FFAD1
:1063C00081F9B7E70CF1010C0FFA8CFC6545D9DCBB
:1063D0004846BDE8F00F70472DE9F0418046806CDB
:1063E0000C46002808BFBDE8F0810168C9688847ED
:1063F000002814BF4FF0FF36BDE8F081B8F93A50DD
:10640000B542D8BFBDE8F081002D1ABFB8F93800F9
:106410000028BDE8F081002E08DBB8F93E10711AA3
:10642000294491FBF5F205FB12110EB2711C0AB260
:106430009542C6BFB8F93C7098F82D60BDE8F08170
:10644000B9180FFA81FC002E1CBF9CFBF0F100FB79
:1064500011CC64451BD1B8F93E00104490FBF5F116
:1064600005FB110006B2701C08BFBDE8F081B8F84A
:106470004200304402B2D8E911100368D3F808C0D2
:106480002346E047B6F1FF3FB8DABDE8F081511C82
:106490000AB29542D4DCBDE8F081000001EB020CA9
:1064A0000FFA8CFC98422FD273B3DFEDFE0A00EE98
:1064B000100AB8EE401A00EE103AF8EE401A81EEDB
:1064C000210A01EE102AB8EEC11A21EE001A21EEBF
:1064D000001ADFEDF51A51EE800A00EE101AB8EE40
:1064E000C00A01EE200AF6EE000AB5EEC00AF1EE8F
:1064F00010FAD4BF30EE600A30EE200ABDEEC00ABA
:1065000010EE100A0FFA80FC6046704701EB020C97
:106510000FFA8CFC984233D293B39FEDE20A00EE5F
:10652000900AB8EE601A00EE903AF8EE601AC1EEEA
:10653000210AB7EE001A70EEC10A60EEA01A9FEDB4
:10654000DA2A02EE200A00EE902AF8EEE00A01EEC6
:10655000801A00EE101AB8EEC00A00EE810AF6EEBC
:10656000000AB5EEC00AF1EE10FAD4BF30EE600AB0
:1065700030EE200ABDEEC00A10EE100A0FFA80FCC1
:10658000604670478446881800B29C4528BF704713
:10659000002B08BF70479FEDC51A00EE103AF8EEC9
:1065A000400AB6EE000A60EE801A00EE90CAB8EE1D
:1065B000602AC2EE210A10EE900A9FEDBD2AB0F1CA
:1065C0007E5F22DA60EEA01A12EE201A00EE902A08
:1065D000F8EEE00A21EE811A60EE801A00EE901AC1
:1065E000F8EEE00A41EE810AF5EEC00AF1EE10FA8B
:1065F00003DD00BF30EE800A01E030EEC00ABDEEE0
:10660000C00A10EE100A00B27047F0EE001A70EEE9
:10661000E10A60EEA02A02EE201A00EE902AF8EEBF
:10662000E00A42EE811A20EE801A00EE901AF8EE8F
:10663000E00A41EE210AF5EEC00AF1EE10FADCDDC7
:10664000D8E78446881800B29C4528BF7047002BC5
:1066500008BF704700EE10CAF8EE400A00EE103A8C
:10666000944BB8EE401A80EE810A10EE100A9FEDAE
:10667000921AF6EE000A83421DDD20EE011A61EE49
:10668000001A00EE101A01EE102AB8EEC00AB8EE99
:10669000C11A01EE210AB5EEC00AF1EE10FA02DDD0
:1066A00030EE200A01E030EE600ABDEEC00A10EEC6
:1066B000100A00B2704710EE100A804B834219DDB9
:1066C000DFED7F1A30EE610AF6EE081A20EE011AAD
:1066D00041EE001A00EE101A01EE102AB8EEC00AC0
:1066E000B8EEC11A01EE210AB5EEC00AF1EE10FAB9
:1066F000D9DDD5E710EE100A724B834219DDDFEDCC
:10670000721A30EE610AF6EE0E1A20EE011A41EE10
:10671000001A00EE101A01EE102AB8EEC00AB8EE08
:10672000C11A01EE210AB5EEC00AF1EE10FABADD87
:10673000B6E7DFED661A30EE610A20EE011ADFEDF2
:10674000641A41EE001A00EE101A01EE102AB8EE9B
:10675000C00AB8EEC11A01EE210AB5EEC00AF1EE88
:1067600010FAA0DD9CE730B514460D46214409B26D
:10677000984208D23BB1181A80B20021FFF761FF9E
:10678000201A284401B2084630BD30B514460D46E3
:10679000214409B2984234D29BB300EE103AB6EECF
:1067A000002AB8EE400A60EE020A00EE100AB8EEC7
:1067B000400AF4EEC00AF1EE10FA24DD4FF6FF7144
:1067C00001EA400120B2994206D2581A80B2002153
:1067D000FFF737FF201A00B200EE100AF8EEC00AE9
:1067E00000EE105AB8EEC00A00EE820AB5EEC00AFA
:1067F000F1EE10FA24DC26E0BDEEC00A10EE100A1D
:1068000001B2084630BDC3EB400080B20021FFF763
:1068100018FF00EE100AB8EEC00A60EE020A00EEA1
:10682000104AB8EEC00A40EE020A00EE105AB8EE66
:10683000C00A30EE800AB5EEC00AF1EE10FA02DDB1
:1068400030EE020AD8E730EE420AD5E770B51546B9
:106850000C4629442DED028B09B2984252D2CBB39B
:1068600000EE100AB7EE008AB8EE401A00EE103AB9
:10687000B8EE400AC1EE000AB0EE480A00EEE00AA7
:10688000F1EEC00AF4EE600AF1EE10FA03D02EF039
:10689000D5FDF0EE400A00EE104A30EEC81AB8EE10
:1068A000C00A18E060CDD93FB0E62C40FF12264068
:1068B000FF1266408C2EBA3E0000F2408C2E3A3F0A
:1068C000E9A20B3F2FBA683F5D74513F175D743FDB
:1068D00000007C3F16E0684200EE900AF8EEE00A05
:1068E00000EE810AF6EE000AB5EEC00AF1EE10FAEB
:1068F000CCBF30EE200A30EE600ABDEEC00A10EECA
:10690000100A01B2BDEC028B084670BD70B514468A
:106910000D46214409B2984237D2B3B300EE100AB3
:10692000B8EE401A00EE103AB8EE400AC1EE000A86
:10693000B7EE000A70EEC00A00EEE00AF0EE400A80
:10694000B1EEE00AB4EE400AF1EE10FA1CBFB0EE70
:10695000600A2EF073FD00EE905A01EE104AF8EE38
:10696000E00AB8EEC11A41EE000AB6EE000AF5EEF2
:10697000C00AF1EE10FACCBF30EE800A30EEC00A49
:10698000BDEEC00A10EE100A01B2084670BD70B527
:1069900015460C4629442DED028B09B2984240D28F
:1069A000C3B300EE103AB6EE008AF7EE008AB8EEF6
:1069B000400A20EE081A00EE100AB8EE400AC0EEB7
:1069C000010A10EE900AB0F17E5F2EDAB0EE680A8E
:1069D00000EEE00AF1EEC00AF4EE600AF1EE10FA01
:1069E00003D02EF02BFDF0EE400A684200EE100AB4
:1069F00070EEE80AB8EEC00A20EE081A00EE104A5F
:106A0000B8EEC00A01EE200AB5EEC00AF1EE10FAA7
:106A100031DC33E005E000BFBDEEC00A10EE100A25
:106A200001B2BDEC028B084670BDB0EE000A70EEFC
:106A3000C00AB0EE680A00EEE00AF1EEC00AF4EE19
:106A4000600AF1EE10FA03D02EF0F8FCF0EE400AE6
:106A500000EE105A70EEA80AB8EEC00A20EE081A2E
:106A600000EE104AB8EEC00A01EE200AB5EEC00AE8
:106A7000F1EE10FA02DD30EE080ACDE730EE480AFA
:106A8000CAE701EB020C0FFA8CFC984229D243B3FF
:106A900000EE100AB8EE401A00EE103AB8EE400AC6
:106AA000C1EE000A00EE102AB8EEC00A20EE200A5D
:106AB00020EE201A00EE101AB8EEC00A01EE200AED
:106AC000F6EE000AB5EEC00AF1EE10FAD4BF30EED1
:106AD000600A30EE200ABDEEC00A10EE100A0FFA6E
:106AE00080FC6046704701EB020C0FFA8CFC984268
:106AF0002DD263B300EE100AF8EE400A00EE103A11
:106B0000B8EE401A80EE810AF7EE000A30EE600A15
:106B100020EE001A41EE000A00EE101A01EE102AD3
:106B2000B8EEC00AB8EEC11A01EE200AF6EE000A6D
:106B3000B5EEC00AF1EE10FAD4BF30EE600A30EEC6
:106B4000200ABDEEC00A10EE100A0FFA80FC604663
:106B500070478446881800B29C4528BF7047002BB8
:106B600008BF704700EE103AF8EE400AB6EE000A91
:106B700020EE801A00EE90CAF8EE601AC1EE810A8B
:106B800010EE900AB0F17E5F1EDA01EE102AB8EE28
:106B9000C11A21EE001A21EE201A61EE201A01EE30
:106BA000101AB8EEC11A01EEA01AB5EEC01AF1EE35
:106BB00010FACCBF31EE000A31EE400ABDEEC00A39
:106BC00010EE100A00B27047B0EE001A01EE902AE3
:106BD00070EEC10AF8EEE11A20EEA02A61EE801AEA
:106BE00002EE201A00EE901AF8EEE00A41EE810A59
:106BF000F5EEC00AF1EE10FAD4BF30EEC00A30EE66
:106C0000800ADBE710B50C462DED048B114409B268
:106C100098423CD2DBB3002802BF2046BDEC048B77
:106C200010BD00EE100AB7EE008AF8EE400A00EE42
:106C3000103AB8EE400AC0EE808A38EE880ADFEDDE
:106C4000FB0A20EE200A2EF031FBB0EE409ABAEE9D
:106C5000040AF0EE000A28EE800A2DF0F5FF09EE96
:106C6000008A00EE104AF6EE000AB8EEC00A38EECE
:106C7000000AB5EEC00AF1EE10FACCBF30EE200AE1
:106C800030EE600ABDEEC00A10EE100A01B2BDEC93
:106C9000048B084610BD70B515460C4629442DEDF1
:106CA000028B09B2984243D2002B41D0002802BF88
:106CB0002046BDEC028B70BD00EE100AF8EE400AD3
:106CC00000EE103AB8EE400A80EE808A9FEDD80AB6
:106CD00028EE000A2EF0EAFAF0EE408AB7EE000A3B
:106CE000F2EE040A38EE400A20EE200AF0EE000A26
:106CF0002DF0AAFFF0EE400A00EE104AB8EEC01ADE
:106D000000EE105A08EEA01AB8EEC00AF6EE000A1D
:106D100031EE000AB5EEC00AF1EE10FACCBF30EE4B
:106D2000200A30EE600ABDEEC00A10EE100A01B271
:106D3000BDEC028B084670BD70B50C461546014689
:106D40002DED068B601900B2994224BFBDEC068B75
:106D500070BD002B04BFBDEC068B70BD002902BFC7
:106D60002046BDEC068B70BD00EE101AF0EE008AD6
:106D7000B7EE008AF8EE400A00EE103AF6EE009AFE
:106D8000B8EE400A80EE809A19EE100AB0F17C5FEE
:106D90002FDA29EE280ADFEDA60A20EE200A2EF0CF
:106DA00085FAB0EE40AAB0EE480AF2EE040A19EEF7
:106DB000280A20EE200AF0EE000A2DF045FF1AEE18
:106DC000008A00EE104AB8EEC00A08EE290AB5EEB5
:106DD000C00AF1EE10FA02DD30EE290A01E030EED1
:106DE000690ABDEC068BBDEEC00A10EE100A00B2B7
:106DF00070BDB0EE480A19EE280AB0EE409A30EEA7
:106E0000080ADFED8A0A20EE200A2EF04FFAB0EED3
:106E1000408ABAEE040AF0EE000A29EE000A2DF0CC
:106E200013FF48EE008A00EE104AF8EEC00A00EEAA
:106E3000105A48EEA90AB8EEC00A30EE800AB5EE44
:106E4000C00AF1EE10FACADDC6E770B515460C4669
:106E5000294409B2984237D2B3B3002804BF00EEE8
:106E6000104AF8EEC00A1FD000EE100AF8EE400AF1
:106E700000EE103AB8EE401A80EE810AF7EE000AF2
:106E800030EE600AF2EE040A60EE200AB0EE000A6C
:106E90002DF0DAFE00EE904A01EE105AF8EEE00A0C
:106EA000B8EEC11A41EE000AB6EE000AF5EEC00ACD
:106EB000F1EE10FACCBF30EE800A30EEC00ABDEE23
:106EC000C00A10EE100A01B2084670BD70B5144633
:106ED0000D46214409B2984230D27BB300EE100A2D
:106EE000FAEE040AB8EE400A20EE201A00EE103A3C
:106EF000B8EE400AC1EE000AB0EE000A2DF0A4FE82
:106F0000F7EE000A30EEC01A00EE105A00EE904A7A
:106F1000B8EEC00AF8EEE00A00EE810AF6EE000ACA
:106F2000B5EEC00AF1EE10FAD4BF30EE600A30EED2
:106F3000200ABDEEC00A10EE100A01B2084670BD6C
:106F400070B50C461546014660192DED028B00B256
:106F5000994224BFBDEC028B70BD002B04BFBDEC79
:106F6000028B70BD002902BF2046BDEC028B70BDB4
:106F700000EE103AB6EE008AB8EE400A60EE080A5B
:106F800000EE101AB8EE401A81EE200AF7EE000A61
:106F900010EE100A30EE600AB0F17E5F24DAF2EEF5
:106FA000040A60EE200AB0EE000A2DF04DFE00EE5D
:106FB000905AF8EEE00A20EE881A00EE904AF8EEB9
:106FC000E00A41EE000AF5EEC00AF1EE10FACCBF7D
:106FD00030EE880A30EEC80ABDEEC00ABDEC028B66
:106FE00010EE100A00B270BDFAEE040A60EE200A3C
:106FF000B0EE000A2DF028FEF0EE000A70EEC00A96
:1070000000EE105AB8EEC00A20EE081A00EE104A40
:10701000B8EEC00A01EE200AB5EEC00AF1EE10FA91
:10702000D4BF30EE480A30EE080AD5E7E25CA3C1CF
:10703000E25CA34101EB020C0FFA8CFC984227D2D0
:1070400033B300EE102AF8EEC00A00EE100AB8EED4
:10705000400A60EE800A00EE103AB8EE400A80EE78
:10706000801A00EE101AF6EE000AB8EEC00A31EEF1
:10707000000AB5EEC00AF1EE10FAD4BF30EE600A95
:1070800030EE200ABDEEC00A10EE100A0FFA80FCA6
:107090006046704701EB020C0FFA8CFC984227D235
:1070A00033B300EE102AF8EEC00A00EE100AB8EE74
:1070B000400A60EE800A00EE103AB8EE400A80EE18
:1070C000801A00EE101AF6EE000AB8EEC00A31EE91
:1070D000000AB5EEC00AF1EE10FAD4BF30EE600A35
:1070E00030EE200ABDEEC00A10EE100A0FFA80FC46
:1070F0006046704701EB020C0FFA8CFC984227D2D5
:1071000033B300EE102AF8EEC00A00EE100AB8EE13
:10711000400A60EE800A00EE103AB8EE400A80EEB7
:10712000801A00EE101AF6EE000AB8EEC00A31EE30
:10713000000AB5EEC00AF1EE10FAD4BF30EE600AD4
:1071400030EE200ABDEEC00A10EE100A0FFA80FCE5
:107150006046704701EB020C0FFA8CFC984227D274
:1071600033B300EE102AF8EEC00A00EE100AB8EEB3
:10717000400A60EE800A00EE103AB8EE400A80EE57
:10718000801A00EE101AF6EE000AB8EEC00A31EED0
:10719000000AB5EEC00AF1EE10FAD4BF30EE600A74
:1071A00030EE200ABDEEC00A10EE100A0FFA80FC85
:1071B0006046704701EB020C0FFA8CFC984227D214
:1071C00033B300EE100AB8EE401A00EE103AB8EEF3
:1071D000400AC1EE000A00EE102AB8EEC00A20EE06
:1071E000201A00EE101AB8EEC00A01EE200AF6EEE0
:1071F000000AB5EEC00AF1EE10FAD4BF30EE600A14
:1072000030EE200ABDEEC00A10EE100A0FFA80FC24
:107210006046704701EB020C0FFA8CFC98422CD2AE
:107220005BB300EE100A5042F8EE400A00EE103A4E
:10723000B8EE401A80EE810A00EE900AB0EE001A15
:10724000F8EEE00A60EE800A30EE411A00EE101A05
:10725000B8EEC00A00EE810AF6EE000AB5EEC00AEA
:10726000F1EE10FAD4BF30EE600A30EE200ABDEE27
:10727000C00A10EE100A0FFA80FC60467047844680
:10728000881800B29C4528BF7047002B08BF704784
:1072900000EE103AF8EE400AB6EE000A20EE801A30
:1072A00000EE90CAF8EE601AC1EE810A10EE900A64
:1072B000B0F17E5F1CDA01EE102AB8EEC11A21EEA1
:1072C000001A61EE201A01EE101AB8EEC11A01EE92
:1072D000A01AB5EEC01AF1EE10FACCBF31EE000ADA
:1072E00031EE400ABDEEC00A10EE100A00B270473F
:1072F000B0EE001A504270EEC10A01EE900AF8EEAC
:10730000E11A10EEA01A00EE901A61EE801AF8EE63
:10731000E00A41EE810AF5EEC00AF1EE10FAD4BFA0
:1073200030EEC00A30EE800ADCE701EB020C0FFA07
:107330008CFC98422BD253B300EE100AF8EE400AB0
:1073400000EE103AB8EE401A80EE810A00EE902A64
:10735000F8EEE00A60EE800A60EE800A20EE801A05
:1073600000EE901AF8EEE00A41EE000AB6EE000ACE
:10737000F5EEC00AF1EE10FAD4BF30EEC00A30EEDE
:10738000800ABDEEC00A10EE100A0FFA80FC6046BB
:10739000704701EB020C0FFA8CFC984230D27BB3A1
:1073A00000EE100A5042F8EE400A00EE103AB8EE35
:1073B000401A80EE810AF7EE000A30EE600A20EEF5
:1073C000001A21EE001A51EE000A00EE101A01EE2A
:1073D000100AB8EEC00AB8EEC11A01EE200AF6EEA5
:1073E000000AB5EEC00AF1EE10FAD4BF30EE600A22
:1073F00030EE200ABDEEC00A10EE100A0FFA80FC33
:10740000604670478446881800B29C4528BF704784
:10741000002B08BF704700EE103AF6EE000AB8EEF7
:10742000400A20EE201A00EE10CAF8EE401A81EE53
:10743000810A10EE100AB0F17E5F20DA01EE102A08
:10744000B8EEC11A21EE201A21EE001A21EE001A20
:1074500061EE001A01EE101AB8EEC11A01EE801AA0
:10746000B5EEC01AF1EE10FACCBF31EE200A31EEC3
:10747000600ABDEEC00A10EE100A00B27047B0EE0E
:10748000001A504230EE410A01EE900A20EE002A26
:10749000F8EEE11A22EE002A61EEA01A12EE001AAE
:1074A00000EE101AB8EEC00A01EE810AB5EEC00A6D
:1074B000F1EE10FAD4BF30EE600A30EE200AD8E7C1
:1074C00001EB020C0FFA8CFC98422DD263B300EE54
:1074D000100AF8EE400A00EE103AB8EE401A80EEBC
:1074E000810A00EE902AF8EEE00A60EE800A60EE73
:1074F000800A60EE800A20EE801A00EE901AF8EE04
:10750000E00A41EE000AB6EE000AF5EEC00AF1EE1E
:1075100010FAD4BF30EEC00A30EE800ABDEEC00AC9
:1075200010EE100A0FFA80FC6046704701EB020C67
:107530000FFA8CFC984231D283B300EE100AF8EEB9
:10754000400A00EE103AB8EE401A80EE810AF7EEDB
:10755000000A30EE600A20EE001A21EE001A21EE39
:10756000001A41EE000A00EE101A01EE102AB8EEE1
:10757000C00AB8EEC11A01EE200AF6EE000AB5EE16
:10758000C00AF1EE10FAD4BF30EE600A30EE200AE5
:10759000BDEEC00A10EE100A0FFA80FC604670477C
:1075A0008446881800B29C4528BF7047002B08BF4E
:1075B000704700EE103AF6EE000AB8EE400A20EEF0
:1075C000201A00EE10CAF8EE401A81EE810A10EE81
:1075D000100AB0F17E5F22DA01EE102AB8EEC11A6D
:1075E00021EE201A21EE001A21EE001A21EE001AD7
:1075F00061EE001A01EE101AB8EEC11A01EE801AFF
:10760000B5EEC01AF1EE10FACCBF31EE200A31EE21
:10761000600ABDEEC00A10EE100A00B27047B0EE6C
:10762000001A01EE902A30EE410AF8EEE11A20EE3F
:10763000002A61EEA01A22EE002A22EE002A02EEB3
:10764000001A00EE101AB8EEC00A01EE810AB5EE7B
:10765000C00AF1EE10FAD4BF30EE600A30EE200A14
:10766000D7E770B514460D46214409B2984231D28D
:1076700083B300EE100AF8EE400A00EE103AB8EEBE
:10768000401A80EE810ADFED4C0A20EE200A2CF031
:107690000BFC604200EE904A01EE100AF8EEE00AA0
:1076A000B8EEC11A41EE000A00EE105AB8EEC00A58
:1076B00030EE800AF6EE000AB5EEC00AF1EE10FADE
:1076C000D4BF30EE600A30EE200ABDEEC00A10EEE4
:1076D000100A01B2084670BD70B514460D4621442B
:1076E00009B298422AD24BB300EE100AF8EE400AD3
:1076F00000EE103AB8EE401A80EE810ADFED2E0A55
:1077000020EE200A2DF0D2FD00EE905A01EE104A34
:10771000F8EEE00AB8EEC11A41EE000AB6EE000A31
:10772000F5EEC00AF1EE10FAD4BF30EEC00A30EE2A
:10773000800ABDEEC00A10EE100A01B2084670BD04
:1077400070B515460C46294409B2984231D283B32C
:1077500000EE100ADFED190AB8EE400A60EE200ACA
:1077600000EE103AB8EE401A80EE810A2CF09CFB35
:10777000F7EE000A684230EE601A00EE100AF6EEEC
:10778000000AB8EEC00A60EE201A00EE104AB8EE09
:10779000C00A01EE810AB5EEC00AF1EE10FAD4BFBC
:1077A00030EE600A30EE200ABDEEC00A10EE100A7C
:1077B00001B2084670BD0000DB0FC93FDB0F494036
:1077C0000FB4C94910B5C84A496804ABD2F800C023
:1077D00000EB610011F0010F02D0016851F80CC0FC
:1077E0000021039AE04710BC5DF814FB0FB4BE4AB9
:1077F00010B5DFF8F4C2526805ABDCF800C000EB4E
:10780000620012F0010F02D0026852F80CC0049A14
:10781000E04710BC5DF814FB10B50268D2689047D1
:10782000002808BF10BD417B11F0800118BF4FF444
:107830008071807A084310BD0FB430B597B005460B
:107840001CAC684605F0F9F92868416C2846884761
:107850000346224668461B9905F020FA002001469F
:107860001690FF2416AB2A46684605F030FF00B399
:107870000A281CBF1698002813D0417B11F0400243
:1078800018BF4FF47E4211F0200118BF4FF48071F1
:107890001143007A08432979081AC0B2A04238BFC0
:1078A000044616AB2A460021684605F010FF002862
:1078B000DED117B0204630BC5DF814FB0FB430B5F4
:1078C00097B005461CAC684605F0B7F92868416CCE
:1078D000284688470346224668461B9905F0DEF98C
:1078E000002416AB2A4621466846169405F0EFFEA2
:1078F000002829D00A281CBF169800281CD0417BDC
:1079000011F0400218BF4FF47E4211F0200318BF5F
:107910004FF480731A43037A1A43AB8812B29A1A4F
:1079200011F0100118BF4FF48071C0790843104462
:1079300080B2A042C8BF04B216AB2A4600216846F6
:1079400005F0C5FE0028D5D117B0A0B230BC5DF857
:1079500014FB0FB430B597B005461CAC684605F073
:107960006CF929682846496C8847034622466846D0
:107970001B9905F093F90124684605F0B2F940B16E
:107980000A2804BF601C04B2684605F0AAF9002862
:10799000F6D117B0A0B230BC5DF814FB2DE9F0476A
:1079A00098B007461C4615468A46684605F045F9D4
:1079B0003868416C3846884703462246294668465F
:1079C00005F06CF900252E462C46A946A04616ABBC
:1079D0003A4651466846CDF8589005F078FE0400C6
:1079E00018BF0A2C1BD0169A002AEFD0386894884A
:1079F0004146C36B3846984701461698427B12F0C1
:107A0000800218BF4FF48072807A104308442844E3
:107A100085B2002CDAD118B03046BDE8F087B54207
:107A200088BF2E460025F4E72DE9FF4FB7B0064684
:107A30001D46144608A805F000F93068426C30462F
:107A4000904703462A46214608A805F027F91EA8B4
:107A500005F0F3F83068426C3046904703462A46FA
:107A600021461EA805F01AF9002508A8389905F046
:107A7000C1FB1E4FDFF878B0ADF8D00000240DF147
:107A800020080DF1780947F6FF7A00BFADF8D44021
:107A9000396891F8760000281ABFC86C00288868F9
:107AA000CDE905A40794DBE90012CDE9031234A95E
:107AB000CDE90018CDF80890324635A9389B01F081
:107AC00036FFBDF9D410A942C8BF8DB218B11EA8A7
:107AD000389905F08FFBBDF8D0000028D6D13BB017
:107AE0002846BDE8F08F0000AC15002034190020B6
:107AF00090C70B08054908607047014603480068B5
:107B0000002808BF7047026812681047201900203B
:107B100010B504462AF0E8F960680168C96888472A
:107B2000E0680168896888472068816E2046BDE862
:107B30001040084704460068416F20468847206887
:107B4000C16E2046884700BF2AF002FA2068416EC5
:107B500020468847F8E7012180F84B1080F869102B
:107B60007047012180F84B1080F869107047416818
:107B700001224A7240680168096908474068016843
:107B80008968084770B5FB4D0446687848B9606855
:107B9000FDF768FF002818BF616802D04A7A002A02
:107BA000FCD02AF0F1F9687840B12068816A20465B
:107BB0008847E16B884204BF206C70BDE06B70BDEC
:107BC0002AF0D8B9704708467047002B04BF01203F
:107BD000704730B4D007B0EBC17F18D0B3F1004F7D
:107BE000A3F1010007D300BF12F8013B01F8013BEC
:107BF000401EF9D274E0B0F1FF3F71DD12F8013B95
:107C0000401E01F8013BB0F1FF3FF7DC68E012F0E5
:107C1000010F04D012F8010B01F8010B5B1E0124C7
:107C2000012B27D99007B0EB817F1BD0B3F1004F18
:107C300008D300BF32F8020B9B1E21F8020B012B68
:107C4000F8D817E003EBD37C012004EB6C0C05E0C3
:107C500032F8025B9B1E21F8025B401C8445F7DC76
:107C6000012B07D912F0030F04D032F8020B21F8D0
:107C7000020B9B1EB3F1004F08D300BF52F8040B58
:107C80001B1F41F8040B032BF8D81CE00120DD1763
:107C900003EB957C04EBAC0C06E000BF52F8044B00
:107CA0001B1F41F8044B401C8445F7DCB3F1004F27
:107CB00009D3581E33B100BF12F8013B01F8013B54
:107CC000401EF9D20CE0581EB0F1FF3F08DD00BFA6
:107CD00012F8013B401E01F8013BB0F1FF3FF7DC19
:107CE00030BC01207047704710B500200C2928BF18
:107CF00010BDDFE801F00A08060C0C0C0C0E0E0E8D
:107D00000E0E202010BD182010BD102010BDAFF3A6
:107D10000080082010BD70B50020DDE904549C46A9
:107D20000C2C10D2DFE804F00A08060C0C0C0C0E28
:107D30000E0E0E0E202006E0182004E0102002E0B7
:107D4000AFF30080082005FB0211C00801FB00C052
:107D500070BD2DE9F04F89B00446DDE915B0DDE9CD
:107D60001858DDE9127A4FF0000EDDF85CC0DDF83E
:107D700050901A9ECDF818E0B8F1020F2DD0FF28D0
:107D800028BFBCF1000F0CBF4FF0010C4FF0040CEA
:107D9000CDF800C0CDE901128DF81C007548ADF892
:107DA00010A0ADF81290ADF814B040789B4640B1E9
:107DB0002068816A20468847E16B884208BF216CB1
:107DC00000D0E16B00200C2E18D2DFE806F0141270
:107DD00010383838381616161616FF2828BFBCF18A
:107DE000000F14BF4FF0400C4FF0200CD0E72020C4
:107DF00004E0182002E0102000E0082005FB07B294
:107E0000C00802FB00108DF81D800390ADF81650DD
:107E10008DF81E60BAF1000F18BFB9F1000F0ED037
:107E20002068816B204688470099084207D0606827
:107E300001684A686946904709B0BDE8F08FAFF322
:107E400000802DE9F0478AB00DF1480EBEE8F0172A
:107E50008DE8F81713460022FFF77BFF0AB0BDE854
:107E6000F0872DE9FF4F89B0424CDDE91976216991
:107E7000DDE9179891F87600DDF858A01D46934685
:107E800000281ABFC86C002888680168496A8847BA
:107E90006189CDE90610CDE9005A0890CDE9047654
:107EA000CDE90298DDE909015B460022FFF751FFA9
:107EB0000DB0BDE8F08F2DE9FF4F2E4C89B08B46F9
:107EC0002169DDE91876DDE9169891F876001D46FE
:107ED000924600281ABFC86C002888680168496A61
:107EE000884762890123CDF80880CDE90532022157
:107EF000CDE90710CDE90059CDE9037653460022BC
:107F000059460998FFF725FF0DB0BDE8F08F2DE920
:107F1000F04118480E461546016947891C4691F8FC
:107F2000760000281ABFC86C002888680168496A72
:107F300088474FF0000C0C2814D2DFE800F00C0941
:107F4000060F0F0F0F11111111114FF0200C09E046
:107F50004FF0180C06E04FF0100C03E0AFF3008078
:107F60004FF0080C07FB05604FEADC0100FB014005
:107F7000BDE8F081241900202DE9F04788B099462A
:107F8000DDE9116392460446DDE91402109F4FF0CB
:107F9000000CCDF818C0CDE90021DDF84C80ADF81B
:107FA0001070ADF81260ADF814308DF81C00FE4D65
:107FB000687848B12068816A20468847E16B88422A
:107FC00004BF2046236C01D0E36B20464A4651464D
:107FD000FFF79DFF03906889ADF81600296991F8B5
:107FE000760000281ABFC86C002888680168496AB2
:107FF00088478DF81E008DF81D00002F18BF002E39
:1080000010D02068816B204688470099084209D02B
:10801000CDF81880606801684A686946904708B0E2
:10802000BDE8F087AFF300802DE9FF4F89B04FF036
:108030000009DDE917BADDE919650446CDF81890A5
:10804000BAF1FF0F34BF082002209046CDE90009A5
:10805000D5481F46407840B12068816A204688474D
:10806000E16B884208BF216C00D0E16B00200C2D31
:108070000ED2DFE805F00A0806333333330C0C0C5C
:108080000C0C202004E0182002E0102000E0082062
:1080900006FB0782C00802FB001003901698ADF89B
:1080A0001000ADF81490ADF816608DF81CA00A9879
:1080B0008DF81D50ADF812B006908DF81E50206856
:1080C000816B204688470099084207D060680168A4
:1080D0004A68694690470DB0BDE8F08FAFF3008065
:1080E0002DE9F04FB04C85B08B4621690546DDE99E
:1080F0000F7691F87600DDF8388099469246002890
:108100001ABFC86C002888680168496A8847618975
:10811000CDF80080CDE90310CDE9017628684B4603
:108120005246D0F850C059462846E04705B0BDE851
:10813000F08F81651C3007F055BEF0B59A4E0446AD
:1081400089B0B0780F461546002834D0002006903C
:10815000012000902068816A2046884703463A0C37
:10816000B9B22046FFF7D3FE0190606C0390ADF8E2
:108170001050280CADF812007089ADF81400ADF85D
:108180001600316991F8760000281ABFC86C0028E3
:1081900088680168496A88478DF81D008DF81E00BF
:1081A000FF208DF81C00606801684A6869469047A6
:1081B000606C09B0F0BDAFF300802DE9F04188B0EC
:1081C0000546002006900120009028680F461E46B4
:1081D000816A1446DDF838802846884703463A0C01
:1081E000B9B22846FFF793FE0190ADF81040200C7D
:1081F000ADF812006C4803964189ADF81410ADF843
:108200001680016991F8760000281ABFC86C002812
:1082100088680168496A88478DF81D008DF81E003E
:10822000FF208DF81C00686801684A68694690471D
:1082300008B03046BDE8F08110B5044690F86A00F9
:10824000002808BF10BD02202AF0BCFA002084F8E4
:108250006A0084F869005448407840B12068816A17
:1082600020468847E16B884208BF216C00D0E16B53
:108270002068D0F8A8202046BDE8104010472DE91E
:10828000F04383B005460F4680690A999946164621
:10829000002837D00022029202AACDE9001201681C
:1082A0003246D1F800C03946E0473F4C8046A4F83A
:1082B0000A90216991F8760000281ABFC86C00283E
:1082C00088680168496A88470C2817D2DFE800F0FF
:1082D000060E1A1A1A1A1A1A1A1A1A1A6089029902
:1082E00006FB0070404201EB400006E06089029905
:1082F00006FB0070A0EB80000844E86303B0404632
:10830000BDE8F083AFF3008010B504464FF00300E2
:1083100059B12AF054FA2069002808BF10BD01683D
:108320004A69BDE81040012110472AF04AFA206945
:10833000002808BF10BD01684A69BDE8104000214F
:1083400010470069002808BF70470168096908479D
:1083500000B583B04FF0000CADF800C0ADF804C01C
:10836000ADF802C0ADF806C0D0F800C06B46DCF82E
:1083700098C0E04703B000BD2DE9F04F064693B02A
:108380001D460C4690461046FCF7E8F9002804BF4D
:1083900013B0BDE8F08F044F38690168096A884757
:1083A00038690168496A01E0241900208847ADF85E
:1083B0003C8078890E90B8890D900FA8FBF73FFCA0
:1083C00078810FA8FBF75EFCB8813869C16B0C910E
:1083D000006C01904046FCF7C1F93969002208643D
:1083E000C8632068B4F80490B4F80680436B114663
:1083F0002046984794F82570012084F82500B5F9A7
:1084000004A0211DBAF1000F1CBFE88800287DD010
:1084100006A82BF0DBFCB5F90020BDF9180002EB33
:108420000A0C844573DDBDF91C1000EB010A92456E
:108430006DDDB5F902B0B5F906100BEB0103BDF91E
:108440001A108B4263DDBDF91E300B445B457EDDA7
:108450009042D8BF10465945D8BF59460FFA8AF204
:108460000FFA8CFC6245A8BF6246121AADF81C20B8
:108470001AB26B88B5F806C063441BB29A42A8BF13
:108480001A46521AADF81800ADF81E20ADF81A10B1
:10849000DDE90601CDE90801C34D286990F87610A1
:1084A00000291ABFD0F84CA0BAF1000FD0F808A0EC
:1084B0000FA8FBF792FB8346DAF80000416A5046AA
:1084C000884783451CBFF06C00280BD00FA8FBF732
:1084D00084FB8246F06C0168496A8847824508BF80
:1084E000012000D0002086F876000020D4F814A0E7
:1084F0006061206808A98268204690470020C4F87F
:1085000014A086F8760084F8257001E01BE01EE0D8
:1085100020680FFA88F20FFA89F1436B20469847DA
:1085200028690C99C163019901640E9969810D99BB
:10853000A9810168096A884728690168496A8847EA
:1085400013B0BDE8F08F08A82BF040FCA4E7002092
:10855000ADF81800ADF81C00ADF81A00ADF81E001B
:1085600096E7F0B50446006885B0D0F8A010204624
:1085700088478D4F0026002800F0A88001202AF0AF
:108580001EF994F8660084F8670084F8666084F841
:108590004B6094F8750030B12068D0F8B4102046D4
:1085A000884784F8756094F84A10606800290CBF09
:1085B0000121002141720125FD70FAF71DFC0168BF
:1085C0000A6B0121904794F86700002808BF84F8DF
:1085D0006750FAF711FC016849698847A06D016886
:1085E0000969884794F86700401EC0B284F86700A4
:1085F00094F86810002918BF0028EAD13879401C87
:1086000040B2387194F96410814214DC3E71E06824
:1086100002AA0168CB6801A998470028206806D003
:10862000DDE90112D0F8AC302046984703E0D0F8DD
:10863000B010204688478DF80060606950B101682D
:10864000CA686946904728B1A06D0168CA689DF85C
:108650000010904704F11C0007F0C6FB94F86C0072
:1086600000282DD020690168096988470546206FD8
:10867000002808BF2567206F4C49281A88421FD957
:1086800020690168896988470146206F484A281A8D
:10869000A2FB00204009B1FBF0F00028D8BF642005
:1086A00006DD6428ACBF84F86560C0F1640001DABF
:1086B00084F8650020690168CA6900219047256730
:1086C000FAF79AFB01680A6B002190472068D0F8FE
:1086D000A4102046884701202AF073F8FE7005B0E8
:1086E000F0BD3149497800291BBF90F86A00002885
:1086F00001200020704710B5044640680168896871
:10870000884794F8690000281CBF012084F86A009B
:1087100010BD10B584B00446CDE9021202A808F0DD
:108720004CF802A803A907F007FB94F86B00002897
:10873000039817D080B20090029883B2B4F860001A
:1087400082B2B4F85C0081B204F11C0007F05CFB5B
:10875000002804BF04B010BD0298E06503982066AD
:1087600004B010BD83B20298002182B204F11C0053
:1087700007F08DFB012084F86B00EDE710B504468F
:1087800090F86B00002808BF10BDB4F8600001210C
:1087900083B2B4F85C0082B204F11C0007F077FBEE
:1087A000002084F86B0010BD2419002000E1F505BD
:1087B0001F85EB5110B504460888E08404F12600BB
:1087C000FBF73DFA01B22068826B2046904704F126
:1087D0002600FBF757FA01B22068C26B204690478B
:1087E00004F12600FBF7B9FA84F8290010BD2DE941
:1087F000F0478AB00024ADF81040ADF81440804630
:10880000ADF81240ADF8164000680D4604A9426A62
:108810004046904708F1260A5046FBF710FA814679
:108820005046FBF72FFA69F30F0764F30F0660F366
:108830001F4764F31F4608A96846CDE908672BF077
:10884000C5FAB5F90030B5F904004FF0010C03EB9F
:108850000009BDF9000081455BDDBDF90410471832
:108860009F4256DDB5F90220B5F906105618BDF93C
:1088700002108E424DDDBDF906600E44964248DD81
:108880009842D8BF18469142C8BF0A463BB20FFA79
:1088900089F18B42B8BF1946091AADF804106B88EC
:1088A000EC8831B223441BB29942A8BF1946891AF9
:1088B000ADF80000ADF80610ADF80220DDE90001CA
:1088C000CDE90601BDF81C00002819BFBDF81E0047
:1088D00000280AB0BDE8F0871B48016891F87600CF
:1088E00000281ABFC86C0028886898F8281006AAC3
:1088F000CDE90021CDF808C00168BDF91230BDF9FD
:108900001020D1F80CC008F12601E0470AB0BDE8FC
:10891000F087ADF80040ADF80440ADF80240ADF886
:108920000640CBE791F82820FF2A0AD24FF0000C2E
:10893000A0F800C0A0F802C0A0F804C0A0F806C0CB
:1089400070472631FBF7C1B93419002030B583B028
:10895000DDE90745DDF818C0ADF80010ADF80430CA
:10896000ADF80220ADF806C001682B462246D1F8CA
:108970001CC06946E04703B030BD30B583B0DDE9C7
:108980000745DDF818C0ADF80010ADF804C0ADF82B
:108990000220ADF8063001682B462246D1F81CC0F3
:1089A0006946E04703B030BD2DE9F04782B00D467F
:1089B000B1F80090B1F802C0C9880A9FADF80090E4
:1089C000ADF80420ADF802C0ADF806100168984675
:1089D0001446D1F81CC006463B4642466946E0476D
:1089E000B5F90010B5F90420304611444FF0FF39B5
:1089F00009FA81FCB5F802A0E988ADF800C0ADF82D
:108A00000440ADF802A0ADF8061031683B4642467E
:108A1000D1F81CC06946E047B5F800C0B5F802A01F
:108A2000A988ADF800C0ADF80410ADF802A0ADF80B
:108A30000640316830463B46D1F81CC04246694684
:108A4000E047B5F90210B5F90620B5F800C0304688
:108A5000114409FA81F6A988ADF800C0ADF80410F8
:108A6000ADF80260ADF80640016842463B46D1F8D9
:108A70001CC06946E04702B0BDE8F08708B5009326
:108A800013460122FFF790FF08BD0FB4DFF848C47A
:108A900010B5DCF804C082B000EB6C001CF0010FD4
:108AA000DFF834C41A46089BDCF800C00AA902D0DB
:108AB000046854F80CC001910999009105A9E04798
:108AC00002B010BC5DF814FB2DE9FF4FD1B01F467A
:108AD000154680469369D06AD5E9012CDDE95E64CC
:108AE000DDE961A9FD49DDF880B18C45C7BFD5F846
:108AF0001CC08C4555B0BDE8F08FD5F830C08C4512
:108B0000DCBF55B0BDE8F08FD5F800C0F449CDF812
:108B100014C08C45C7BFD5F814C08C4555B0BDE80E
:108B2000F08FD5F828E0EE49CDF80CE08E45DCBF9B
:108B300055B0BDE8F08FEB49DDF814E08E45D2BFAB
:108B40008C4555B0BDE8F08FDDF80CC08C45B9BF41
:108B5000DFF88CC3944555B0BDE8F08F9C45B2BF9B
:108B6000844555B0BDE8F08F8A42D2BF8B4255B0E4
:108B7000BDE8F08F8842A4BF55B0BDE8F08F9A429F
:108B800021DA90420ADA02200390002004900120AA
:108B90000590002002900120019020E00021039127
:108BA000834207DA01200490022005900120029000
:108BB000022013E002200490012005900220029080
:108BC000012001900BE098422FDA0220039001204F
:108BD0000490002005900120029000200190294679
:108BE00040A807F0FFF9059800902A4640A910A870
:108BF000039B07F0A4FB049800902A4640A930A8E4
:108C0000039B07F09CFB059800902A4640A920A8EA
:108C1000049B07F094FBDDE90101884219DD002087
:108C20000A9010A8089030A818E001210391824210
:108C300007DA002004900220059003200290022011
:108C4000CCE702200490002005900220029003202F
:108C5000C4E701200A9030A8089010A8099008984D
:108C6000B6F90210B4F906C04269B4F90200369DA3
:108C7000531884449C4508DD9842C8BF002D12DD7E
:108C80001144401A0690A84200DD06950698002877
:108C900009DD014630A829F048FD10A8069929F001
:108CA00044FD06982D1A281EA5F101057DDD00BFA3
:108CB000CDE9034BCDE905A90998CDE90007029656
:108CC000D8F8000040AA089BD0F83CC04046529912
:108CD000E0470898B6F90210B4F902204069084448
:108CE000411CB4F9060010448142A4BF55B0BDE850
:108CF000F08FDDE93001084430903598401C359004
:108D00003698401E36909DED3A0ADDED3B0A30EE76
:108D1000200A8DED3A0ADDED3D0A9DED3E1A30EE5A
:108D2000811A8DED3D1ADDED370ADDED381A70EE52
:108D3000A10ACDED370A329934980844339934901A
:108D4000884217DB3098401C30903498401A349099
:108D5000DDED391A70EEA10ACDED370ADDED3C0AE2
:108D600030EE200A8DED3A0A9DED3F0A31EE000A01
:108D70008DED3D0ADDE91001084410901598401C66
:108D800015901698401E16909DED1A0ADDED1B0AEF
:108D900030EE200A8DED1A0ADDED1D0A9DED1E1A3A
:108DA00030EE811A8DED1D1A00E02BE0DDED170A83
:108DB000DDED181A70EEA10ACDED170A129914987C
:108DC000084413991490884217DB1098401C1090A7
:108DD0001498401A1490DDED191A70EEA10ACDED29
:108DE000170ADDED1C0A30EE200A8DED1A0A9DED02
:108DF0001F0A31EE000A8DED1D0A281EA5F101059E
:108E00003FF756AF0A98269D002804BF10A8089087
:108E100020A81CBF089010A809900898B6F9023045
:108E2000B4F906C04269B4F90200D11884448C45F3
:108E300008DD8842C8BF002D12DD9918401A06903F
:108E4000A84200DD06950698002809DD014620A805
:108E500029F06BFC10A8069929F067FC06982D1ADA
:108E6000281EA5F10105DCBF55B0BDE8F08F00BF9D
:108E7000CDE9034BCDE905A90998CDE90007029694
:108E8000D8F8000040AA089BD0F83CC04046529950
:108E9000E0470898B4F902204169B6F90200084495
:108EA000411CB4F9060010448842DCBF55B0BDE84F
:108EB000F08FDDE92001084420902598401C259082
:108EC0002698401E26909DED2A0ADDED2B0A30EEF5
:108ED000201A8DED2A1A07E0C41500200000204159
:108EE000008FFDFF007102009DED2D0ADDED2E0AC1
:108EF00030EE200A8DED2D0ADDED270ADDED281A72
:108F000070EEA10ACDED270A2299249808442399EE
:108F10002490814217DC2098401C20902498401A0D
:108F20002490DDED291A70EEA10ACDED270ADDEDC2
:108F30002C0A71EE200ACDED2A0ADDED2F0A30EE63
:108F4000200A8DED2D0ADDE91001084410901598D6
:108F5000401C15901698401E16909DED1A0ADDEDE6
:108F60001B0A30EE200A8DED1A0ADDED1D0A9DED7B
:108F70001E1A30EE811A8DED1D1ADDED170ADDED9A
:108F8000181A70EEA10ACDED170A12991498084428
:108F900013991490884217DB1098401C1090149875
:108FA000401A1490DDED191A70EEA10ACDED170AE2
:108FB000DDED1C0A30EE200A8DED1A0A9DED1F0A28
:108FC00031EE000A8DED1D0A281EA5F101053FF7BF
:108FD0004FAF55B0BDE8F08F30B587B0002A04BF61
:108FE00007B030BD012A1DD0022A30D0032A1CBF91
:108FF00007B030BD04ABCA88C188B0F802C0521AAD
:10900000A2EB0C02B0F800C08488ADF81410ADF8E3
:109010001020ADF812C0ADF8164019462AF0D6FE61
:1090200007B030BD8A8881880488521A121BB0F8B4
:1090300002C0C488ADF80440ADF800C0ADF8061019
:10904000ADF8022069462AF0C1FE07B030BDB1F884
:1090500004C082880488ACEB020CACEB040CCC8816
:10906000C1884588641AADF80C2002AB641BADF8CA
:1090700008C0ADF80E10ADF80A4019462AF0A6FE59
:1090800007B030BDB0F900C0012B08D0022B0BD0C7
:10909000032B0CBF0CEB02000CEB01007047B0F986
:1090A00004006044801A03E0B0F904006044401AF0
:1090B000401E7047B0F902C0012B04BF0CEB010049
:1090C0007047022B0AD0032B1CBF0CEB0200704729
:1090D000B0F906006044401A401E7047B0F906001F
:1090E0006044801AF8E72DE9FF4F97B000242598D7
:1090F000DDE9298203888088269D184400B21190FA
:10910000286824994746437A1493007A0F90B1F95E
:1091100000000E940C9032B1287C04280CBF022071
:10912000012000EB08070026002FC4BF4FF6FF6A9E
:1091300042F20B0B40F312810020A1460D904645F0
:109140000EDB28680168496988470446286815AB22
:1091500010AA0168D1F808C02146E0470D900AE046
:1091600015A910A8CDE90001DDE927100DAB2A688B
:1091700004F0F9FA0446544518BF5C4500F0D68067
:10918000002C00F0EB800A2C00F0E4800D98002801
:1091900018BF84880FD1286801680969884750453D
:1091A00018BF584500F0C2800D98002804BF002069
:1091B0000E9000F0BB80279818B90C990E980844BF
:1091C0000C900D9A507B10F0800018BF4FF4807007
:1091D000917A08430E902798012803D10E990C9894
:1091E000401A0C902798B9F1000F14D00028286875
:1091F0000168CB6B494604D098470C99081A0C902B
:109200000DE098470C9908440C900F99411A119859
:1092100081427DDC10E0002808BF0C98F5D027982B
:10922000012809D10E990C980144149801442598FD
:10923000B0F9000081427DDB0D98417B11F00801FF
:1092400018BF4FF4807182790A430C990A4490F94F
:10925000091025980A44B0F90000824266DB0C9A96
:109260000A441199914261DD0C994FF0000988423E
:1092700002DD401A1FFA80F900200090286801687A
:10928000C96A88470D9B5A7B12F0400118BF4FF402
:109290007E4112F0200C18BF4FF4807C41EA0C0193
:1092A00093F808C041EA0C01411A1A98084401B227
:1092B00025980191B0F9020088420DDD12F01002EC
:1092C00018BF4FF48072DB791A430A4482422DDBC7
:1092D0000190401A80B2009028680168896B884725
:1092E000AB79AA7B9DF854100B93CDE90912A968BC
:1092F000089125990D9B109ACDE90620CDE904131C
:109300000C9B009A4B44CDE902921BB2009300E003
:1093100010E012A819992AF059FD17980068D0F8A2
:1093200040C0DDE91701DDE91223E047761CBE42AB
:10933000FFF602AF94B10A2C1CBF741C444509DA35
:10934000DDE9271003F056FF40B10A281CBF641C5A
:109350004445F5DB1BB00020BDE8F08F1BB00120B9
:10936000BDE8F08F2DE9FF4F4FF0000681B09B461E
:10937000B2F10009884634463546C8BF4FF0000AAE
:1093800025DD27466B4642465946CDF800A0019898
:1093900004F09DF9040018BF0A2C18D0009A9AB165
:1093A000D8F8000094883946C36B40469847014678
:1093B0000098427B12F0800218BF4FF48072807ACE
:1093C00010430844304486B26D1C4D45D9DB05B0CE
:1093D0003046BDE8F08F10B4C48AB0F812C0E41A69
:1093E000A444A0F812C0B0F814C0624442830CEB4D
:1093F00001028282C382028B511A018310BC704722
:109400002DE9F04F83B04FF0000B0446CDF808B0C3
:10941000407A5FEA0109D846DA4629D0032818BF06
:10942000042822D0012818BF4FF000081DD00228C0
:109430000CBF4FF0010A4FF0000A00266682A68298
:1094400042F20B05019600962788217A6B46E26866
:10945000606804F03CF92080C0B1E18A491CE182D7
:109460000A2813D0009A12B323E04FF00108DEE778
:1094700003281ABF04284FF0000B4FF0010B0128FE
:1094800016BF0228012000200290D6E7638AE28AF4
:10949000208B1A446282A28A002102446283A28A3B
:1094A0001044A082E182268303B0BDE8F08FA84279
:1094B000C9D10023A84212D090882080E0680168BA
:1094C000CB6B3946984701460098427B12F08002E8
:1094D00018BF4FF48072807A1043084483B2218809
:1094E000202918BFA94204D1202F1EBFAF42208BD4
:1094F0000190208BC21892B22283A38AB4F810E0A4
:1095000003EB020CF4458CBF01230023B9F1000FDB
:109510002BD0B8F1000F06D1BAF1000F09D02029E5
:1095200018BFA94205D1A08B604470450FD9608A4D
:1095300068B1002B1CBF608A002884D00120A0776E
:10954000608BA18B0844608303B0BDE8F08F618A13
:10955000E38A002019446182A18A11446183A18AAF
:109560001144A182E08226836DE7BBB3BBF1000FFB
:1095700012D0E38A628A5B1E1A446282A28A0121A7
:1095800002446283A28A0244A282E182218B081AE9
:10959000208303B0BDE8F08F029A002A3FF453AF56
:1095A000202918BFA9421AD0202F18BFAF4216D1C8
:1095B000B4F816C0638AACF1010C6344019963826C
:1095C000A38A01221944618399B20144A182E282F3
:1095D000218B081A208303B0BDE8F08F09E0202911
:1095E0001EBFA942608A00283FF42DAF03B0BDE83A
:1095F000F08F202918BFA9423FF425AF202F18BFB4
:10960000AF427FF420AFB4F816C0638AACF1010C0E
:10961000634401996382A38A01221944618399B248
:109620000144A182E282218B081A20830BE72DE9F5
:10963000FF4FDDB01C46DDE96A56002D19BF2068DA
:10964000002861B0BDE8F08FA07B002804BF61B0A6
:10965000BDE8F08F114654A82AF0B8FB5E985E9AD8
:1096600000218088D288ADF82010ADF82400ADF834
:109670002210ADF82620A27908A954A8FFF7ACFC67
:1096800008A9A2790846FFF7A7FC3EA803F0D5FA7F
:1096900020680168496C884703463246B24629462D
:1096A0003EA803F0FBFA28A803F0C7FA20790028A7
:1096B00008BF4FF000080BD020684FF00108016888
:1096C000496C884703465246294628A803F0E6FA23
:1096D00020680168096B8847B4F90C100E18002E39
:1096E00007DDBDF952219042DCBF501890FBF6F720
:1096F00000DD002712A803F0A0FA207C48B1206802
:109700000168496C884703465246294612A803F06F
:10971000C5FA217C2068CDE900016379BDF82420D9
:1097200012A90AA828F0C2FF207C4FF0000AA8B3B3
:10973000002F56DDBDF92600B0EB460FB4BF012166
:1097400000210AA8FFF75CFEBDF83A00411E8DB269
:1097500078B161793EA803F04DFDB8F1000F03D058
:10976000617928A803F046FD2800A5F101018DB21A
:10977000EFD1BDF822007F1E3044ADF82200BDF8C5
:109780002600801BADF82600BDF82800002804BF85
:1097900061B0BDE8F08F002FCCDC22E0FFE7002FA6
:1097A0001FDD61793EA803F025FD0546B8F1000FE5
:1097B00003D0617928A803F01DFD002D04BF61B01E
:1097C000BDE8F08F0A2D0AD1BDF822007F1E30447B
:1097D000ADF82200BDF82600801BADF82600002F52
:1097E000DFDC207C002748B1BDF92600B0EB460F36
:1097F000ACBF002101210AA8FFF702FEB8F1000F5B
:1098000008BFE77B50D0207C002818BFBDF842007D
:1098100035D128A856902068049047F6FF7006902E
:1098200000205B90054681465A90CDF864A1AB4676
:1098300059AB049A5B99569803F049FF050018BF8D
:109840000A2D1BD0599AA2B10498958859460068F0
:10985000C36B0498984759994A7B12F0800218BF4D
:109860004FF48072897A114301445A98084480B2B7
:109870005A90069809F101098145D6DB5A9801B240
:109880002079012802D0022808D00DE0BDF924007B
:10989000401A00EBD07040F34F0705E0E27BBDF8C3
:1098A00024001144401A07B2BDF820003844ADF836
:1098B0005C01207C002814BFBDF83A1047F6FF7108
:1098C0009DF846003EAACDE9051054A857A9CDE958
:1098D00000100294CDE903A2DDE95D02BDF922305A
:1098E0000021FFF700FC00281CBF61B0BDE8F08F2D
:1098F000BDF82200304401B2BDF82600ADF82210B8
:10990000801B00B2ADF82600227C002A18BFB042AE
:10991000BCBF61B0BDE8F08FBDF95201BDF9562161
:1099200010448842BFF65DAF61B0BDE8F08F2DE90D
:10993000FF4F87B00026DDE91747DDF850900A9900
:1099400000EB670B0596DDF858A0DDF86C801998E0
:10995000354604960029069650D0002840F3E3824D
:10996000B9F80000002818BF0A2800F062822828F1
:1099700018BF292800F071817B2818BF7D2800F0CE
:109980006C815B2818BF5D2800F067813C281CBFF4
:109990003E28002100F06181A0F5A062B2F5007FB1
:1099A00022BFA0F57B42503AB2F56C7F04D3002968
:1099B00008BF4FF0000C01D04FF0010CA0F13001B6
:1099C000092994BF01210021A0F14102192A84BF75
:1099D000A0F16102192A40F24281802828BFBCF11F
:1099E000000F18BF002200F03A81082E80F00E828E
:1099F000DFE806F0FEFDFCFDFBFAF9F8002840F375
:109A0000928200BFB9F80000002818BF0A2800F0B1
:109A1000B780282818BF292837D07B2818BF7D2871
:109A200033D05B2818BF5D282FD03C281CBF3E28B0
:109A300000232AD0A0F5A061B1F5007F23BFA0F5D7
:109A40007B415039B1F56C7F012128BF0021A0F185
:109A50003002092A94BF01220022A0F1410CBCF17E
:109A6000190F84BFA0F1610CBCF1190F0FD9802828
:109A700028BF002918BF002009D010431843042E26
:109A80006BD2DFE806F0060E28460123D2E701205C
:109A9000F3E7002914BF022601264FF001055ED12D
:109AA00076E0002908BF6D1C72D0584617F0010FF0
:109AB0000EBF2146016809598C460021CDF800A04F
:109AC000CDF80C80CDE901510B46DDE90812E047E5
:109AD0000226012543E0A8B1584617F0010F0EBF3A
:109AE0002146016809598C460021CDF800A0CDF827
:109AF0000C80CDE90151DDE908120123E047012680
:109B0000354645E0002912BF6D1C0326012026D1F1
:109B100021E021B1049802262844451C1FE00028BA
:109B200004BF0498401C16D0584617F0010F0EBF12
:109B30002146016809598C460021CDF800A0CDF8D6
:109B40000C80CDE90151DDE908120123E0470498BA
:109B50000126451C1CE0049001E0012E18D00021D4
:109B60000698084306900A99159803F043FBA9F854
:109B700000000598401C059019998842FFF642AFF5
:109B8000012E07D0022E0FD0032E17D000F0CBB934
:109B90000121E5E7584617F0010F1ABF016809597E
:109BA00021468C4600F070B9584617F0010F1ABFD5
:109BB0000168095921468C4600F051B9069898B3BE
:109BC00017F0010F08BFA44603D0DBF8000050F8DF
:109BD00004C00026CDF800A0CDF80C80CDE90156D8
:109BE000012306E0FDE0ECE09DE076E045E00DE1DC
:109BF00037E0DDE908125846E04717F0010F08BFCB
:109C0000A44603D0DBF8000050F804C00498CDF857
:109C100000A0CDF80C80CDE90106DDE90812002393
:109C20005846E04700F07FB9FFE7584617F0010FAC
:109C300008BFA44602D0016851F804C0049A00216C
:109C40002A44CDF800A0CDF80C80CDE90121DDE952
:109C500008120123E04700F066B901219CE60122C9
:109C6000C3E6002918BF042635D1002A14BF0626F2
:109C700002264FF001055BD1E6E0A1B1584617F08E
:109C8000010F0EBF2146016809598C460021CDF80D
:109C900000A0CDF80C80CDE90151DDE908120123C7
:109CA000E047042617E0002A08BF6D1C6FD0584615
:109CB00017F0010F0EBF2146016809598C4600219B
:109CC000CDF800A0CDF80C80CDE90151DDE90812F6
:109CD0000123E047062601259AE0E9BB2E2818BF9C
:109CE0002C2805D0002A1CBF06266D1C04D08FE04E
:109CF0000526012004908BE0584617F0010F01D192
:109D0000214601E001680959CDF800A08C460021E8
:109D1000CDF80C80CDE901510B46DDE90812E04792
:109D20000226012590E021B1049804262844451C10
:109D30006EE06AB317F0010F08BFA44603D0DBF84A
:109D4000000050F804C00026CDF800A0CDF80C802B
:109D5000CDE90156334600E036E0DDE90812584609
:109D6000E04717F0010F0EBF2046DBF80000005956
:109D700084460498CDF800A0CDF80C80CDE901060A
:109D8000DDE9081201235846E0470626A3E75BE019
:109D9000FFE7584617F0010F01D1214601E00168A5
:109DA0000959CDF800A08C460021CDF80C80CDE9F2
:109DB00001510B46DDE90812E04704980226451CD4
:109DC00042E052EA010001D06D1C21E0BCF1000F1D
:109DD00004BF0726012017D0584617F0010F91D174
:109DE0008EE752EA010004D0049806262844451C58
:109DF0000EE0BCF1000F04BF0498401C04D058468C
:109E000017F0010FCBD1C8E7049001E0022E1BD060
:109E100000210698084306900A99159803F0EAF97C
:109E2000A9F800000598401C059019998842FFF692
:109E300097AD022E0AD0042E18BF062E1BD0072E77
:109E400018BF052E2CD06EE00121E2E7584617F02E
:109E5000010F08BFA44602D0016851F804C00021D8
:109E6000CDF800A0CDF80C80CDE90151DDE9081254
:109E70000123E04757E0584617F0010F08BFA446FA
:109E800002D0016851F804C00021CDF800A0CDF83F
:109E90000C80CDE901510B46DDE90812E04742E0B4
:109EA000069850B317F0010F08BFA44603D0DBF8A3
:109EB000000050F804C00026CDF800A0CDF80C80BA
:109EC000CDE90156DDE9081233465846E04717F060
:109ED000010F08BFA44603D0DBF8000050F804C00F
:109EE0000498CDF800A0CDF80C80CDE90106DDE99D
:109EF000081201235846E04715E0584617F0010FB5
:109F000008BFA44602D0016851F804C0049A002199
:109F10002A44CDF800A0CDF80C80CDE901210B46F4
:109F2000DDE90812E0471A9890B117F0010F02D04E
:109F3000DBF80000045901210020CDF800A0CDF885
:109F40000C80CDE90101DDE9081203465846A0471F
:109F5000B9F800000A281EBF00200BB0BDE8F08F42
:109F60000A99159803F046F9A9F800000BB00120F2
:109F7000BDE8F08F2DE9FF4FADF5277D1C46DDE9EB
:109F8000B4A58846BAF1000F19BF206800280DF566
:109F90002B7DBDE8F08FA07B002804BF0DF52B7D45
:109FA000BDE8F08F677911469AA829F00FFFB8F83D
:109FB0000420B8F806000023ADF88420ADF8803006
:109FC000ADF88600ADF88230A27920A99AA8FFF7F3
:109FD00003F820A9A2790846FEF7FEFF17B1012F6A
:109FE00007D00BE02079002804BF0026B14603D13A
:109FF00007E02079022801D0012600E000264FF07A
:10A0000001092AA802F019FE20680168496C8847F6
:10A0100003462A4651462AA8009502F03FFE0AA8A8
:10A0200002F00BFE20680168496C884703465146E0
:10A030000AA8009A02F032FE6CA802F0FEFD206829
:10A040000168496C8847034651466CA8009A02F0A3
:10A0500025FE40A802F0F1FD82A802F0EEFD9EB1BF
:10A0600020680168496C88470346514640A8009A19
:10A0700002F014FE20680168496C88470346514687
:10A0800082A8009A02F00AFE20680168096B8847DE
:10A09000B4F90C201518002D07DDBDF96A128842AD
:10A0A000DCBF881890FBF5FB01DD4FF0000B56A8D4
:10A0B00002F0C3FD207C48B120680168496C8847E4
:10A0C0000346514656A8009A02F0E8FD217C20681C
:10A0D000CDE900016379BDF8842056A922A828F0B3
:10A0E000E5FA207CF0B3BBF1000F6FDDBDF986000F
:10A0F000B0EB450FB4BF0121002122A8FFF780F982
:10A10000BDF89A00411E1FFA81FAD8B139462AA833
:10A1100003F070F839460AA803F06CF839466CA8C9
:10A1200003F068F83EB1394640A803F063F83946B9
:10A1300082A803F05FF85FEA0A00AAF101011FFAA2
:10A1400081FAE3D1BDF88200ABF1010B2844ADF8F0
:10A150008200BDF88600401BADF88600BDF888007F
:10A16000002800E004E07DD0BBF1000FBEDC2DE054
:10A17000BBF1000F2ADD39462AA803F03BF88246DE
:10A1800039460AA803F036F839466CA803F032F8CD
:10A190003EB1394640A803F02DF8394682A803F0B5
:10A1A00029F8BAF1000F5DD0BAF10A0F0BD1BDF852
:10A1B0008200ABF1010B2844ADF88200BDF88600A7
:10A1C000401BADF88600BBF1000FD4DC0AA84FF0AD
:10A1D000000AA190CDE99CA8BDF88200ADF87802F4
:10A1E0009AA8CDE99F0439462AA803F003F8ADF8F0
:10A1F00064022EB1394640A802F0FCFFADF894028B
:10A20000DFF8B4820DF1A80BADF88CA2207C48B128
:10A21000BDF98600B0EB450FACBF0021012122A89B
:10A22000FFF7EEF8B9F1000F08BFE07B4AD0A6B304
:10A23000207CE8B947F6FF70CDE9050ACDF81CA0EF
:10A24000D8E90001CDE9030140A9A5A882AACDE97A
:10A25000000102923B46A3A92268A798FFF767FB7B
:10A26000207C00E07CE0002808BFBDF98C0201D012
:10A27000BDF8A20001B220793FB1012816D0002814
:10A2800004BFE07B08441DD01EE0012806D0E27B1D
:10A29000BDF884001144401A14E00FE0BDF98400B9
:10A2A000401A00EBD07040F34F000BE0BDF9840082
:10A2B000084400EBD07040F34F0003E0BDF8841079
:10A2C000E07B081AADF88C02207C002817BFBDF88F
:10A2D0009A0047F6FF709DF8A61000290CBF0021D8
:10A2E00001219CAA0792CDE90501D8E90201CDE937
:10A2F000030199A900916CA8CDE901B03B46A3A93F
:10A300002268A798FFF713FBBDF878122944ADF82F
:10A310007812BDF88610491B09B2ADF88610227C70
:10A32000002A18BFA9421BDB60B161790AA802F0BC
:10A3300061FF61796CA802F05DFF1EB1394682A809
:10A3400002F058FFBDF96A02BDF96E120144BDF971
:10A350007802814204DBBDF8640200287FF454AF28
:10A360000DF52B7DBDE8F08F70B58AB006460E98CE
:10A370001546012491B1CDE9003182B22B46314618
:10A3800002A828F093F9002102A8FFF739F8BDF8D8
:10A390000800002818BF641CF5D10CE011463046B7
:10A3A00002F028FF0A2808BF641C2946304602F044
:10A3B00021FF0028F6D10AB0A0B270BD10B59446B6
:10A3C000DDE902020C466146FEF7CCFF2188084415
:10A3D000208010BD2DE9FF4F87B00D46DDE916A4A2
:10A3E000DDE914CB206990461F4601685A46604655
:10A3F000FEF7B8FF0646BAF1000F26D0D8F80000E5
:10A400004169404688470090F8B1D8F800000099AB
:10A41000C268404690470246407B10F0800018BF5B
:10A420004FF48070917A40EA010906EB090086B288
:10A430002069007C042808D1D8F800000099C36B7B
:10A44000404698474844304486B22069407930B14C
:10A45000012802BF002F2888801B05D005E0012FAE
:10A4600004BF2888304400D128806069CDE903709A
:10A47000CDE905BAD4E903010095CDE90101D4E99C
:10A480000012B4F908300798FEF72DFE20694079D4
:10A4900050EA070104BF2888304408D0012803BFD0
:10A4A000012F2888801B0BB018BFBDE8F08F2880D3
:10A4B0000BB0BDE8F08F000098C70B0810B5FAF795
:10A4C0007BFE00220263FD494263016040F8382FA1
:10A4D00038382021C263016480F8442014460423E4
:10A4E0001A46F749483029F0A5FC04231A46F449D6
:10A4F000103029F09FFC58381221A0F86840A0F8CD
:10A500006A40A0F86C40A0F86E4001670481448165
:10A5100010BD2DE9F0410446806B236B616BC51AB9
:10A52000E06B8CB0A0EB0100024617D02AB3291EC5
:10A53000B8BF6942002AB4BF53420346002900F065
:10A54000C18093FBF1FC01FB1C33002B1CBF91FB72
:10A55000F3FC03FB1C11F1D100F0B5B8002AB8BF21
:10A5600042420DD163652365E36461662166E1655E
:10A57000A364A1650CB0BDE8F0812A1EB8BF6A4291
:10A580000146D4F840C0174601AB604604F088FD90
:10A59000022190FBF1F629463A466B46206C04F006
:10A5A0007FFD022190FBF1F594F84400002800F0B3
:10A5B000DC80236B981B401BA064626B5019801BCE
:10A5C000A065D4F838C0ACEB06002844E064E16B29
:10A5D00048193044E0650CEB060028442065481B10
:10A5E000304420669819401B6065501B801B6066D4
:10A5F000D4F848C0A36D614618464FF0010800BF6B
:10A6000004EB8807BA6C6245B8BF94468A42C8BF5B
:10A610001146BA6D9A42B8BF13468242C8BF10466F
:10A6200008F10108B8F1040FEADB0FFA8CF24FEAE7
:10A63000E27C02EBDC621BB24FEAE37C03EBDC63FF
:10A6400009B24FEAE17C01EBDC614FEA611C521177
:10A6500000B2C1175B1100EBD160ACEB020C0CF146
:10A66000010CC3EB6010401CADF81CC0ADF8182005
:10A67000ADF81E0006A9ADF81A3004F1680029F003
:10A68000A5FB94F8440001281CBF0CB0BDE8F08184
:10A69000226B901BA064616B4819A065D4F838C088
:10A6A000ACEB0600E064E36B5819E0650CEB0600C8
:10A6B0002065581B206690196065481B60660CB0C9
:10A6C000BDE8F081194601291CBF95FBF1F592FB0D
:10A6D000F1F0002DB4BF694229464BF204528A4280
:10A6E00005DA0028ACBF014641428A4228DB002D32
:10A6F000B4BF6942294692FBF1F10028B4BF43423E
:10A70000034692FBF3F29142A8BF11464D434843E2
:10A7100000FB00F205FB05210022B1F5803F2CBFB4
:10A720004FF0804C4FF4804C02EB0C03994224BF55
:10A73000C91A03EB0C0252085FEA9C0CF4D11FE724
:10A74000002DACBF2946694291FBF2F10028B4BF4D
:10A750004342034693FBF2F29142D8BF1146491C93
:10A7600095FBF1F590FBF1F0D2E7226B901BA06412
:10A77000616B4819A065A36B981BE064D4F83CC0DA
:10A780000CEB0500E06598192065ACEB0500206630
:10A7900090196065481B2AE7036B8B4202BF436B2D
:10A7A00093427047C0E90C12B3E62DE9F04304462A
:10A7B000006B0E4685B01546B04201BF606BA842E3
:10A7C00005B0BDE8F08320682146426F6846904797
:10A7D000C4E90C652046FFF79CFE20682146426FC5
:10A7E00002A89047BDF90C70002F1CBFBDF90E5098
:10A7F000002D41D0BDF90490B9F1000F1CBFBDF987
:10A800000680B8F1000F2BD0BDF90000BDF908108B
:10A810008842B4BF02460A461646BDF90220BDF979
:10A820000AC06245B4BF134663464844394400B287
:10A8300009B28842D8BF084602EB08010CEB0502BA
:10A8400009B212B29142D8BF1146ADF80060801B28
:10A85000ADF80400C81AADF80230ADF806000BE000
:10A86000BDF80800ADF80000BDF80A00ADF80470AE
:10A87000ADF80200ADF8065020686946026920462E
:10A88000904705B0BDE8F083836B8B4202BFC36B7A
:10A8900093427047C0E90E123BE62DE9F0430446AF
:10A8A000806B0E4685B01546B04201BFE06BA842F2
:10A8B00005B0BDE8F0832068214603E09CF40B0856
:10A8C0009D290708426F68469047C4E90E652046F7
:10A8D000FFF71FFE20682146426F02A89047BDF98E
:10A8E0000C70002F1CBFBDF90E50002D41D0BDF9DA
:10A8F0000490B9F1000F1CBFBDF90680B8F1000F3C
:10A900002BD0BDF90000BDF908108842B4BF024643
:10A910000A461646BDF90220BDF90AC06245B4BF19
:10A92000134663464844394400B209B28842D8BF4E
:10A93000084602EB08010CEB050209B212B2914283
:10A94000D8BF1146ADF80060801BADF80400C81AEE
:10A95000ADF80230ADF806000BE0BDF80800ADF828
:10A960000000BDF80A00ADF80470ADF80200ADF8C3
:10A9700006502068694602692046904705B0BDE848
:10A98000F08380F84410C4E590F844007047012932
:10A99000B8BF012102DBB429C8BFB42101677047E9
:10A9A0002DE9F0470A46B0B004460146684604F077
:10A9B0005FFC00202E90216BA06C626B401AA16D91
:10A9C000A1EB02012EAA0CD4002904DB28F014F814
:10A9D00000F15A0913E0494228F00EF8C0F15A0973
:10A9E0000DE0002905DB404228F006F8C0F5877924
:10A9F00005E04942404227F0FFFF00F587796846AD
:10AA0000A26DA16C04F0FEFD6846E26DE16C04F0FD
:10AA100071FE94F84400DFF8C4A24FF4B475012825
:10AA200066D1276FB42F63DAA9EB070898FBF5F01E
:10AA300005FB108000F5B47090FBF5F105FB1100EB
:10AA40005A28D8BF3AF8101014DDB428DCBFC0F182
:10AA5000B4003AF810100DDDB0F5877FDDBF0AEBCA
:10AA60004000A0F5B4700088C0F5B470C8BF3AF8D3
:10AA7000100041422FAB4FF400422E9804F010FB1F
:10AA80000646C8F15A0090FBF5F105FB110000F5F0
:10AA9000B47090FBF5F105FB11005A28D8BF3AF8C5
:10AAA000101014DDB428DCBFC0F1B4003AF8101067
:10AAB0000DDDB0F5877FDDBF0AEB4000A0F5B47077
:10AAC0000088C0F5B470C8BF3AF8100041422FABFF
:10AAD0004FF400422E9804F0E3FAE26BA16B121AD5
:10AAE0003144684604F006FE206F0744B42F9BDB18
:10AAF0006846226E216D04F0FDFD6846626E616D50
:10AB000004F0F8FD94F84400012869D1206FC0F1E9
:10AB1000B406002E64DD00BF09EB060898FBF5F0D3
:10AB200005FB108000F5B47090FBF5F105FB1100FA
:10AB30005A28D8BF3AF8101014DDB428DCBFC0F191
:10AB4000B4003AF810100DDDB0F5877FDDBF0AEBD9
:10AB50004000A0F5B4700088C0F5B470C8BF3AF8E2
:10AB6000100041422FAB4FF400422E9804F098FAA7
:10AB70000746C8F15A0090FBF5F105FB110000F5FE
:10AB8000B47090FBF5F105FB11005A28D8BF3AF8D4
:10AB9000101014DDB428DCBFC0F1B4003AF8101076
:10ABA0000DDDB0F5877FDDBF0AEB4000A0F5B47086
:10ABB0000088C0F5B470C8BF3AF8100041422FAB0E
:10ABC0004FF400422E9804F06BFA626B216B121A5C
:10ABD0003944684604F08EFD206F361A002E9BDC47
:10ABE000684604F0F6FD0446684604F094FC30B074
:10ABF0002046BDE8F0878A6E0260C96E41607047EA
:10AC00002DE9F8430C4605461746C2F534614FF46A
:10AC1000345091FBF0F200FB121101F5345191FB1D
:10AC2000F0F200FB1210C11700EBD16121F01F02FE
:10AC3000801A0FFA80F94FEA6118404627F0B2FEF9
:10AC40000646B9F1000F0AD008F1010027F0AAFE6C
:10AC5000801B6B462022494604F022FA304401460C
:10AC60006B464FF40042204604F01AFA696B0E1A44
:10AC70004FF4345097FBF0F100FB117101F53451A2
:10AC800091FBF0F200FB1210C11700EBD16121F033
:10AC90001F02801A0FFA80F94FEA6118404627F028
:10ACA00081FE0746B9F1000F0AD008F1010027F034
:10ACB00079FEC01B6B462022494604F0F1F9384466
:10ACC00001466B464FF40042204604F0E9F9296B37
:10ACD000324601442846BDE8F843DEE508FD0B088E
:10ACE000C17570472DE9F041DB4D0F4604462968D8
:10ACF000164691F8760000281ABFC86C00288868AC
:10AD000001680A6B394690472075296891F87600EA
:10AD100000281ABFC86C0028886801684A6B394649
:10AD200090476075296891F8760000281ABFC86CB2
:10AD30000028886801688A6B39469047A075E675D7
:10AD4000BDE8F0812DE9F04116460F46F8F742F8CC
:10AD5000C14DC24901602968044691F87600002877
:10AD60001ABFC86C002888680168496A88470128AA
:10AD70000CBF4FF001084FF000082868C06C38B1D4
:10AD80000168496A8847012818BF002040EA08087E
:10AD9000B8F1000F2CD0B2482060296891F87600F5
:10ADA00000281ABFC86C0028886801680A6B3946F9
:10ADB00090472075296891F8760000281ABFC86C62
:10ADC0000028886801684A6B394690476075296891
:10ADD00091F8760000281ABFC86C002888680168BE
:10ADE0008A6B39469047A0752046E675BDE8F0812C
:10ADF000AFF3008010B5017D427D837D9648D0F889
:10AE000000C0BCF1000F0FD09CF8760000281ABFDC
:10AE1000DCF84C000028DCF80800D0F800C0DCF8B2
:10AE20002CC0BDE810406047AFF30080C07D704784
:10AE30002DE9F0011A4402EB4202DDE9064C11440F
:10AE4000037AC27D13FB02F5012606EB152513FBE1
:10AE50000252C2F30722FF2A77D0002A04BFBDE8BE
:10AE6000F00170471CF8013B0E78534303EB1323AA
:10AE70005B1CC3F30723877DC3F1FF0517FB03F7B3
:10AE800016FB0576B6B206EB1626761C360A01F8D6
:10AE9000016B477D0E7817FB03F716FB0576B6B2FC
:10AEA00006EB1626761C360A01F8016B077D0E7834
:10AEB00017FB03F316FB05339BB203EB13235B1C59
:10AEC0001B0A012701F8013B2646012C9CBFBDE867
:10AED000F00170471CF8013B0D78534303EB13233B
:10AEE0005B1CC3F3072390F81680C3F1FF0418FB23
:10AEF00003F815FB0485ADB205EB15256D1C2D0A75
:10AF000001F8015B90F815800D7818FB03F815FB2C
:10AF10000485ADB205EB15256D1C2D0A01F8015B0A
:10AF200090F814800D7818FB03F315FB04339BB2E3
:10AF300003EB13235B1C1B0A7F1C01F8013BBE4281
:10AF4000C8D8BDE8F0017047FFE71CF8012BFF2AC5
:10AF50005ED0867D0D78C2F1FF03564305FB036585
:10AF6000ADB205EB15256D1C2D0A01F8015B467D80
:10AF70000D78564305FB0365ADB205EB15256D1C39
:10AF80002D0A01F8015B067D0D78724305FB032253
:10AF900092B202EB1222521C120A01F8012B621E1D
:10AFA0000124551C012D9CBFBDE8F001704700BF76
:10AFB0001CF8012BFF2A35D0877D0E78C2F1FF03E4
:10AFC000574306FB0376B6B206EB1626761C360A06
:10AFD00001F8016B477D0E78574306FB0376B6B246
:10AFE00006EB1626761C360A01F8016B077D0E78F3
:10AFF0007A4306FB032292B202EB1222521C120A7F
:10B0000001F8012B641CAC42D2D3BDE8F0017047BB
:10B01000827D01F8012B427D01F8012B027D01F8B0
:10B02000012BBCE7827D01F8012B427D01F8012B49
:10B03000027D01F8012BE5E710B4047DDDF804C0C2
:10B040000C70417D1170817D1970C07D8CF80000FD
:10B0500010BC0120704700003419002014F10B08C7
:10B06000C0EE0B082DE9F043064690F837008BB090
:10B07000002896F82C000F4606D000280CBF708ED2
:10B08000706B06D0009006E0002814BF306BF08D86
:10B09000F8D1ADF80000BDF800000890002408A821
:10B0A000F8F7CDFD05B208A8F8F7ECFD02B2ADF84F
:10B0B0001040ADF81450ADF81240ADF81620B7F9B5
:10B0C0000010B7F904004FF001080B18002BC4BFA3
:10B0D00004EB050C8C456ADDB7F90200B7F90650A0
:10B0E00000EB05092546A145C4BF224482425EDD2E
:10B0F0008C42D8BF0D4621468442C8BF08460FFA8D
:10B100008CF11BB29942A8BF1946491BADF8141027
:10B1100011B27A88FB881A4412B29142A8BF114634
:10B12000091AADF81050ADF81610ADF812008A48A3
:10B130000068002844D0BDF82000A0F57F41FF3909
:10B1400019BFBDF8140000280BB0BDE8F083BDF8AE
:10B150001600002804BF0BB0BDE8F083ADF818401E
:10B16000ADF81C40ADF81A40ADF81E40306806A995
:10B17000426A304690477948016891F87600002885
:10B180001ABFC86C0028886896F8361004AACDE962
:10B190000021CDF808800168BDF91A30BDF91820EA
:10B1A000D1F80CC008A9E0470BB0BDE8F083ADF8BA
:10B1B0001040ADF81440ADF81240ADF81640B6E7B7
:10B1C000AFF3008070B590F837600D46044680F804
:10B1D000371036EA05001CBFE06B002808D0016874
:10B1E000C968884720B1E06B01688A6821469047AA
:10B1F00035EA06001CBFA06A002808D00168C968AB
:10B20000884720B1A06A01688A6821469047206873
:10B2100041692046BDE87040084770B5044690F883
:10B220002C5008790E4600280CBF0120002084F81D
:10B230002C0008B11DB109E0002D08BF70BD2068C9
:10B24000416920468847002D08BF70BD307901282C
:10B2500018BF70BD94F8380020B394F8375085F0CB
:10B26000010684F8376035EA06001CBFE06B002851
:10B2700008D00168C968884720B1E06B01688A6816
:10B280002146904736EA05001CBFA06A002818D066
:10B290000168C9688847A0B1A06A01688A68214628
:10B2A00090470EE094F83700002818BF70BD0120C9
:10B2B00084F83700A06A20B10168C968884700286F
:10B2C000EAD1206841692046BDE87040084710B5C2
:10B2D000044609880298E1851188218619886186CB
:10B2E0000088A08604F12E00F8F7A9FC208104F163
:10B2F0002E00F8F7C7FC608110BD00B591F836202C
:10B3000083B0FF2A0BD24FF0000CA0F800C0A0F8C9
:10B3100002C0A0F804C0A0F806C003B000BD91F8B8
:10B320003720002A91F82C2006D0002A0CBF498E25
:10B33000496B06D0009106E0002A14BF096BC98D45
:10B34000F8D1ADF80010BDF80010019101A9F8F78F
:10B35000BCFC03B000BD000004190020341900201B
:10B3600070B50446FE482060002525816581A581D1
:10B37000E58125826582A582211DE582A5618D6119
:10B38000CD6181F82450012281F82520F54B8D6292
:10B390000B602563A586F448E58684F8382000888C
:10B3A000002206B2F1481146008805B26068436B7E
:10B3B000201D984760683146826B201D9047606869
:10B3C0002946C26B201D9047204670BDE64900B556
:10B3D0000A88E64983B04FF0000C0988ADF800C038
:10B3E000ADF80420ADF802C0ADF8061001688A6817
:10B3F0006946904703B000BD2DE9F041804688883A
:10B4000090B014460D46002819BFE888002810B0F7
:10B41000BDE8F081B4F90C00401C13D12189638987
:10B420000022ADF80820ADF80C10ADF80A20ADF8F8
:10B430000E30206802A9026A20469047DDE9021218
:10B440002261E160B5F90020B5F9041004F10C00A7
:10B450005318B4F90C108B4221DDB0F904301944B3
:10B4600091421CDDB5F90220B5F906105318B0F968
:10B4700002108B4213DDB0F90600084490420EDD45
:10B48000E069002800F0DE8020682146C26806A836
:10B490009047B4F920000AAF401C06D00FE0E469E1
:10B4A000002CB7D110B0BDE8F08121466846FAF70C
:10B4B00050FCBDF800102184BDF802106184208C7E
:10B4C000BDF81810084406B2B4F92200401C09D196
:10B4D000214602A8FAF73DFCBDF808102184BDF80A
:10B4E0000A106184608CBDF81A10BDF81E2001445A
:10B4F000BDF81C00ADF82C00ADF82860ADF82A109E
:10B50000ADF82E2039462A4608A828F000FADDE9D1
:10B510000801CDE90E01B4F90C00401C13D12089BB
:10B5200062890021ADF80810ADF80C00ADF80A10E2
:10B53000ADF80E20206802A9026A20469047DDE996
:10B5400002122261E16004F10C020EA908A828F0A1
:10B55000DEF9DDE90867B5F9002030B290420ED17E
:10B56000B5F902103014884209D1B5F9041038B287
:10B57000884204D1B5F906103814884262D038B236
:10B58000002818BF5FEA274061D0B5F902103014D7
:10B5900088420EDDAB88401AADF81820ADF81C309B
:10B5A000ADF81A10ADF81E0006A94046E269FFF793
:10B5B00023FFB5F9001030B288420FDD421A38146B
:10B5C000ADF81810ADF81C203314ADF81E00ADF81E
:10B5D0001A3006A94046E269FFF70EFFB5F90000F0
:10B5E000B5F904103AB2014430B2104481420FDD83
:10B5F0000B1A3914ADF81800ADF81C303214ADF840
:10B600001E10ADF81A2006A94046E269FFF7F4FEC5
:10B61000B5F90200B5F906100844311401EB2741D1
:10B6200088420FDD2A88AB88401AADF80820ADF8B3
:10B630000C30ADF80A10ADF80E0002A94046E269E0
:10B64000FFF7DAFEB4F90C00401C1AD105E02946D8
:10B650004046E269FFF7D0FEF4E7218960890023C4
:10B66000ADF80830ADF80C10ADF80A30ADF80E00AA
:10B67000206802A9026A20469047DDE90212226191
:10B68000E16004F10C02294606A828F040F9DDE942
:10B690000601CDE90401BDF81400002819BFBDF86A
:10B6A0001600002810B0BDE8F081B4F92000401C5D
:10B6B00009D121466846FAF74CFBBDF800102184F9
:10B6C000BDF802106184208CBDF81010081AADF886
:10B6D0001000B4F92200401C09D121466846FAF74F
:10B6E00038FBBDF800102184BDF802106184608C25
:10B6F000BDF81210081AADF81200206804A982687B
:10B700002046904710B0BDE8F08138B504460020CF
:10B7100000900D466A46201DFAF799F8009A002A13
:10B7200008BF38BD29462046FFF766FE38BD30B554
:10B730000A4685B0044600F1080102A828F0E7F89F
:10B74000DDE90201CDE9000194F83800D8B100200C
:10B750006D46029002AA2946201DFAF778F807E004
:10B76000A0F50B0894FB0B082A1900202C190020C7
:10B77000029A002A04BF05B030BD29462046FFF7D3
:10B780003BFE05B030BD6946201DF9F74EFF05B000
:10B7900030BD2DE9F34F99B00C461998016B207913
:10B7A00029B1002804BF1BB0BDE8F08FB9E0002824
:10B7B0007ED1D0480025006890F84900189019986B
:10B7C00085861998C5861898042872DB1998056330
:10B7D0001898401E0B28C8BF032004DCC64981FB13
:10B7E0000010A0EBE07017904FF0FF301390002096
:10B7F000034602461290C148C14963F30F06008810
:10B80000098860F30F0762F31F4661F31F47482260
:10B81000BC49684606F0A2FC17984FF001080128C1
:10B8200078DB1898A8F1010508FB00F11798092D9D
:10B8300091FBF0F95EDA00201690684600EBC50037
:10B840003DF83510808801FB09F100FB09F00FFA83
:10B8500080FA0FFA81FB2089E1885044594402B2F2
:10B8600009B230B2884242DC3BB2034499423EDA2C
:10B87000301482423BDB00EB2743934237DD1998BB
:10B8800016AB001DF9F79DFE169900291CBF1298F2
:10B8900081422CD014A8FAF75CFABDF95400BDF926
:10B8A000501000EBD07001EB6000B4F9061001E01D
:10B8B00030E025E0091ABDF95600BDF9522000EB31
:10B8C000D07002EB6000B4F908204943101A00FB65
:10B8D0000010139988420AD21699CDE912101998CE
:10B8E00001631998A0F834B01998A0F836A0AD1CDF
:10B8F000092DA0DB179808F10108804591DD09E0CA
:10B900001998B4F9082000F13003B4F90610001DAD
:10B91000F9F757FE1998006B002804BF1BB0BDE86B
:10B92000F08F1998016B04A8FAF713FA199AE088B6
:10B93000199B928E21791044BDF81020DB8E821A5B
:10B940002089DFF8C4C11844BDF81230CDF800C01A
:10B95000C01AADF80800199800238DF80410ADF84E
:10B960000620ADF80A30006B01684A6C69469047C2
:10B970002079002804BF1BB0BDE8F08F0020199982
:10B980000863199988861999C8861BB0BDE8F08F9D
:10B990002DE9F0410C46016B8EB00546002904BF2D
:10B9A0000EB0BDE8F08102A8FAF7D3F9E088B5F946
:10B9B0003480DDE902C1404403B22089B5F9367014
:10B9C0000FFA8CF2384400B29A422CDC0EB21644C4
:10B9D000B34228DA4FEA2C43984224DB03EB214C94
:10B9E000604520DA6089404401B2A0898A42384427
:10B9F00000B2D8BFB14203DA984201DB604512DBE6
:10BA000002230020DFF800C18DF80430ADF80800F3
:10BA1000CDF800C0ADF80600ADF80A00286B01684B
:10BA20004A6C694690470AA8296BFAF792F9E088B0
:10BA3000AF8EB4F80A80C119BDF82800EE8E0A1A3C
:10BA400021892379A489BDF82AC03144A1EB0C01D6
:10BA50003444A4EB0C0C4744381A2C4C8DF81C30A1
:10BA6000ADF820100694ADF81E20ADF82200ADF818
:10BA700024C0286B0168CA6C06A990470EB0BDE8C7
:10BA8000F08130B50C46016B87B00546002904BF34
:10BA900007B030BD04A8FAF75CF92089AA8EB5F882
:10BAA00036C01044BDF810202379801A6289E188DD
:10BAB0006244BDF812C08DF80430A2EB0C02DFF82E
:10BAC00050C0ADF80800CDF800C0ADF80610ADF8D4
:10BAD0000A20286B01688A6C6946904707B030BD20
:10BAE0000A4609684B69011D1046184780F838104E
:10BAF0007047000034190020565555552A1900206A
:10BB00002C190020A8C70B08B4E90B0824FC0B086B
:10BB100058ED0B0870B500248480C48004814481F2
:10BB20008481C4810482448244618461C46180F858
:10BB30002440012680F82560FE498462254640F8AD
:10BB40002C1BFAF771F9A0F84C50A0F12C04A0F8C6
:10BB50004E50A0F850500A20A4F87E00A4F88000AF
:10BB6000A4F88250F448C4F884001E20A4F8880089
:10BB7000C4F88C50C4F89050C4F89450C4F898504D
:10BB800084F89C50C4F8A050C4F8A450C4F8A8503D
:10BB9000C4F8AC50A4F8B050A4F8B250C4F8B450F3
:10BBA00084F8B85084F8B95004F12C012046F9F714
:10BBB0009DFCE06A0021C26A04F12C009047E06A13
:10BBC0000021026B04F12C009047002104F12C00AD
:10BBD000FAF7FDFA002104F12C00FAF706FB84F8CD
:10BBE0002460204670BD01812C30FAF7ECBA418107
:10BBF0002C30FAF7EABA80F8B810704780F8B9101C
:10BC0000704780F8B91081F0010280F8B8202C301C
:10BC1000FAF7DDBA2C30FAF7E5BA2C30FAF7E5BAC4
:10BC20002C30FAF7EDBA01EB4203A0F87C302C304F
:10BC3000FAF7E9BA2C30FAF7EEBA2C30FAF7F2BA82
:10BC400070B5044600680D46D0F8A4102046884719
:10BC5000A84208BF70BD294604F12C00FAF7F0FA9B
:10BC60002068D0F8941020468847002818BF70BD7F
:10BC70002068D0F8B8102046884722680146204640
:10BC8000D2F8C03000229847014620684FF0FF32BA
:10BC9000D0F8C8302046BDE8704018472C30FAF77D
:10BCA000D1BAC0F884107047A0F888107047B0F877
:10BCB00088007047A0F87E107047B0F87E0070478B
:10BCC000A0F882107047B0F882007047A0F880108A
:10BCD0007047B0F88000704770B50446006815469C
:10BCE000D0F8BC2020469047002DB8BFB4F888504B
:10BCF0002AB2236801462046D3F8C830BDE8704018
:10BD00001847C0F88C107047C0F894107047C0F8FE
:10BD10009810704790F89C00002818BF01207047C9
:10BD200010B5044690F89C0001280BD1F7F764F891
:10BD30002146F7F75DFE2068D4F8AC10D0F8B420A7
:10BD400020469047002084F89C0010BD70B5044642
:10BD500090F89C000D4601280BD1F7F74DF82146CD
:10BD6000F7F746FE2068D4F8AC10D0F8B42020468F
:10BD70009047022084F89C002068D0F8B810204634
:10BD8000884706462068D0F88C102046884700284F
:10BD900019BF6889E988A8892989A0EB0100B4F84E
:10BDA000801000B200FB01F0644981FB00104FEAF3
:10BDB000A001A1EBE07006EB0001B4F97C0000EB00
:10BDC00040004FEAE07200EB927040F38F0220686F
:10BDD000D0F8C03020469847226801462046D2F865
:10BDE000B420BDE87040104770B5044600680D46A9
:10BDF0000E79D0F88C102046884780F001008642EA
:10BE000018BF70BDB5F906000028BDBF404200B2A2
:10BE10004FF0FF360126A0F104010129B4BF012033
:10BE2000001FC0EBC00005B22068D0F8B810204653
:10BE30008847B4F87E1006FB05F251433F4A82FB67
:10BE400001218A10A2EBE1710144B4F8820068B1CB
:10BE5000B4F97C30D4F8B4C000FB03C28A42D8BF26
:10BE6000114600FB13C08842A8BF0146206800228B
:10BE7000D0F8C03020469847B4F88820AA42D8BFEE
:10BE800015462AB22168D1F8C83001462046BDE8DF
:10BE90007040184770B5054600680C46D0F8A410ED
:10BEA00028468847002819BFB5F97C10002920468C
:10BEB00070BD414394FBF1F001FB10400028C8BF66
:10BEC000401A70BD70B5044690F89C00012818BF58
:10BED00070BDD4F8A000401CC4F8A000B4F8AC10A9
:10BEE000B4F8A820D4F884C0891A0AB2B4F8A4100F
:10BEF00080B28BB20021E047D4F8A810014420683A
:10BF0000D0F8B42020469047D4E928018842D8BF11
:10BF100070BD002084F89C00C4F8A000F6F76CFF08
:10BF20002146F7F765FD2068D0F8B810204688470D
:10BF3000054605E0C8E90B080D65040867666666F6
:10BF40002068D0F8A4102046884700281ABFB4F90A
:10BF50007C100029284607D0414395FBF1F001FBF6
:10BF600010500028C8BF401A2168D1F8B4200146FB
:10BF700020469047D4F89400002808BF70BD01689F
:10BF8000C9688847002808BF70BDD4F894000168CC
:10BF90008968BDE87040084709B22C30FAF71CBA2E
:10BFA000B0F97A202C301144F9F767BF10B5044678
:10BFB0002C30FAF74AF9B4F97A10401A10BD70B56E
:10BFC0000446B0F87C000D46002804BF084670BD4A
:10BFD0002068D0F894102046884788B1B4F97C00D6
:10BFE000002D00EBD07105DAA5EB610191FBF0F1BA
:10BFF000484370BD05EB610191FBF0F1484370BD12
:10C00000206800222946D0F8C030204698470146D3
:10C01000B4F97C0000EBD072A1EB620191FBF0F16E
:10C02000484370BD70B5044600681546D0F8C4207A
:10C03000204690470646002DB8BFB4F98850012D20
:10C04000206806DAD0F8B42031462046BDE87040BA
:10C050001047D0F8B81020468847C4E92A060020C7
:10C06000C4E9280594F89C00012808BF70BDF6F7C4
:10C07000C3FE2146F7F77CFC012084F89C0070BDCC
:10C0800010B5FFF747FDF54901600021A0F8BA108F
:10C0900080F8BC100121C0F8C01010BD70B5164664
:10C0A0000D460446FFF73CFE2868C16828468847CD
:10C0B000A4F8780033460022294604F12C00FAF750
:10C0C000B7F820680021D0F8B4202046BDE87040C1
:10C0D000104710B50129B8BF01210446C0F8C010AF
:10C0E0000168D1F8B8108847226801462046D2F886
:10C0F000C03000229847014620684FF0FF32D0F848
:10C10000C8302046BDE81040184770B504460068A6
:10C110000E461546D0F8B81020468847A4F87A6035
:10C1200001B2A4F8BA502068D0F8B4202046904755
:10C1300004F12C00BDE87040F9F7CDBFB0F97A00EA
:10C140007047B0F9BA00704780F8BC10002908BFEA
:10C15000704710B501680446D1F8B81088472268C6
:10C1600001462046D2F8C420904701462068D0F806
:10C17000B4202046BDE81040104790F8BC0070473E
:10C1800070B504460879F0B1012818BF70BD94F865
:10C190009C0000287BD0022818BF70BD2068D0F812
:10C1A000B81020468847226801462046D2F8C420AD
:10C1B0009047014620684FF0FF32D0F8C830204643
:10C1C000BDE870401847C888A4F8B0000889A4F8F2
:10C1D000B2002068D0F8B810204688470146C4F85D
:10C1E000B4002068D0F8C420204690472268014659
:10C1F0002046D2F8B42090472068D0F88C10204612
:10C200008847002814BFB4F9B050B4F9B250206880
:10C21000D0F8B81020468847411B2068D0F8C420C9
:10C2200020469047404205B22068D0F8A41020462E
:10C230008847B4F87C10484306B22068D0F89410C0
:10C240002046884728B1A81900B290FBF6F106FBFA
:10C250001105002DA8BFAE42D8BF70BDB4F97C0057
:10C2600095FBF0F005B2D4F89800002808BF70BD27
:10C270000168C9688847002808BF70BDD4F89800D5
:10C2800001688A682946BDE870401047FFE72068CA
:10C29000D0F8B81020468847226801462046D2F8D8
:10C2A000C420904701462068D0F8B420204690472B
:10C2B0002068D0F88C1020468847002814BFB4F9B5
:10C2C000B050B4F9B2502068D0F8B8102046884772
:10C2D000411B2068D0F8C42020469047404205B258
:10C2E0002068D0F8A41020468847B4F87C10484352
:10C2F00006B22068D0F894102046884728B1A819C3
:10C3000000B290FBF6F106FB1105002DA8BFAE426E
:10C31000D8BF70BDB4F97C0095FBF0F005B2D4F83D
:10C320008C00002808BF70BD0168C96888470028D4
:10C3300008BF70BDD4F88C0001688A682946BDE842
:10C34000704010472DE9F047054600688846D0F850
:10C35000B8102846884701462846FFF79BFD04464B
:10C36000B8F1000F79DB05F12C00F9F76BFF4045C0
:10C3700073DDB5F97C0000286FD0C8F1000100FB27
:10C3800001F72868D0F88C102846884700280CBF91
:10C39000B5F90A00B5F90800B5F87A10B5F8BA2071
:10C3A0001144401A0FFA80FA05F12C00F9F728FF22
:10C3B000002818BF264653D031462846FFF76AFDAD
:10C3C0004142B5F97C0091FBF0F109B288455FD09C
:10C3D000361AAAEB0000201A8642EDDA05F12C008D
:10C3E000F9F730FF0146B5F97C0011FB00F907EBC6
:10C3F0000901A1EB0408AAEB0000211A3E1B284604
:10C40000FFF748FD0146A7EB0902C01B891AB8F1E6
:10C41000000FACBF4246C8F10002002EB4BF734209
:10C4200033469A42B8BF46460029B4BF4A420A463C
:10C430000028B4BF434203469A42B8BF08460028CA
:10C44000B4BF41420146002EB4BF7242324691420F
:10C45000B4BF201AA019BDE8F08719E09CEA0B08C8
:10C46000BC42B8BF3846F6DBB5F97C109AFBF1F058
:10C4700002B23846002A09DD95F8BC00002819BF31
:10C48000501E00FB017007EB0A00401A8442E2DCF8
:10C490002046E0E770B5044690F8BC000D4620B198
:10C4A0002046BDE87040FFF78ABD2068D0F8942090
:10C4B0002046904700281CBF284670BD20682946AA
:10C4C0000022D0F8C0302046BDE87040184770B553
:10C4D000044600680D461646D0F89410204688475A
:10C4E000E8B9B542A8BF35462068D0F8A410204668
:10C4F0008847D4F8C0108842D8BF002007DD2068E4
:10C50000D0F8A41020468847D4F8C010401AB4F9D7
:10C510007C1001FB00604042A842A8BF05462846A7
:10C5200070BD00000FB42DE9F047FB4F044698B0F2
:10C5300038680DF1880A48B3DFF8E083E18CB8F879
:10C540000020914222D2DFF8D89310F81100D9F8D8
:10C55000001051F820603068016B3046884705B202
:10C5600002A800F06AFB3068416C304688470346F9
:10C57000524602A8219900F091FBB4F908003A68EC
:10C5800022B1E18CB8F80030994201D3AFF30080BA
:10C5900012F81130D9F800C002EB410149785CF87B
:10C5A00023300090C1F3810294F8311002A8FDF706
:10C5B000DBFEB4F92C1000B24A19002A05DD00FB9D
:10C5C00005F2401E00FB012502E00028D8BF00252F
:10C5D00028B218B0BDE8F0075DF814FB10B5C18CA7
:10C5E0000446A1F57F40FF3808BF10BDCA48006867
:10C5F00018B1CA480088814201D3AFF30080C9480E
:10C60000006827F0D7F901462046BDE8104089E7C9
:10C610002DE9F041C18C0646A1F57F40FF3808BFE7
:10C62000BDE8F081BC4D2868A0B1BC4F3A8891426A
:10C6300010D2BB4A10F81100126852F82040B948D5
:10C64000006827F0B7F92968024619B1F08C3B88D9
:10C65000984201D3AFF3008001EB40004078C0F373
:10C6600081012068C3692046BDE8F04118472DE9E3
:10C67000F04F0446C08C0F46A0F57F418BB0FF39C8
:10C6800004BF0BB0BDE8F08FA3490968B9B3A34A52
:10C690001388984233D2A24A11F81000126852F857
:10C6A0002000002804BF0BB0BDE8F08F94F82EA046
:10C6B000E28CB4F82C9001EB420194F83080497878
:10C6C00094F82F5094F831C0D4F828B001F0030248
:10C6D000C1F381018DF826A08DF81C208DF81D1066
:10C6E000ADF82490CDF820B006908DF81E808DF81E
:10C6F00027508DF828C0E18C0026994201D3AFF372
:10C7000000808848006827F055F90546214604A8AE
:10C71000F9F71FFB8448016891F8760000281ABFDA
:10C72000C86C0028886806A90091CDE90156DDE9AA
:10C7300004123B460396FCF7A8F90BB0BDE8F08F56
:10C7400070B50446C08CA0F57F41FF3908BF70BDAD
:10C750002068016F2046884705462068C16E204644
:10C76000884786B294F83000002818BF0228206855
:10C77000826B09D031B220469047206829B2C26B43
:10C780002046BDE87040104729B2204690472068F7
:10C7900031B2C26B2046BDE87040104773B5BDF89A
:10C7A0000410C1840189002907BF4189002902B012
:10C7B00070BD0446C08CA0F57F41FF3904BF02B0B4
:10C7C00070BD2068016F2046884705462068C16E0D
:10C7D0002046884786B294F83000002818BF022807
:10C7E0002068826B0AD031B220469047206829B277
:10C7F000C26B02B02046BDE87040104729B2204607
:10C800009047206831B2C26B02B02046BDE870404C
:10C8100010472DE9F0410446C08CA0F57F41FF3957
:10C8200008BFBDE8F0813C49096819B13B4A12884C
:10C83000904201D3AFF3008001EB4000407800F05C
:10C8400003052068016F2046884706462068C16EB0
:10C850002046884787B294F83000002818BF022885
:10C8600006D001283BD0032808BF022D67D037E04F
:10C8700050EA05010FD0022808BF022D1AD02189E5
:10C88000A088012DA1EB06010AD0084401B220685E
:10C89000C26A2046904794F83000022813D109E07C
:10C8A00001EBD17100EB610001B22068C26A204641
:10C8B0009047F0E76089E188C01B084401B2206816
:10C8C000026B20469047206831B2826B2046904729
:10C8D000206839B2C26B2046BDE8F0411047D5B19F
:10C8E0006189E088012DA1EB06010AD0084401B25C
:10C8F0002068026B2046904794F8300001281ED132
:10C9000014E001EBD17100EB610001B22068026B11
:10C9100020469047F0E709E038190020441900202C
:10C92000401900203C190020341900202089A188DA
:10C93000C01B084401B22068C26A204690472068A4
:10C9400039B2826B20469047206831B2C26B2046D4
:10C95000BDE8F041104710B50446C08CA0F57F41FA
:10C96000FF3908BF10BD2068C16E2046884794F883
:10C97000301080B2002918BF0229216805D08A6BC7
:10C9800001B22046BDE810401047CA6B01B22046F4
:10C99000BDE81040104700000FB42DE9F0470446F1
:10C9A000C08C98B0A0F57F41FF3901BF002018B0BE
:10C9B000BDE8F0075DF814FB0DF1880A294F3968CE
:10C9C00041B3DFF8A480B8F80020904222D2DFF80B
:10C9D0009C9011F81000D9F8001051F820603068D0
:10C9E000016B3046884705B202A800F026F930688E
:10C9F000416C304688470346524602A8219900F010
:10CA00004DF9B4F908003A6822B1E18CB8F8003069
:10CA1000994201D3AFF3008012F81130D9F800C069
:10CA200002EB410149785CF823300090C1F38102A8
:10CA300094F8311002A8FDF797FCB4F92C1000B25D
:10CA40004A19002A05DD00FB05F2401E00FB012506
:10CA500002E00028D8BF002528B218B0BDE8F007D2
:10CA60005DF814FB381900204419002040190020FB
:10CA700070B50446FA4D606838B92168002931D094
:10CA800028680268126B90476060207C80B1E06883
:10CA900000281FBF01880029811CE16001D00088A7
:10CAA00070BD00202074286821680268126B9047CE
:10CAB00060680188B1B102291CBF811C6160EED1A0
:10CAC000801C6060A16828680A1DA260026809686D
:10CAD000126B9047E06000281FBF008800280120EB
:10CAE0002074C7E7002070BD2DE9F04704464FF0E1
:10CAF0000108DC4F1BE08288491EBCF10A0F30F8A8
:10CB0000123028EA02028280C18004F11A005BD24E
:10CB1000818A6144A7FB01C2D208524202EB820221
:10CB200001EB420120F81130C18A491CC182B4F8DE
:10CB300030C0BCF10A0F08BFBDE8F087218F002983
:10CB400018BF04F13200D6D1C54E8946606804F1A1
:10CB50001A0538B92168002938D030680268126B8C
:10CB600090476060207C80B1E06800281FBF01888A
:10CB70000029821CE26001D0008822E084F8109035
:10CB8000306821680268126B904760680188E9B1DB
:10CB900002291CBF821C6260EED1811C6160A16809
:10CBA00030680B1DA36002680968126B9047E06053
:10CBB00000281EBF0088002884F810802046FFF758
:10CBC00057FFE98A0A2903D3AFF300804846F8E704
:10CBD000AA8A1144A7FB0132D208524202EB820218
:10CBE00001EB420125F81100E88A401C80B2E8827E
:10CBF0000A28ABD1BDE8F08710B50446002060607C
:10CC0000E06020742086208320872046FFF76CFF99
:10CC10009548016851B1426804EB620012F0010FBF
:10CC200001D002685158BDE810400847426812F030
:10CC3000010F18BF002AEED110BD10B50446002028
:10CC400020606060E0602074E0822083E0852086C0
:10CC5000E0862087E063A4F84E00A4F85000A4F812
:10CC60005200012184F8541084F855002046FFF743
:10CC70003BFF7D4A116851B1526804EB620012F02B
:10CC8000010F01D0026851588847204610BD5068F6
:10CC900010F0010F18BF0028EED1F6E710B5C363FE
:10CCA0008260016000214160C160017401860183DE
:10CCB00004460187FFF718FF6B48016851B14268CD
:10CCC00004EB620012F0010F01D002685158BDE878
:10CCD00010400847426812F0010F18BF002AEED139
:10CCE00010BD70B505461A30C18A002929D0818A45
:10CCF0005C4A30F81140491CA2FB0132D208524272
:10CD000002EB820201EB42018182C18A491EC1828B
:10CD10002846FFF7E9FE288B022801D1012129834B
:10CD2000298B05F11200491C02290AD80179491EF4
:10CD300001F001018180C188491C89B2C1800029AC
:10CD400001D8AFF30080027902F0010220F812400E
:10CD5000204670BD2DE9F047424D8A423ED9A2EBF4
:10CD6000010C1FFA8CF70026002F37D9048E00F132
:10CD70001A0C002C63D0641EA4B2ACF81640BCF8A8
:10CD800014804444A5FB04984FEAD808C8F1000871
:10CD900008EB880804EB4804B0F838803CF814C06D
:10CDA00008F1010900F13204B9F1020F47D894F8F3
:10CDB00004801FFA89F9A8F1010808F00108A4F815
:10CDC0000480A4F80690B9F1000F38D924F818C0EF
:10CDD00006F1010C1FFA8CF6B742C7D8048E00F199
:10CDE0001A0CA1422BD8BCF814400C44A5FB0476C5
:10CDF000F608764206EB860604EB4604ACF81440CF
:10CE0000BCF81640611AACF8161032B3511E8AB243
:10CE1000048E33F812C0661C00F11A010A2E0ED8D7
:10CE20008C8A0934A5FB0487FF087F4207EB87073C
:10CE300004EB4707B4B28F82CC82002C01D8AFF349
:10CE40000080A5FB0764E408644204EB840407EB5C
:10CE50004404002A21F814C0D8D1BDE8F04743E6C5
:10CE600034190020CDCCCCCCB41500202DE9F047EE
:10CE70004FF0000CDDF82080002A88BF078B19D9FD
:10CE8000A2EB0C04641E31F8026BA4B200F112058F
:10CE9000A7421BD995F8049089EA040404F0010420
:10CEA00035F81440A64225D10CF1010C1FFA8CFC78
:10CEB0009445E5D3002213EB080622D0058EFE4FE1
:10CEC00031F8024B00F11A03954201D8AFF300800C
:10CED000B3F8148008EB020CA7FB0C984FEAD808B3
:10CEE000C8F1000808EB88080CEB480C33F81C303C
:10CEF0009C4202D00020BDE8F087521C92B29642BC
:10CF0000DED80120BDE8F0872DE9F74FDFF8A8B3A0
:10CF100082B000BF31F8022BDDF810C0130B31F8DE
:10CF20001340644503D005B00020BDE8F08FC2F384
:10CF30000327C2F3031902F00F02CDE900920A465B
:10CF40004FF0000C002B88BFB0F818801AD900BF32
:10CF5000A3EB0C04641E32F8026BA4B200F11205BC
:10CF6000A0457DD995F804A08AEA040404F00104E0
:10CF700035F81440A64274D10CF1010C1FFA8CFC58
:10CF80009C45E5D3B9444FF0000CB9F1000F88BFC0
:10CF9000B0F830801ED900BF32F8026B00F11A04DD
:10CFA000E0455DD9B4F814A00AEB0C05ABFB05EA2B
:10CFB0004FEADA0ACAF1000A0AEB8A0A05EB4A05C7
:10CFC00034F81540A6424CD10CF1010C1FFA8CFC30
:10CFD000E145E1D803EB070CDDE90032634401EBE6
:10CFE0004304BA4237D9D11B8BB20026002B32D969
:10CFF000B0F830C000F11A01BCF1000F62D0ACF102
:10D00000010C1FFA8CFCA1F816C08D8AAC44ABFB56
:10D010000C584FEAD8056D4205EB85050CEB450C25
:10D02000058F31F81CC0183105F10108B8F1020F65
:10D0300048D80D791FFA88F86D1E05F001058D801E
:10D04000A1F80680B8F1000F3CD921F815C0711C79
:10D050008EB2B342CCD8038E00F11A019F4201E098
:10D0600030E043E02ED88B8A3B44ABFB035C4FEAB5
:10D07000DC0CCCF1000C0CEB8C0C03EB4C038B8226
:10D08000CB8ADB1BCB825AB3511E8AB2B0F830C0B8
:10D0900034F812300CF1010500F11A010A2D11D8F3
:10D0A000B1F814C0ADB20CF1090CABFB0C76F6086C
:10D0B000764206EB86060CEB460CA1F814C0CD8236
:10D0C000002D01D8AFF30080ABFB0C65ED086D427D
:10D0D00005EB85050CEB450C002A21F81C30D3D15B
:10D0E000FFF702FD05B00120BDE8F08F01EB430121
:10D0F00001EB4702009902EB4102019902EB410169
:10D1000008E710B410884FF0000C83421CD302EBE8
:10D11000810030F8040C984228BF002914D900BFC0
:10D120000CEB0100400832F820409C4288BF81B2DD
:10D130003CBF401C1FFA80FC04D102EB80004088F9
:10D1400010BC70478C45EBD310BC002070472DE914
:10D15000F047C56B0746DFF860A168884FF001080B
:10D16000460805EB860900BF398E07F11A00002931
:10D1700001D8AFF30080818A3446AAFB0132D2087D
:10D18000524202EB820201EB420130F81120288862
:10D19000002190429ABF39F8043C9A42BDE8F087DA
:10D1A000002C98BFBDE8F0870819400835F82030FA
:10D1B000934288BF84B23CBF401C81B216D105EBBC
:10D1C00080004088002808BFBDE8F08705EB4001DB
:10D1D0003846FFF799FE002808BFBDE8F0874046B3
:10D1E00008F101080A28BFDBBDE8F087A142DBD3C4
:10D1F000BDE8F0872DE9F047054630482E4E02681D
:10D200004068002A00F0C68005F11A0405EB6003AF
:10D2100010F0010F01D01868825818469047014657
:10D22000E08A002840F2D380A08AA6FB0032D20810
:10D23000524202EB820200EB420024F81010EF6B26
:10D24000002F7DD0298E05F11A00002979D9818A15
:10D25000A6FB0132D208524202EB820201EB4201EC
:10D2600030F81100002879D078884FF0010A4FEA91
:10D27000500807EB880900BF298E05F11A00002924
:10D280005FD9818A4446A6FB0132D208524202EBA2
:10D29000820201EB420130F81120388800219042CF
:10D2A0009CBF39F8040C824220D8002C1ED90819E2
:10D2B000400837F8203003E0CDCCCCCCBC150020A2
:10D2C000934288BF84B23CBF401C81B269D107EB56
:10D2D0008000408850B107EB40012846FFF714FE5C
:10D2E00020B150460AF1010A0A28C5DB298E05F152
:10D2F0001A0001296BD9818A4A1CA6FB02C3DB08EC
:10D300005B4203EB830302EB430200EB4202108813
:10D31000A0F510633F3B21D1A6FB01C3DB085B42B4
:10D3200003EB830305F11A0001EB430130F8110010
:10D3300010802A8E05F11A0040F63F11002A01E004
:10D340000CE044E043D9828AA6FB02C3DB085B42BF
:10D3500003EB830302EB430220F81210298E05F140
:10D360001A00A1B3818A30F81140491CA6FB013292
:10D37000D208524202EB820201EB42018182C18A51
:10D38000491EC1822846FFF7AFFB288B02280BD02D
:10D390000CE000BF10F0010F18BF00287FF434AF7D
:10D3A0004DE7A14283D3A1E701212983298B05F110
:10D3B0001200491C02290AD80179491E01F0010115
:10D3C0008180C188491C89B2C180002901D8AFF38E
:10D3D0000080027902F0010220F812402046BDE8E8
:10D3E000F087B9B10A6802644A6842648A68826454
:10D3F0008989A0F84C1090F84D1011F0080118BF61
:10D400004FF4807190F846201143494280F849104A
:10D4100000F140010846704710B50C4611681046EF
:10D42000CA6819469047002808BF204610BD8C46A0
:10D430002DE9F041044600214AB390881368236423
:10D44000536863649368A3649389A4F84C3094F898
:10D450004D3013F0100318BF4FF4807394F8475009
:10D46000A0F631671D43EE101E2F7CD2DFE807F0D7
:10D47000189494181818186C6C6C94949494949450
:10D480009494949494941818181818181818A4F8C8
:10D490004E10A4F85010A0F852100846BDE8F081D4
:10D4A000218E04F11A00002901D8AFF30080818A8F
:10D4B000FE4AA2FB0132D208524202EB820201EB89
:10D4C000420130F81100A0F56061333916D1DCF863
:10D4D000000040F63361C26860469047417B11F01E
:10D4E000400218BF4FF47E4211F0200118BF4FF4E4
:10D4F00080711143007A0843A4F84E00B4F84E003E
:10D50000A919084400B2A4F84E0084F8480094F821
:10D510004D2004F1400122F0600284F84D2010F407
:10D52000807F1CBF42F020024A7310F4007F03D0BA
:10D53000D0B240F04000487394F8490094F852107B
:10D54000401A84F8490023E0B4F8500004F1400187
:10D55000801B00B284F8480094F84D2022F060024D
:10D5600084F84D2000E017E010F4807F1CBF42F0EB
:10D5700020024A7310F4007F03D0D0B240F0400084
:10D580004873B4F85000A919B0EB0100A4F850009A
:10D5900004F14000BDE8F081A0F560631B3B1FBFB4
:10D5A000A0F56063B3F11D03A0F56063B3F11F0341
:10D5B00046D1401E81B2DCF800001646C2686046C3
:10D5C0009047002808BF3046417B11F0400118BF4A
:10D5D0004FF47E41427B12F0200218BF4FF480725C
:10D5E0001143007A0843A4F84E0094F84D0000F06F
:10D5F0008000002814BF4FF48071002194F84A0085
:10D6000041EA00014FEA910114BF4FF480720022F9
:10D6100042EA000001EB5010A4F8520094F84D00CB
:10D6200010F0400118BF4FF47E4110F0200018BFE9
:10D630004FF48070084394F848100843401BA5E756
:10D6400094F84D3013F0400618BF4FF47E4613F0A7
:10D65000200318BF4FF48073334394F8486033437A
:10D66000A4F84E30A0F56063093B1CBFA0F56063D1
:10D67000B3F1130306D0A0F56063193B18BFA4F8FB
:10D680005210CBD1A0F56061164613390CBF40F69D
:10D690000C60401E81B2DCF80000C2686046904712
:10D6A000002808BF304694F84D1011F0800118BFD3
:10D6B0004FF4807194F84A201143427B12F08002AB
:10D6C00018BF4FF48072807A1043081AA4E72DE93E
:10D6D000F0411E4617460446FFF78CFD05463868A4
:10D6E0002946C26838469047A5F5606130607F29B9
:10D6F00006D8024639462046FFF799FE306020E002
:10D7000094F85510E9B1A5F51061023919D1B8B1F5
:10D7100002682264426862648268A2648089A4F814
:10D720004C0094F84D0010F0080118BF4FF48071C0
:10D7300094F846000843404284F8490004F1400050
:10D74000306050B1417B11F0800118BF4FF48071FF
:10D75000807A084308BF012000D0002084F85500DB
:10D760002846BDE8F0812DE9F0471E46DDE908892D
:10D7700017460446FFF73EFD054638684B464246CD
:10D78000D0F808C029463846E047A5F5606130600A
:10D790007F2906D8024639462046FFF748FE30600A
:10D7A00020E094F85510E9B1A5F51061023919D1BE
:10D7B000B8B102682264426862648268A2648089A7
:10D7C000A4F84C0094F84D0010F0080118BF4FF475
:10D7D000807194F846000843404284F8490004F1FF
:10D7E0004000306050B1417B11F0800118BF4FF410
:10D7F0008071807A084308BF012000D0002084F89F
:10D8000055002846BDE8F087012180F85410704784
:10D8100010B44FF0000C002B1ADD00BF0CEB03001E
:10D8200000EBD070401000EB800432F814408C42C2
:10D8300088BF034638BF00F1010C07D100EB800020
:10D8400002EB400010BC00F1020070479C45E5DB94
:10D8500010BC0020704710B4A1F22160192807D82D
:10D86000134810BC00EBC100A0F5445008387047C5
:10D87000A1F24160092807D80E4810BC00EBC10096
:10D88000A0F5485008387047A1F27160622824D88A
:10D890002820DFF824C000231A1802EBD27252109D
:10D8A00002EB82043CF814408C4207E0CDCCCCCC97
:10D8B000C2D20B0892D30B08E2D30B0888BF1046E4
:10D8C00038BF531C07D102EB82000CEB400010BCA8
:10D8D00000F1020070478342DEDB10BC002070477D
:10D8E0002DE9F04F03461A3083B0C68A002E40F26D
:10D8F0004C83828AFE4C0092A4FB025C4FEADC0C53
:10D90000CCF1000C0CEB8C0C02EB4C0230F812004A
:10D91000002804BF03B0BDE8F08F012933D180286F
:10D9200031D25B2802BF5D2003B0BDE8F08F18DC68
:10D93000282802BF292003B0BDE8F08F292802BFA4
:10D94000282003B0BDE8F08F3C2802BF3E2003B082
:10D95000BDE8F08F3E2802BF3C2003B0BDE8F08F49
:10D9600011E05D2802BF5B2003B0BDE8F08F7B288B
:10D9700002BF7D2003B0BDE8F08F7D2802BF7B2071
:10D9800003B0BDE8F08F03F11A02012E40F2FD82D0
:10D9900000991746491CA4FB015C4FEADC0CCCF152
:10D9A000000C0CEB8C0C01EB4C05022E32F8151020
:10D9B000029140F2EA82009A921CA4FB028C4FEA88
:10D9C000DC0CCCF1000C0CEB8C0C02EB4C0C4FF093
:10D9D000010837F81C20202828D1A1F24C69B9F1A0
:10D9E000040F9CBFA2F5C069B9F151090AD1A7F88B
:10D9F00014C0FA8A4FF21260921EFA8283F85480A1
:10DA0000084472E0A1F5C069B9F151090ED1B2F52F
:10DA1000CE6F60D1A7F814C0F98A4FF66340891E13
:10DA2000F98283F8548003B0BDE8F08FA1F5C06798
:10DA3000443F36D140F2356940F2D26A40F2426743
:10DA400048450FD1A2F5C065493D0CD1A3F82EC0C1
:10DA5000198E4FF6F950891E198683F8548003B049
:10DA6000BDE8F08F0DD1524543D1A3F82EC0198ED9
:10DA70004FF6F050891E198683F8548003B0BDE834
:10DA8000F08FB8420DD1524533D1A3F82EC0198E74
:10DA90004FF6F150891E198683F8548003B0BDE813
:10DAA000F08F202813D0A0F2216CBCF11A0F21BFF7
:10DAB000A0F2416CBCF10A0FA0F2716CBCF1630FD3
:10DAC00017D300BF83F8548003B0BDE8F08FA1F2F4
:10DAD0004B62072AF6D8DD851A8E4FF2DA10521EF5
:10DAE0001A8683F8548000EB410003B080B2BDE891
:10DAF000F08F03F11A05032E40F24782DDF800C0D3
:10DB00007B4C0CF1030CA4FB0C74E408644204EBA2
:10DB100084040CEB440BA0F2276C35F81B50BCF1CD
:10DB2000210F9CBF40F2276494424ED840F24A64D1
:10DB3000944224BF40F22F67BD4246D3B5F5C96F6A
:10DB400043D2CCEB4C1702EBC204C7EB0C2C04EB1A
:10DB5000021404EB8C0404EB050CACF51E4CACF584
:10DB6000FF7C1FFA8CF9DFF88CA14FF0080C00271E
:10DB700007EB0C0404EBD474641004EB840E3AF845
:10DB80001EE0CE4588BFA44638BF671C1BD104EBFE
:10DB9000840C0AEB4C0C1CF1020C16D0BCF80240B1
:10DBA0008C4212D103F11A00032EC0F0EE81A0F8CE
:10DBB00014B0C18AC91EC18283F85480BCF8000029
:10DBC00003B0BDE8F08F6745D2DB4FF0000CA0F545
:10DBD000C5676446222F9CBF40F22C68884543D815
:10DBE000B1F5CA6F9EBF904540F2516842453BD89F
:10DBF00040F27E5C07FB0CFC01EB410707EB0117D1
:10DC00000CEB470C94440CF64C7C1FFA8CFADFF8B2
:10DC1000E8904FF0620C4FF0000800BF08EB0C07D3
:10DC200007EBD7777F1007EB870B39F81BB0D3458D
:10DC300088BFBC4638BF07F101080ED107EB870C3F
:10DC400009EB4C0C1CF1020C0ED00224032E84BFF5
:10DC50002946002740F2998147E0E045DEDB4FF09E
:10DC6000000C674684B900E00027A1F24B68B8F1C8
:10DC70000A0F02D9B8F1290806D10F461146032E22
:10DC800088BF2A4640F28181A0F22665242D9CBFE0
:10DC900040F222658D4228D840F2D5658D4224D3CA
:10DCA00000F0FF0C88466CF31F28DFF850A04FF0FF
:10DCB000AB0C4FF0000900BF09EB0C0505EBD57567
:10DCC0006D1005EB850B3AF81BB0C34588BFAC4619
:10DCD00038BF05F1010933D105EB850C0AEB4C0C7B
:10DCE0001CF1020C1CBF0124114640F2216207E026
:10DCF000CDCCCCCCF0C70B0840C80B0814CC0B081B
:10DD00008A4205D240F2D3628A4228BF002500D25F
:10DD1000012593F854200192002A0CBF0122002211
:10DD2000002D14BF4FF000084FF002084244BCF130
:10DD3000000F7CD03CF81280B8F1000F05D0D8E07D
:10DD4000E145B9DB4FF0000CCFE7002C70D0022A80
:10DD500002D0032A0BD01CE0BCF80010C9B1A0F51A
:10DD6000C061443908BF002213D10125ECE0BCF8A2
:10DD70000280B8F1000F0CD0A0F58068B8F51178DA
:10DD800007D1A1F5C068B8F1470818BF0122ECD14E
:10DD90000EE0A0F22161192906D8854901EBC001E6
:10DDA000A1F54451083930E0A0F24161092906D8B3
:10DDB000804901EBC001A1F54851083925E0A0F2E6
:10DDC0007161622920D8DFF8F0A1282183464FF045
:10DDD000000900BF09EB010808EBD8784FEA680892
:10DDE00008EB880E3AF81EE0DE4588BF414638BF92
:10DDF00008F1010906D108EB88010AEB410101F1A4
:10DE0000020102E08945E5DB0021012E79D9DDF828
:10DE1000088040F22169C84506D940F2D369C84557
:10DE200098BF4FF0000801D94FF0010801E01EE053
:10DE30005FE0DDF80490B9F1000F0CBF4FF001096D
:10DE40004FF00009B8F1000F14BF4FF0000A4FF077
:10DE5000020AD14400291CBF31F81910002903D04F
:10DE600045464A46002402E0BCF1000F41D1A0F231
:10DE70002161192907D84E4901EBC001A1F5405C89
:10DE8000ACF5847C2FE0A0F24161092907D849490B
:10DE900001EBC001A1F5405CACF5027C23E0A0F2EF
:10DEA0007161622984BF03B0BDE8F08F2821DFF8DB
:10DEB00008A181464FF0000808EB010C0CEBDC7C5C
:10DEC0004FEA6C0C0CEB8C0B3AF81BB0CB4588BFBF
:10DED000614638BF0CF1010814D10CEB8C010AEB40
:10DEE000410101F1020CBCF1000F04BF03B0BDE819
:10DEF000F08F022A0BD0032A11D0012A16D0DAB1F2
:10DF000022E042E08845D7DB03B0BDE8F08FBCF8E3
:10DF10000410002904BF0125002215D10CE0BCF833
:10DF20000610002904BF01252A460DD1BCF80210B5
:10DF3000002908BF002207D1BCF8001021B9BCF8A5
:10DF40000210002918BF01223CF81210002904BF5A
:10DF500003B0BDE8F08F83F8545003F11A00A642D5
:10DF600013D300990D191549A1FB0586F6087642D1
:10DF700006EB860605EB46058582C58A2C1BA4B2F6
:10DF8000C48287B11A33012C01D8AFF30080988A7C
:10DF9000401CA1FB0041C908494201EB810100EB93
:10DFA000410023F810703CF8120003B0BDE8F08F78
:10DFB000C2D20B0892D30B08E2D30B08CDCCCCCC49
:10DFC00010B400248480C480048144818481C4818D
:10DFD00004824482446184610122C46180F8252066
:10DFE000846280F82C4080F824204FF6FF72C285AE
:10DFF0000286FF2180F8321014490160828610BC2D
:10E000007047828E41B1C18D914208BF7047C18D6A
:10E010000186818EC1857047018E914208BF70478D
:10E02000018EC185818E0186704790F82C2082B0C8
:10E0300042B10A79012A05D1C28DADF80020038EC4
:10E04000C385028602B024F06DB800008CED0B0889
:10E05000002808BF7047002130F8022B2AB1491C64
:10E0600030F8022B89B2002AF9D1084670470028FF
:10E0700008BF7047002110F8012B2AB1491C10F885
:10E08000012B89B2002AF9D10846704700230029E4
:10E0900018BF00280BD0934209D231F802CB20F8E8
:10E0A00002CBBCF1000F1CBF5B1C9BB2F3D1184626
:10E0B00070470023002918BF00280BD0934209D2D3
:10E0C00011F801CB20F802CBBCF1000F1CBF5B1C88
:10E0D0009BB2F3D11846704770B4002689B000286F
:10E0E000B8BF0126002902BF09B070BC7047022BDF
:10E0F000BEBF09B070BC7047102BC2BF09B070BC66
:10E1000070474FF0000C6D468DF820C01F248446E8
:10E1100090FBF3F003FB10CCBCF1000FB8BFCCF1C7
:10E12000000CBCF10A0FB4BF0CF1300C0CF1570C11
:10E1300005F804C0641E0028E9D116B12D20285529
:10E14000641E2819401C4FF0000311BF002909B0BC
:10E1500070BC7047934222BF09B070BC704710F882
:10E1600001CB21F802CBBCF1000F1CBF5B1C9BB2A2
:10E17000F0D109B070BC7047002908BF7047022B6E
:10E18000B8BF7047102BC8BF704730B489B04FF08C
:10E19000000C8DF820C06D464FF01F0C0446B0FBFC
:10E1A000F3F003FB10440A2CB4BF3034573405F8A5
:10E1B0000C40ACF1010C0028F0D105EB0C00401C28
:10E1C0004FF0000311BF002909B030BC70479342E3
:10E1D00022BF09B030BC704710F801CB21F802CB48
:10E1E000BCF1000F1CBF5B1C9BB2F0D109B030BC6E
:10E1F0007047002178B10288303A092A0BD800BF55
:10E2000001EB8101490030F8022B303911440288BA
:10E21000303A092AF4D9084670472DE9F04F0568CD
:10E22000DDE90CA9DDE909BEDDF838C0DDF8408084
:10E230002E004FF0000408D035F8027B2FB1641C8B
:10E2400035F8027BA4B2002FF9D1002914BF0125B3
:10E2500000252544AFB2128800256F2A0AD005DCBC
:10E26000582A1CBF642A692A1FD103E0732A16D0DA
:10E27000782A1AD1CBB14FF0000BBEF1000F02BFCC
:10E28000012C3288302A02D1B21C0024026077456A
:10E290000BDAAEEB070295B21FFA8EF705E0002B02
:10E2A00018BF7445C8BF1FFA8EF400220F9BDDF81B
:10E2B0002CE020265B1EBEF1000F18BF574522DA66
:10E2C000AAEB070292B23BEA090718BF002C03D061
:10E2D0002A4495B2002216E0AAB1B9F1000F08D085
:10E2E00011E000BF28F81760DCF800707F1CCCF844
:10E2F0000070171EA2F1010292B21CBFDCF8007080
:10E300009F42EFDB0022DCF800709F4207DA31B158
:10E3100028F81710DCF80010491CCCF800104FF05A
:10E3200030092F1EA5F101018DB21CBFDCF80010D1
:10E33000994213DA28F81190DCF80010491CCCF847
:10E340000010EEE78D1C0560DCF80050098828F805
:10E350001510DCF80010491CCCF800102100A4F1C5
:10E360000104A4B20FD001680D88002D1CBFDCF899
:10E3700000509D4207DAE5E728F81060DCF800005D
:10E38000401CCCF80000101EA2F101018AB21CBF93
:10E39000DCF800009842EFDBBDE8F08F2DE9F003D8
:10E3A0004FF0000CDDE90964DDE90787DDF818901E
:10E3B000A1F800C082F800C083F800C089F800C04E
:10E3C00088F800C086F800C0D0F800C00125BCF86D
:10E3D00000C0BCF1000F2DD0D0F800C0BCF800C0C8
:10E3E000BCF12B0F18BFBCF1200F06D0BCF12D0FD4
:10E3F0000CD0BCF1230F11D01CE0A1F800C0D0F864
:10E4000000C00CF1020CC0F800C00EE01570D0F88E
:10E4100000C00CF1020CC0F800C006E01D70D0F87E
:10E4200000C00CF1020CC0F800C0BCF800C0BCF188
:10E43000000FD1D101684FF0FF330988A1F13002FC
:10E44000092A01D92A2932D188F8005001680A889E
:10E45000302A03D1891C016089F800500168B1F8A5
:10E4600000C0BCF12A0F59D0002299B1ACF1300C98
:10E47000BCF1090F0ED800BF02EB82025200B1F8C6
:10E4800000C0303A624431F802CFACF1300CBCF13C
:10E49000090FF1D93A60016809883039092906D88D
:10E4A0000168891C0160098830390929F8D9016897
:10E4B00009882E291CBFBDE8F0037047357001683C
:10E4C000891C0160B1F800C0BCF12A0F2BD00022DA
:10E4D00079B1ACF13003092B0BD800BF02EB8202FB
:10E4E000520031F8023B303A1A440B88303B092B7A
:10E4F000F4D92260016809883039092906D80168F1
:10E50000891C0160098830390929F8D92068062852
:10E51000A8BF06202060BDE8F00370473B6001689B
:10E52000891C0160C3E723600168891C0160EDE775
:10E530002DE9FF4FD1B00027884604461E464222EF
:10E54000394608A81A9700F04AFD002C02BF0020A7
:10E5500055B0BDE8F08F5399002908BF278077D0C8
:10E56000DFF87CB5DBF800000268126B9047A8F179
:10E5700001050DF164090DF5907A0DF1680B5390CA
:10E580005EE000BF24F81200881C53901A98401CCB
:10E590001A9053990888002857D025281CBF1A9A2A
:10E5A000AA42EFDB1A98A8424CDA0591881C8DF834
:10E5B00034718DF838718DF83C718DF82C71489755
:10E5C0005390ADF830718DF8287119974EA8CDF899
:10E5D00008A0CDE903094BA94AA8CDE900014FAB3A
:10E5E0004DAA4CA953A8FFF7D9FE4898002806DA8F
:10E5F00056F8040B48900028D8BF0020489019987E
:10E60000002806DA56F8040B19900028D8BF00201D
:10E61000199053980088692826D01DDC252835D00C
:10E6200058281CBF632864281ED005985390018881
:10E630001A9824F81010401C1A905398801C53907C
:10E64000008810B11A988542A3DC1A9824F810703B
:10E6500055B02046BDE8F08F6F2818BF732803D04F
:10E66000752818BF7828E0D108A8509053980088E2
:10E670006F2800F0C3800EDC582800F02381632847
:10E6800029D0642818BF69283CD00BE01A992520AE
:10E6900024F81100D1E7732824D075287DD078287C
:10E6A00000F0DE80ADF820709DF83401CDE9040B58
:10E6B000CDE906849DF828019DF82C21489B1999E5
:10E6C0008DE80F009DF83831BDF8301150A8539AED
:10E6D000FFF7A3FDB1E716F8040BADF82000ADF885
:10E6E0002270E1E7FE4856F8041B00680268126BCE
:10E6F00090475090FA48006801680A6B5399904718
:10E700005390D1E756F8041B08A805901A984FF0CB
:10E710000A0CA8EB000080B24FF0000E0290002916
:10E72000B8BF4FF0010E24AB8DF8B0705FF01F0240
:10E7300091FBFCF00CFB10110029B8BF49420A29DB
:10E74000B4BF303157319954521E0100F0D1BEF19F
:10E75000000F02D02D209854521E98180599029B44
:10E76000401C4FF0000218BF00290BD09A4209D27A
:10E7700010F801CB21F802CBBCF1000F1CBF521CDA
:10E7800092B2F3D1BDF820002D288DD1ADF8300123
:10E790005098801C509087E7FFE71A9856F8041BA2
:10E7A000A8EB000080B20DF1200E4FF00A0C1BAB5D
:10E7B00002908DF88C701F22B1FBFCF00CFB101145
:10E7C0000A29B4BF303157319954521E0100F3D198
:10E7D0009818029A401C18BFBEF1000F3FF464AFB6
:10E7E0009142BFF461AF10F8013B2EF8023B002BC1
:10E7F0001CBF491C89B2F3D156E700BF1A9856F8DE
:10E80000041BA8EB000080B202900DF1200E4FF027
:10E81000080C36AB8DF8F8705FF01F02B1FBFCF00E
:10E820000CFB10110A29B4BF303157319954521ED4
:10E830000100F3D19818029A401C18BFBEF1000FD6
:10E840003FF432AF9142BFF42FAF10F8013B2EF8E6
:10E85000023B002B1CBF491C89B2F3D124E700BF47
:10E860001A9856F8041BA8EB000080B20DF1200E98
:10E870004FF0100C2DAB02908DF8D4705FF01F029A
:10E88000B1FBFCF00CFB10110A29B4BF3031573139
:10E890009954521E0100F3D19818029A401C18BFD7
:10E8A000BEF1000F3FF400AF9142BFF4FDAE10F88F
:10E8B000013B2EF8023B002B1CBF491C89B2F3D14F
:10E8C000F2E600BF1A9856F8041BA8EB000080B2CD
:10E8D0000DF1200E4FF0100C3FAB02908DF81C7123
:10E8E0005FF01F02B1FBFCF00CFB10110A29B4BF52
:10E8F000303157319954521E0100F3D19818029AC1
:10E90000401C18BFBEF1000F0AD0914208D210F887
:10E91000013B2EF8023B002B1CBF491C89B2F4D1ED
:10E92000BDF8201008A8002918BF4FF6E0723FF488
:10E93000BBAE0188A1F16103192B9CBF114401807A
:10E9400030F8021F0029F4D1AEE60FB410B505ABC4
:10E95000049AFFF7EDFD10BC5DF814FB70B5A0B094
:10E9600072B11578002402F1010C4DB1641C1CF841
:10E97000015BA4B2002DF9D1402C01D3AFF300808C
:10E980006C464FF0400C002552B103E06D1CADB257
:10E99000654505D212F8016B24F8026B002EF5D103
:10E9A0006A46FFF7C5FD20B070BD0FB470B5A0B0CA
:10E9B00027AB269A72B11578002402F1010C4DB1F3
:10E9C000641C1CF8015BA4B2002DF9D1402C01D3CA
:10E9D000AFF300806C4640254FF0000C62B105E0BB
:10E9E0000CF1010C1FFA8CFCAC4505D212F8016B3E
:10E9F00024F8026B002EF3D16A46FFF799FD20B090
:10EA000070BC5DF814FB2DE9FF4F04460020D1B027
:10EA10000F468046499001463B90C82208A800F066
:10EA2000DEFA002C02BF002055B0BDE8F08F5399EC
:10EA3000002908BFA4F8008000F0A98128480268D6
:10EA40001068036B10469847DFED262AF2EE041A91
:10EA50003FAE7D1E9FED243A9FED244AF7EE003A2B
:10EA6000539000F08AB900BF24F81200881C53901C
:10EA70003B98401C3B9053990888002800F0838104
:10EA800025281CBF3B9AAA42EEDB3B98A84280F2A5
:10EA9000768100208DF83401ADF830018DF8200129
:10EAA0008DF82C018DF8F8003D908DF828013A90F2
:10EAB000881C884653900DF104093AAB4AAA3DA937
:10EAC0003EA8A9E80F0048A800904BAB4DAA4CA95E
:10EAD00053A8FFF763FC3D98002819DA499907E02D
:10EAE00034190020CDCCCC3D0200003FD0CC4C3DB1
:10EAF000549800EB8100491C90ED000A4991BDEE4D
:10EB0000C00A10EE100A3D900028D8BF00203D90AA
:10EB10003A98002810DA4999549800EB8100491C72
:10EB200090ED000A4991BDEEC00A10EE100A3A902D
:10EB30000028D8BF00203A905398008825280AD092
:10EB4000662810D03B98CDF84C81B8F8001024F816
:10EB50001010401C04E03B98252124F81010801C64
:10EB60003B9000F007B90DF1200ECDF838E149993E
:10EB7000549800EB8100D0ED000A481C49909DF8A4
:10EB8000280120B901208DF8280103203A90F5EEE4
:10EB9000C00AF1EE10FA04D22D20ADF83001F1EEEA
:10EBA000600A3A980023B0EE432A00280CDD10F0EA
:10EBB000010F18BFB0EE442A411005D022EE220A00
:10EBC000491E20EE222AF9D130EE820AF0EE630AC5
:10EBD00010EE102AB0EE401AFD498A420FDB00BF4A
:10EBE00081EE212A60EEA10AB0EE421A11EE102A3F
:10EBF0008A42F5DA10EE901AB1F17C5F20DB3B9986
:10EC0000791AC91A00291BDD642B19D280EE201A4B
:10EC1000BDEEC11A11EE101A0929A8BF092101F190
:10EC2000300201EE101A2EF813205A1CB8EEC11A49
:10EC300093B200EEC10A80EEA11AF0EE410AD9E7C4
:10EC400001220028D8BF3A9830DD10F0010F0BD018
:10EC500020EE211ABDEEC10A10EE101AB8EEC00A5D
:10EC600001F10A0231EE400A41101DD020EE211AB6
:10EC700002EB8202491EBDEEC10A10EE10CAB8EEC8
:10EC8000C00A0CEB420202EB820231EE400A20EE97
:10EC9000211ABDEEC10A10EE10CAB8EEC00A0CEB84
:10ECA000420231EE400AE1D1001A3A90401E3A90F9
:10ECB0003B98111EA7EB0000A0EB03000EEB4308EE
:10ECC0001FFA80FA4FF00A094FF0000BB8BF4FF05F
:10ECD000010BB8F1000F2DD000208DF81C011F2072
:10ECE00091FBF9FC09FB1C110029B8BF49420A2914
:10ECF000B4BF303157313154401E5FEA0C01EFD1BF
:10ED0000BBF1000F02D02D213154401E3044401C75
:10ED10004FF0000118BFB8F1000F0BD0514509D2D8
:10ED200010F801CB28F802CBBCF1000F1CBF491C26
:10ED300089B2F3D1012ADCBF9DF82C01002818BF4D
:10ED40002E202EF813009DF834113BA8CDE906744F
:10ED5000CDE904109DF820019DF8F8203D9B3A99DB
:10ED60008DE80F009DF82831BDF830114EA8539A58
:10ED7000FFF753FA5398801C5390008818B13B98C2
:10ED800085423FF778AE3B99002024F8110055B03A
:10ED90002046BDE8F08F70B5A0B072B115780024A0
:10EDA00002F1010C4DB1641C1CF8015BA4B2002DF2
:10EDB000F9D1402C01D3AFF300806C464FF0400CEA
:10EDC000002552B103E06D1CADB2654505D212F8C5
:10EDD000016B24F8026B002EF5D16A46FFF713FE93
:10EDE00020B070BD002A18BF88420ED098B1A9B1DA
:10EDF000521E0388B1F800C092B2634507D1002AC1
:10EE00001EBF002B801C891CF2D100207047180403
:10EE1000B0EB0C4F02D24FF0FF307047012070472B
:10EE20000188202918BF704730F8021F2029FBD025
:10EE30007047002A18BF88423DD0002834D00029EE
:10EE400036D00388202B03D130F8023F202BFBD093
:10EE50000B88202B1AD100BF31F8023F202BFBD0AA
:10EE600014E0002A18BF002B25D030F8023F891C7F
:10EE7000202B03D130F8023F202BFBD00B88202B16
:10EE800004D100BF31F8023F202BFBD01300A2F1C8
:10EE9000010292B204D00388B1F800C06345E0D00B
:10EEA00000880988884202D24FF0FF30704702D9AB
:10EEB0004FF0010070474FF00000704770B44FF002
:10EEC000000C002A3AD9037813F0800F04BF0B809E
:10EED000401C2AD003F0E004C02C04D1447804F094
:10EEE000C005802D04D003F0F004E02C11D106E021
:10EEF00003F01F0363F39F140C80801C15E044781B
:10EF000004F0C005802D04D1857805F0C006802E60
:10EF100001D0401C10E01B0304F03F0443EA8413BB
:10EF200005F03F0423430B80C01C0CF101031FFAC2
:10EF300083FC31F8023B0BB19445C4D370BC6046EE
:10EF4000704770B403460020002A87BFC025E02424
:10EF500070BC7047B3F800C0BCF17F0F04D8401CF0
:10EF600001F801CB80B22EE0BCF5006F3CBF461C1F
:10EF700096420DD245EA9C1C01F801CB93F800C0E3
:10EF8000801C0CF03F0C4CF0800C01F801CB19E018
:10EF9000861C964224BF70BC704744EA1C3C01F8B2
:10EFA00001CBB3F800C0C01CCCF3851C4CF0800C26
:10EFB00001F801CB93F800C00CF03F0C4CF0800C32
:10EFC00001F801CB80B233F802CBBCF1000F01E0B5
:10EFD0000000204118BF9042BCD370BC7047B2F112
:10EFE000004FA2F1010202F1010307D3002B08BF79
:10EFF000704700F8011B521EFBD27047002BD8BF90
:10F000007047401E12F0010F08BF00F8011F521C8C
:10F01000521008BF7047417000F8021F521EFAD10B
:10F02000704770B50546F4F7D8FD04462846F4F756
:10F0300094FE002818BF022040EA840070BD70B51D
:10F040000546F4F7CAFD04462846F4F786FE002874
:10F0500018BF022040EA840040F0010070BD002883
:10F06000B8BF404204BF1F2070474FF00001020CA0
:10F0700004BF1021000410F07F4F04BF08310002CC
:10F0800010F0704F04BF091D000110F0404F04BF85
:10F09000891C800010F0004F08BF491C481E7047B3
:10F0A000F0B4B0F1000CC0F10005B8BFAC4608BF29
:10F0B0001F241DD000245FEA1C4604BF10244FEA21
:10F0C0000C4C1CF07F4F04BF08344FEA0C2C1CF092
:10F0D000704F04BF241D4FEA0C1C1CF0404F04BFAE
:10F0E000A41C4FEA8C0C1CF0004F08BF641C641E6B
:10F0F00000FA04FC9CFBF2F602FB16C74FF0010C71
:10F100000028BCBF28464FF0FF3C0029BCBF494245
:10F11000CCF1000C002ABCBF5242CCF1000C41FAE9
:10F1200004F56E437D43012707FA04F4641E214071
:10F13000484390FBF2F102FB1100284490FBF2F4EB
:10F1400002FB1400214431441860F0BC01FB0CF0B8
:10F1500070472DE9F043044685B0134403EB4303A5
:10F160005D18DDE90C07B4F904100E9E1144E1604E
:10F17000B4F90610084420612068C1682046884719
:10F18000002812BF0DF1100805B0BDE8F083CDF8DE
:10F190000080206803AB02AAD0F810C001A9204665
:10F1A000E047002848D0207A9DF8101010FB01F0AD
:10F1B00000EB1020401C16F8011BC0F3072010FBC9
:10F1C00001F000EB1020401CC0F30720FF283CD0CA
:10F1D0009DF80C9095F800C0C0F1FF0109FB00F903
:10F1E0000CFB019C6B789DF80890AA7809FB00F94C
:10F1F00003FB01939DF804901FFA8CFC09FB00F0BF
:10F2000002FB01009BB20CEB1C2C03EB132380B21E
:10F210000CF1010C5B1C00EB1020CCF3072C401C04
:10F22000C0F30722CDF800C02068C3F307232946A6
:10F23000D0F814C02046E047E068ED1C401CE060B8
:10F240007F1EA4D105B0BDE8F0839DF80C000090AE
:10F2500020689DF808309DF80420D0F814C0294695
:10F260002046E047E8E7009808704B708A707047C6
:10F270002DE9F041164688B0FE4AC0E9002100257C
:10F280008560C56005614561183002F022FC1430CC
:10F2900001F069FB483002F050FC4838A0F12C0422
:10F2A00080F86C5080F87450012084F8A10084F834
:10F2B000A250C4F8A450C4F8A85084F8AC5084F804
:10F2C000AD50C4F8B050C4F8B45001F00CFB0028A5
:10F2D00000F01F816068AC4606A902894089ADF83C
:10F2E0001C20ADF818C0ADF81E00ADF81AC0684675
:10F2F00024F06CFDB6F90020B6F90400BDF9003029
:10F3000017189F427EDDBDF9040003EB000890450D
:10F3100078DDB6F90210B6F9060001EB000CBDF974
:10F32000020084456EDDBDF906C084448C4569DD6C
:10F330009342D8BF13468842D8BF08460FFA88F2D6
:10F3400039B28A42B8BF1146C91AADF804100FFA93
:10F350008CF27188B6F806C0614409B28A42B8BF1F
:10F360001146091AADF80030ADF80610ADF80200EC
:10F37000DDE90010CDE9041008460599CDE9020148
:10F38000606801684A6A02A990476068011D04A884
:10F3900000F0E6FC02A800F0FBFCBDF9140001F04F
:10F3A0005DFA84F8A00004F12C0001F0B9FABDF96F
:10F3B0001000A4F89C00BDF81210A4F89E104001A3
:10F3C000A060BDF91200DFF8B0824001E060BDF935
:10F3D000140040012061BDF9160040016061D8F8B9
:10F3E00000000168096A8847D8F80010054691F8BE
:10F3F000760000281ABFC86C002888680168896AEE
:10F40000884700E017E0D8F800100746002691F87A
:10F41000760000281ABFC86C002888680168496A0D
:10F4200088470C2862D2DFE800F03E47590F741F6E
:10F430002F5151515151ADF80050ADF80450ADF875
:10F440000250ADF8065093E7BDF90800BDF90A3047
:10F45000C11700EB517105EBE10221F0070103FB3D
:10F460000725401AC6B241E0BDF90800BDF90A30CF
:10F47000C11700EB917105EBA10221F0030103FB21
:10F480000725401AC6B231E0BDF90800BDF90A30BF
:10F4900000EBD07105EB610221F0010103FB0725B0
:10F4A000401AC6B222E0BDF90800BDF90A1005EB0A
:10F4B000400001FB070519E0BDF90800BDF90A107D
:10F4C00000EB4000284401FB07050FE0BDF90800F0
:10F4D000BDF90A1001FB0700054407E0BDF908006B
:10F4E000BDF90A1005EB800001FB0705BDF90E0010
:10F4F000E066BDF90E00CDE90007BDF90C303246DB
:10F50000294604F1180002F0F7FA08B02046BDE8D9
:10F51000F081AFF3008010B504465648206056488D
:10F5200000680168496A884704F12C0001F054FA28
:10F53000143802F0D5FA183810BD10B504464D48FD
:10F5400020604D4800680168496A884704F12C0032
:10F5500001F042FA143802F0C3FABDE8104018383E
:10F5600024F0DDBB12680020DDF800C0002AB8BF1F
:10F57000012004DBDCF800C09445D8BF02200968F4
:10F580000029BCBF40F0040070471A688A42D8BF07
:10F5900040F008007047394B1B78002B08BF7047BC
:10F5A000012B18BF704713684068D1F800C0B0F94C
:10F5B0000800CCEB401010600B60704710B504469B
:10F5C00090F8A100D0B994F8AC0094F8AD100842BE
:10F5D00014D148B194F87030D4E9291204F12C0008
:10F5E000002B08BF02F036F804F12C0094F87030BC
:10F5F000D4E92C12002B08BF02F02CF8002084F86C
:10F60000A10010BD2DE9F047044690F8A000154672
:10F610000E46002808BFBDE8F08794F8A1004FF01F
:10F620000008E0B994F8AC0094F8AD10084214D189
:10F6300048B194F87030D4E9291204F12C00002B61
:10F6400008BF02F007F804F12C0094F87030D4E9F8
:10F650002C12002B08BF01F0FDFF84F8A1800748A1
:10F66000007880B101280ED160682946B0F9080001
:10F6700006E0000090F50B08341900202419002042
:10F68000C6EB40150E46A068311AE06800262D1A18
:10F690000F46002DB8BF012603DB6069A842D8BF22
:10F6A00002260029B8BF46F0040604DB2069884220
:10F6B000D8BF46F008064FF00109002E18BF84F8A5
:10F6C000A19007D0C4E92C75C4E9297584F8AC6011
:10F6D000BDE8F08784F8AD6094F8703004F12C0038
:10F6E0002A46002B08BF01F0EEFF84F8A18084F8C1
:10F6F000A290E7E72DE9F041044690F8A000002829
:10F7000008BFBDE8F081FE48007840B1012806D16D
:10F7100060681346B0F90800C1EB40121946A068B2
:10F720000027091AE0680E46151A002DB8BF0127F8
:10F7300003DB6069A842D8BF02270029B8BF47F0A1
:10F74000040704DB20698842D8BF47F0080794F813
:10F75000AC0058B1002F1CBF10EA07010F460DD0B6
:10F76000C4E9296584F8AC70BDE8F08194F8703084
:10F7700004F12C002A46002BF2D127E094F8A110C6
:10F7800091B184F8AD0094F87030D4E9291204F1F5
:10F790002C00002B08BF01F096FF002084F8A10088
:10F7A000012084F8A20009E094F87030D4E929120D
:10F7B00004F12C00002B08BF01F04CFF04F12C00D9
:10F7C00094F8703031462A46002BC9D101F042FF2F
:10F7D000C6E72DE9F04F044690F8A0009BB0002842
:10F7E00000F0BF8194F8700000281EBF00201BB0FD
:10F7F000BDE8F08F94F8A200002800F0B2816068A4
:10F800000168096F8847002800F0AB8194F8A100D7
:10F81000D0B994F8AC0094F8AD10084214D148B1B6
:10F8200094F87030D4E9291204F12C00002B08BFA1
:10F8300001F010FF04F12C0094F87030D4E92C1280
:10F84000002B08BF01F006FF4FF0000984F8A190DB
:10F8500060680168896E8847B4F89E20B4F89C10EF
:10F86000F3F7C3FA60680168096F88470546606866
:10F8700001688A6E90472946F3F7BAFA606804F186
:10F8800018050168896E8847064604F12C0010951A
:10F89000039002F0AFF8044603984FF0010A856820
:10F8A000002D02BF50461BB0BDE8F08F90F8440019
:10F8B00000281EBF48461BB0BDE8F08F03984830B3
:10F8C00002F026F94FF0000804F10807B5F1010530
:10F8D000B4F90010B4F90200CDE90D0101EB0042CA
:10F8E000B4F90410B4F906008844B5F1004F12D3FE
:10F8F0003C466D1EB4F900106388083701EB0341E4
:10F90000914221D1B4F90610002D0844B4F9041035
:10F910008844EDD117E001216B1C012B13DD3C461F
:10F920006D1EB4F900C0B4F8029008370CEB094C16
:10F93000944509D1B4F906C0491C6044B4F904C027
:10F940009942E044EBDB6D1E00287DD0C0EB8810AF
:10F95000C0100028B8BF4042039991F86C100129EB
:10F9600006D1C0F30800B0F5807FC8BFC0F50070B5
:10F97000FF28C8BFFF201690D8BF002876D0039874
:10F980000D99406D002855D00398006D884251D0E4
:10F99000002840DB1099C96881423CDD0399D1F809
:10F9A00054B00021CDE9040110980269016804985F
:10F9B00002FB00100A900398006E06900398D0E9AD
:10F9C00019A91098007908903AF8020F0599421881
:10F9D000069901EB000339F8020F05D51044002801
:10F9E000C4BF9B1A002213DD109902EB000C89683A
:10F9F0008C4502DB881A00280ADD0499CDE9001045
:10FA0000029331683046089BD1F808C00A99E04754
:10FA1000BBF1010BD8D1039947F6FF70C864039975
:10FA200008650398816EC1650398416E81650399ED
:10FA300000204865DDE90DB9DDF858A0B9F1000FE7
:10FA40002EDB00F059FF00E02DE0484528D903984F
:10FA5000006E00F809A00398C06C401C484506D110
:10FA60000398C06D0188491C018013E018E00398D9
:10FA70000121C06D821C0398C26511800398806DBE
:10FA8000811C03988165A1F800900398406D411C8A
:10FA9000039841650398C0F84C900398C0F850B0A3
:10FAA0000E98401C0E90681C11D0B4F900000E99FD
:10FAB0008142BFF60DAF4FEA8810C0100028B8BFD2
:10FAC0004042039991F86C10012955D14DE00398FB
:10FAD000406DE8B30398056D002D42DB1098C068B7
:10FAE000A8423EDD03984FF00009D0F854801098EA
:10FAF0000168006900FB05100990039802E000000E
:10FB000024190020D0E91974D0F860A0109890F85A
:10FB100004B000BF37F8020F10EB09020AEB000136
:10FB200034F8020F05D510440028C4BF891A0022FA
:10FB300014DD109B02EB000C9B689C4502DB981ABD
:10FB400000280BDD0095CDE9010130685B4600E03F
:10FB500007E0D0F808C030460999E047B8F101083D
:10FB6000D8D11BB00120BDE8F08FC0F30800B0F57C
:10FB7000807FC8BFC0F50070FF28C8BFFF20169067
:10FB8000D8BF00283FF4A4AE03980D99406DE8B3A8
:10FB90000398006D884254D0002842DB1099C96850
:10FBA00081423EDD0399D1F854B0069010980021AF
:10FBB000129102690168069802FB00100A900398EE
:10FBC000006E13900398D0E919A910980079089055
:10FBD0003AF8020F12994218139901EB000339F811
:10FBE000020F05D510440028C4BF9B1A002215DD62
:10FBF000109902EB000C89688C4502DB881A0028FA
:10FC00000CDD0699CDE90010029300E019E031689F
:10FC10003046089BD1F808C00A99E047BBF1010BB8
:10FC2000D6D1039947F6FF70C86403990865039815
:10FC30000399806EC8650398416E81650399002021
:10FC4000486516980090B4F900100E980D9A0B1A9A
:10FC500001460398483001F08DFF39E65C4B1B7874
:10FC6000002B08BF7047012B18BF70470388B1F8FD
:10FC700000C0A0F800C09088C01A401E08807047DD
:10FC8000544BB3F800C0544B6CF30F021B8863F362
:10FC90001F424F4B1B78002B08BF7047012B18BF2A
:10FCA00070470388B1F800C0A0F800C0D01A401E09
:10FCB00008807047464B1B78002B08BF7047012B0C
:10FCC00018BF704790ED000AD1ED000AC0ED000AA0
:10FCD000B2F9040000EE900AF8EEE00A9FED3F1A38
:10FCE00070EEC10A30EEC00A81ED000A7047394B50
:10FCF000B3F800C0384B6CF30F021B8863F31F424C
:10FD0000334B1B78002B08BF7047012B18BF70477F
:10FD100090ED000AD1ED000AC0ED000A10B200EE2D
:10FD2000900A9FED2E1AF8EEE00A70EEC10A30EE4E
:10FD3000C00A81ED000A7047254A1278002A08BFE0
:10FD40007047012A18BF704702880B88DFF890C0FF
:10FD5000BCF800C0ACEB03035B1E03800A80704755
:10FD60001B4A1278002A08BF7047012A18BF704743
:10FD700002888388B0F802C0A0F800C01A448988BD
:10FD8000521E891A491E4180C2888280C3807047F2
:10FD9000104A114B12881B8862F30F010C4A63F35F
:10FDA0001F411278002A08BF7047012A18BF704708
:10FDB00002888388B0F802C01A44521E891AA0F83B
:10FDC00000C0491E4180C2888280C3807047000005
:10FDD000241900202A1900202C19002017B7D13827
:10FDE0003019002001617047817B002908BF7047EE
:10FDF0000189491C89B20181072998BF70470021F8
:10FE000041818181817370472DE9F04184B00446BE
:10FE100088468088B4F906101D4600238DF804300A
:10FE20000A9EADF806001746281A32B2DFF804C160
:10FE3000ADF8081000B2CDF800C0ADF80A50ADF82A
:10FE40000C200028BCBF404200B2A38A98420BDCC1
:10FE5000501A00B20028BCBF404200B29842DEBF38
:10FE6000002004B0BDE8F081206901684A68694655
:10FE7000904700202081A5EB08006081F01BA08145
:10FE8000A580E6800120A07304B0BDE8F0812DE9D3
:10FE9000F04186B01E4617460D460446012918BF9C
:10FEA000022D04D0002D04BFA780E6802FE0B4F916
:10FEB0000A00DFF88480C11C072911D3A188E288D9
:10FEC00000238DF81030ADF81410CDF80C80ADF88B
:10FED0001200ADF81620206901688A6803A99047CE
:10FEE000B4F90C00C11C072911D3A388E2880121B1
:10FEF0008DF81010ADF81430CDF80C80ADF812006C
:10FF0000ADF81620206901688A6803A9904700208F
:10FF10000A498DF80450ADF808600091ADF80670FC
:10FF2000ADF80A00206901680A686946904706B082
:10FF3000BDE8F08124FC0B0858ED0B08B4E90B0870
:10FF4000214A10B4136823F0010313601F4A136899
:10FF5000C3F30B1C0123ACF54064243C07D01268AA
:10FF6000C2F30B12A2F5406CBCF1270C22D1184A47
:10FF70001268FAB9174AD2F800C0CCF30B0CBCF5E2
:10FF80008A6F07D01268C2F30B02A2F5806CBCF135
:10FF9000830C0FD1104A13601368002BFCD10F4A59
:10FFA00010601068884202D010BC0020704710BC5E
:10FFB000012070470A4A93609368002BFCD11060BF
:10FFC00010688842F3D0EFE7002000E000ED00E089
:10FFD000002004E00010005C084C0258004C02585D
:10FFE000003002402DE9F00F8F6A4A69CE6A4B68F3
:10FFF000D21BA3EB06034FF0000C6FF0004514BFBB
:020000040805ED
:10000000002B644638D002FB03F494FBF3F89045D0
:1000100004D1E21704EB127214112DE00124002B1D
:10002000BCBF4FF0FF345B42002ABCBF6442524267
:100030009A4202DA90461A46434695FBF2FA93FB3F
:10004000FAF80AFB183902FB0AF34FEAE37A03EBEA
:100050001A7A2AF00F0BA3EB0B0303FB08F309FB3F
:1000600002324FEA2A1303FB08F34FEAE27802EB6D
:10007000187203EB221254430A688B69D21BA3EB5C
:10008000060318BF002B38D002FB03FC9CFBF3F6E1
:10009000964206D14FEAEC720CEB12724FEA221C28
:1000A0002BE04FF0010C002BBCBF4FF0FF3C5B423C
:1000B000002ABCBFCCF1000C52429A4202DA16462A
:1000C0001A46334695FBF2F693FBF6F506FB153719
:1000D00002FB06F3DE1703EB167626F00F08A3EB00
:1000E00008036B4307FB023233116B43D51702EB56
:1000F000157203EB221202FB0CFCA4EB0C0200EEC7
:10010000102AF8EEC00A9FEDFE0AF7EE003A91EDD4
:10011000021A60EE800A83EEA03AC3EE810AC0EDB7
:10012000000A91ED031A21EE202A80ED032A91EDB9
:10013000041A61EE202AC0ED062A91ED071AC3EEDB
:10014000811AC0ED011A91ED081A21EE215A80EDB5
:10015000045A91ED091A61EE214AC0ED074A91ED6A
:100160000C4A83EE841A80ED021AD1ED0D3A71EE3D
:10017000C11A23EE814A80ED054AD1ED0E3A63EEB5
:10018000813AC0ED083A4B68CA6A9B1A05EE903A6C
:100190008B69F8EEE55A9A1A65EE805A21EEA56A47
:1001A00070EEC15A01EE102AB8EEC11A21EE001A03
:1001B00005EEC16A26EE031A80ED091A0B688A6AF9
:1001C0009B1A06EE103A4B69B8EEC66A9A1A26EEEA
:1001D000006A61EE861A06EE102AB8EEC66A26EEAE
:1001E000006A45EEC61A75EE445A32EE444A63EE92
:1001F000611AC0ED0A1A4B68CA6A9B1A05EE103ADA
:10020000B8EEC55A25EE005A25EE855A8B6974EE74
:10021000E34A9A1A06EE102AB8EEC66A26EE006A7B
:1002200004EE465A25EE035A80ED0B5A0B688A6A93
:100230009B1A06EE103A4B69B8EEC66A9A1A26EE79
:10024000006A65EE865A06EE102AB8EEC66A26EEF9
:10025000006A44EE465A23EE654A80ED0C4A4B682C
:10026000CA6A9B1A05EE903A8B69F8EEE55A9A1A1B
:1002700065EE805A24EEA56A72EEE35A03EE902AE8
:10028000F8EEE33A63EE803A05EEE36A66EE033A8F
:10029000C0ED0D3A0B688A6A49699B1A06EE103A5E
:1002A000891AB8EEC66A26EE006A64EE864A06EE41
:1002B000101A4FF400414A1EB8EEC66A26EE000A34
:1002C00045EEC04A25EE200A02EE410A23EE643ACA
:1002D00080ED0E3AB5EEC00AF1EE10FA0DDCB5EE87
:1002E000C00AF1EE10FA0AD324EE200A02EE610AE7
:1002F000B5EEC00AF1EE10FA01DBC16300E0C263A3
:1003000023EEA00A02EEC10AB5EEC00AF1EE10FA21
:1003100003DD0164BDE8F00F7047B5EEC00AF1EEF1
:1003200010FA08D323EE200A02EEE10AB5EEC00A65
:10033000F1EE10FAEDDA0264BDE8F00F70472DE936
:10034000F05F03EB830702EB87060A9DD6F804C033
:100350001CF10F0C3DD44FEAEC740CEB147C4FEA0B
:100360002C1400BF05EB850502EB85084461D8F825
:1003700004C01CF10F0C3CD44FEAEC790CEB197C57
:100380004FEA2C1CBCEB040CC0F818C008BFBDE839
:10039000F09FD8F804C052F8258052F82750D6F8BC
:1003A0000490A8EB0508ACEB090C09FB08F904FB69
:1003B00008FAC9EB0A190CFB05954FF0FF3909EB58
:1003C0000C194FEA0C1C4D44BCF1000F23DCAFF3B9
:1003D0000080CCF1000C4FEAEC740CEB1474241187
:1003E00064421CF00F0C18BF4FF0010CA4EB0C047E
:1003F000B8E7CCF1000C4FEAEC790CEB19794FEA35
:100400002919C9F100091CF00F0C18BF4FF0010C9D
:10041000A9EB0C0CB6E7002D06DB95FBFCF90CFBF9
:100420001955C0F8009011E0C5F1000A9AFBFCF5DF
:10043000C5F100090CFB15A5C0F80090056135B1A8
:10044000A9F10109ACEB0505C0F8009005615FEA70
:10045000081507D495FBFCF80CFB1855C0F8048070
:10046000856010E0C5F1000999FBFCF5C5F10008B5
:100470000CFB1595C0E901852DB1A8F10108ACEB85
:100480000505C0E90185C0F80CC0D6F804C052F8D3
:100490002720CCEB041C00EE10CAD0F800C0D1ED30
:1004A0000A1AC2EB0C1201EE102AF8EEC00A9FEDF8
:1004B000140AB8EEC11A01EB830260EE800A21EE45
:1004C000001A92ED000A00EEA10AD1ED091A01EE20
:1004D000210A80ED070A90ED010AD1ED0A1AD1ED4B
:1004E000092AB8EEC02A42EE221AC0ED081AD1ED50
:1004F000091AC0ED091AD2ED031A91ED0C2A01E098
:100500000000803D40EE821A91ED0B2A41EE021A66
:10051000B8EEC02AB8EEC00AC0ED0A1AD1ED0C1A26
:10052000D1ED0B2A42EE221AC0ED0B1AD1ED0B1AB7
:10053000C0ED0C1AD2ED061A91ED0E2A40EE821A89
:10054000D1ED0D0A41EE201AC0ED0D1AD1ED0E0AC3
:1005500091ED0D1A40EE010AC0ED0E0A91ED0D0A63
:1005600080ED0F0ABDE8F09F0028B8BF404204BFED
:100570001F2070474FF00001020C04BF102100043F
:1005800010F07F4F04BF0831000210F0704F04BF1D
:10059000091D000110F0404F04BF891C800010F0BD
:1005A000004F08BF491C481E70472DE9F0470C4614
:1005B00005464C220021A648FEF711FD216820695E
:1005C000E3680A1A61695B1A5A43A368C01A636830
:1005D000591A9F4B00FB0120986129692868D4F8BB
:1005E0000CC0421A6069ACEB000C02FB0CF2D5F8AF
:1005F00008C0A1EB0C01D4F804C0ACEB000001FB77
:1006000000221A6021682069AE68A1EB000C2969FC
:10061000761A0CFB06FC2E68891BA668301A01FBB3
:1006200000C058602669D5F808C0A1682F6906FB8C
:100630000CF001FB1700D4F8048000FB08F82068D8
:1006400000FB07F92F6806FB17967943D4F80C9046
:1006500000FB1C1006FB0986616900FB01609860C5
:1006600069696868E668A0EB010C6069361A0CFBE2
:1006700006FCEE68891B6668301A01FB00C0D86072
:1006800021682069A1EB000CEE686969761A0CFB01
:1006900006FC6E68891BA668301A01FB00C0186151
:1006A0002169EE68D4F808C0686901FB06F70CFB05
:1006B0001077D4F8048007FB08F8276807FB00F9D7
:1006C0006868E56801FB10910CFB00F001FB0581F7
:1006D00007FB1600D4F814C000FB0C10586110463C
:1006E000FFF742FFD861196801FA00F2986992FB9E
:1006F000F0F100FB1120D962D8635868FFF734FF8E
:100700001862596801FA00F2996992FBF1F01863D6
:1007100001FB10201864D868FFF726FF5862D968DB
:1007200001FA00F2986992FBF0F100FB1120596385
:1007300058641869FFF718FF9862196901FA00F206
:10074000986992FBF0F100FB112099639864BDE871
:10075000F0872DE9F0014FF0010CDDE90554079F0A
:100760000028BCBF40424FF0FF3C002DBCBF6D4293
:10077000CCF1000C002CBCBF6442CCF1000C45FA5B
:1007800001F6D7F80080724303FB0683012606FAC0
:1007900001F1491E2940484390FBF4F104FB11008C
:1007A000184490FBF4F304FB13003860BDE8F0013B
:1007B0001944114401FB0CF070472DE9F041054646
:1007C000234CD5E90061A06984B000283BD0A16822
:1007D00000EBD07201EB620103AFCDE90060CDE91F
:1007E0000271E36BE26AE1692068FFF7B2FF064637
:1007F000A0696968CDE900100297236C226B216A19
:100800006068FFF7A6FF0644D4E9051000EBD0723C
:1008100001EB620103912968CDE900100297636C36
:10082000626B616AE068FFF794FF8046A0696968BF
:10083000CDE900100297A36CA26BA16A2069FFF7B3
:1008400088FF00EB0801C5E9006104B0BDE8F08154
:10085000AC470220314AC2E9000170472F4A10B567
:10086000114693680968984204BFD3688B4206D149
:10087000D06910283CBF002010BD012010BD536876
:10088000C2E9020183422CD310F0030C04D0CCF156
:10089000040C6144A3EB0C0301EB000C411C1B1A7C
:1008A00021F00101C2F810C08B421AD300F10100FF
:1008B00000F0020011F00304C0F104001CBF8444E6
:1008C0001B1A8C445B1AC2F814C08B4209D3002C4B
:1008D0001CBF84441B1A8C44581AC2E906C0102855
:1008E000CBD2AFF300800D48016800291BBF4068E0
:1008F000002800200120704708488068704707489A
:10090000C0687047054800697047044840697047EF
:100910000248806970470148C06970474819002043
:1009200010B50446FFF7F4FFE060FFF7F4FFC008DE
:100930000021C4E90101E06847F6FF722061A2824C
:10094000E28221836183E06B20F0010040F002002D
:10095000E0636FF00040E0622063C0076063A06363
:1009600084F8441010BD2DE9F0410446FE480025EE
:10097000C4E90005A560E56025616561A561E561E3
:1009800025626FF000466562C4E90A56F707C4E9BC
:100990000C67A763C4E90F5684F84450FFF7B8FF0B
:1009A000E060FFF7B8FFC008C4E90105E068311452
:1009B0002061A182E18225836583E06BE66220F0FD
:1009C000010040F00200C4E90C67C4E90E7084F82D
:1009D00044502046BDE8F081E34901600021C16038
:1009E00001617047E04901600021C160016123F0AD
:1009F00096B92DE9FF4F9FB004462C9D4FEA621C2B
:100A00006811CDF800C005F01F0305901793236B04
:100A100002F01F006345A8BF63462363009ED4F81D
:100A200038C0761CB445BCBFDDF800C00CF1010C29
:100A3000C4F838C0059EB342A8BF33462363059B64
:100A40005B1C9C45BCBF059B03F1010CC4F838C07E
:100A5000229B04F114085E1AAB1A0193229B0F9695
:100A60005B111BB2189353111BB2DDF800C0059F38
:100A7000139301F01F03C3F12003CDF85880BC4548
:100A800040F0228183462298DDF85C904FEA60189E
:100A900000F01F006746CDE90D904FEA611C01F0A0
:100AA0001F01CB4534D1B4F91410B4F9160008EB8A
:100AB000074201EB0041891A04BF23B0BDE8F08F63
:100AC000B4F91A10B4F91820114317D00028A4BFA4
:100AD000216C814212DDD4E90101814224BF012051
:100AE00084F844000AD22069169923F06FF920692E
:100AF00000F108012161A068411CA1601899A18240
:100B00001399E182002104F11400218300F0E6B979
:100B100005F01F0002F01F02801AC4450BD10E9B86
:100B20001944238B414318442083608B084460831D
:100B300023B0BDE8F08F03FB00F2202305930123CF
:100B40000A93002E06DA00FB01F200200590401EF9
:100B500076420A9092FBF6F906FB192003900028D2
:100B600003DA3044A9F101090390059A1144228B5C
:100B700001FB09F14A442283628B114409B261836B
:100B80000A98B4F914200CEB0005B4F9160005EB33
:100B9000074302EB0042D21A27D0B4F91820A2462C
:100BA00011431CD00028A4BFDAF84010814216DDA2
:100BB000DAE90101814224BF012084F844000ED209
:100BC000DAF81000169923F001F9DAF8100008306D
:100BD000CAF81000DAF80800401CCAF80800A5821C
:100BE0001399E1820021218361830BEB090A4545BA
:100BF00059D00D98A0EB0A004844410191FBF6F052
:100C000006FB101B0B90BBF1000F02DA401EB34431
:100C10000B900398A0EB060904F11400129038B26F
:100C20001190D9440B99B9F1000FA4BFA9EB0609A3
:100C3000491C228B8A440A4412B22283B4F81AC097
:100C40000CEB41131BB263830A98B4F916100544E8
:100C5000B4F9140000EB014C05EB0740BCEB0000BD
:100C60001FD053EA020016D00029A4BF206C88428E
:100C700011DDD4E90101814224BF012084F8440040
:100C800009D22069129923F0A1F820690830206167
:100C9000A068401CA060A5821199E18200202083F9
:100CA00060834545BDD1059B0E9A0D98D21AA0EBE5
:100CB0000A012032238B4A4319442183618B04F1BA
:100CC0001400114400F00AB901221092002E6BD0DA
:100CD00020220392019AC0F1200C0CFB06FC002A92
:100CE00008DA00220392521E1092019A00FB06FCC1
:100CF000524201929CFBF2F2019D05FB12CCCDF811
:100D00002CC0BCF1000F06DA6546DDF804C0521EA7
:100D1000AC44CDF82CC08E188246039DDDF800B09F
:100D20004A1106F01F004FEA661801F01F0C1595D6
:100D30001990AA4540F0D680B4F91410B4F9160001
:100D400008EB0B4201EB00412546891A00F0B58102
:100D5000B5F91A20B5F9181011431AD00028A4BF0C
:100D6000296C814215DD01E040F60B08D5E901014F
:100D7000814224BF012085F844000AD228691699CF
:100D800023F024F8286900F108012961A868411CB2
:100D9000A960A5F81480139905F11400E9820146B1
:100DA0000020888000F088B94E11A1EB461149005F
:100DB000089101992027002902DA0027791E109155
:100DC000391A0898238B484319442183618B0844BE
:100DD00001B26183109A00988518B4F91420B4F90F
:100DE000160006EB054302EB0042D21A26D0B4F9F6
:100DF0001820A04611431CD00028A4BFD8F84010EA
:100E0000814216DDD8E90101814224BF012084F826
:100E100044000ED2D8F81000169922F0D7FFD8F867
:100E200010000830C8F81000D8F80800401CC8F8B6
:100E30000800A682E5820021218361837800089959
:100E40002038059A414395423BD00FFA80F90FFABA
:100E500081F848EA090B0FFA86FA00BFA4F8189047
:100E6000A4F81A801098B4F914100544B4F91600C7
:100E700006EB054201EB0041891A1FD0BBF1000FC0
:100E800016D00028A4BF216C814211DDD4E90101F4
:100E9000814224BF012084F8440009D220691699B8
:100EA00022F094FF206908302061A068401CA060F7
:100EB000A4F814A0E582002121836183059885426E
:100EC000CCD11798089A3844A0F12001238B4A43CB
:100ED00019442183618B04F114001144C18023B0B3
:100EE000BDE8F08F42450DD1199AA5EB0A01624485
:100EF000238B02FB01F219442183618B114461832E
:100F000000F0DBB8A5EB0A004FF0200508954FF084
:100F1000010503FB00F31295771A06D500FB0CF3CD
:100F200000200890401E7F42129093FBF7F009903A
:100F300007FB10300A90002805DA0998401E099036
:100F40000A9838440A90089B09996344B4F818C079
:100F50004B4361442183618BA146194409B26183EB
:100F600012981518B4F91420B4F9160005EB0B43C8
:100F700002EB0042D21A2BD0B9F9182011431DD030
:100F80000028A4BFD9F84010814217DDD9E901013A
:100F9000814224BF012089F844000FD2D9F8100003
:100FA000169922F013FFD9F8100000F10801C9F8D2
:100FB0001010D9F80800411CC9F80810A9F81450FD
:100FC0001398A9F816000021A9F81810A9F81A100A
:100FD000099945458A4460D01598A0EB0A01099803
:100FE0000844410191FBF7F0139007FB10100790A4
:100FF000002805DA1398401E13900798384407908C
:101000000A98A0EB070904F114001D900FFA8BF069
:101010001C90079913988944B9F1000FA4BFA9EB5C
:101020000709401C238B824403441BB22383B4F87A
:101030001AC00CEB401212B262831298B4F9141069
:101040000544B4F9160005EB0B4C01EB0041B1EB84
:101050000C0120D052EA030117D00028A4BF216C54
:10106000814212DDD4E90101814224BF012084F8CC
:1010700044000AD220691D9922F0A8FE206900F1DF
:1010800008012161A068411CA160A5821C99E18230
:101090000020208360834545BBD11598089BA0EBB9
:1010A0000A02199804F11401C01A2030238B50430E
:1010B0001A442283628B1044C880109900984FEA2A
:1010C00066184518B4F91410B4F9160001EB004283
:1010D00008EB0541511A23D0B4F91A10B4F91820BD
:1010E0002746114316D00028A4BF396C814211DD78
:1010F000D7E90101814224BF012084F8440009D2CC
:101100003869169922F062FE386908303861B8688B
:10111000401CB860A4F81480E5820020208360831E
:101120000598854200F072810F98019A410101985B
:1011300091FBF0F00E9002FB10101290002807DADD
:101140000E981299A0F101000E9001EB020012908E
:101150000B99A1EB02000B900398C0F12001A0EBCA
:1011600001001A90129A0B990E9889180B9104D4C9
:101170000A460199511A401C0B91321811925711CD
:10118000039802F01F021492C0F12008039A701114
:1011900006F01F0190452DD1B4F91410B4F91600D2
:1011A00007EB054201EB0041891A00F0FB80B4F91E
:1011B0001A10B4F91820114316D00028A4BF216CCE
:1011C000814211DDD4E90101814224BF012084F86C
:1011D000440009D22069169922F0F8FD20690830F0
:1011E0002061A068401CA060A782E58200212183C5
:1011F0006183D7E0B8420BD1149B1A981944238B12
:1012000001FB00F118442083608B08446083C9E02F
:101210004FF020030D93119BDDF868C0C1F120024F
:101220009B1B02FB0CF24FF0010A029308D500232E
:101230000D93029B0CFB01F25B424FF0FF3A0293CD
:1012400092FBF3FBDDF808C00CFB1B220C92002A7A
:1012500004DA0C9AABF1010B62440C92DDF834C055
:1012600000EB0A06614401FB0BFC218B594409B2D7
:101270002183638B63441BB26383B4F91420B4F9F4
:10128000160006EB054C02EB0042B2EB0C021DD03F
:10129000194316D00028A4BF216C814211DDD4E986
:1012A0000101814224BF012084F8440009D2206951
:1012B000169922F08BFD206908302061A068401C3F
:1012C000A060A682E58200202083608308EB0B09E2
:1012D000BE4259D00398029AA0EB090101EB0B0022
:1012E0000299400190FBF1F102FB110B1391BBF14C
:1012F000000F03DAA1F10100934413900C98A0EBC6
:10130000020828B20690139818EB0B0803D4029930
:10131000401CA8EB0108228B8144024412B22283B4
:10132000B4F81AC056440CEB40131BB26383B4F9F3
:101330001410B4F9160006EB054C01EB0041B1EBBB
:101340000C011FD053EA020116D00028A4BF216C63
:10135000814211DDD4E90101814224BF012084F8DA
:10136000440009D22069169922F030FD2069083026
:101370002061A068401CA060A6820699E18200203E
:1013800020836083BE42BED10D9B149A0398D21A6B
:10139000A0EB09002032238B424318442083608B4A
:1013A00010446083DDE910060544B4F91400B4F973
:1013B0001610771100EB014007EB0542801A21D08F
:1013C000B4F91A00B4F91820104316D00029A4BFAC
:1013D000206C884211DDD4E90101814224BF012043
:1013E00084F8440009D22069169922F0EFFC2069A4
:1013F00008302061A068401CA060A782E582002020
:1014000020836083059885427FF4ACAE0398229ACE
:10141000C0F1200BDDF85CC0731102F01F014FEA30
:10142000621806F01F00CDF82CC00E91E34532D1B2
:10143000B4F91410B4F9160008EB054201EB0041B1
:10144000891A04BF23B0BDE8F08FB4F91A10B4F9BB
:101450001820114317D00028A4BF216C814212DD4F
:10146000D4E90101814224BF012084F844000AD25A
:101470002069169922F0AAFC206900F10801216177
:10148000A068411CA1601899A182E582002104F1A5
:101490001400218322E543450DD10E9BACEB0B02DA
:1014A0001844238B00FB02F01A442283628B04F160
:1014B00014011044CAE0C0F12007ACEB0B0C07FB91
:1014C0000CF14FF020070C974FF001070197971B85
:1014D00006D500220C92521E0CFB00F17F420192B5
:1014E00091FBF7F907FB19110A91002903DA394436
:1014F000A9F101090A910C9A1044228B00FB09F012
:101500004A442283628B104402B262830198B4F988
:1015100014101E18B4F9160006EB054301EB004148
:10152000C91A26D0B4F91810A24611431CD00028BD
:10153000A4BFDAF84010814216DDDAE901018142E8
:1015400024BF012084F844000ED2DAF81000169966
:1015500022F03CFCDAF810000830CAF81000DAF883
:101560000800401CCAF80800A682E58200202083FB
:1015700060830BEB090A464559D00B98A0EB0A0093
:101580004844400190FBF7F107FB110B0891BBF1B8
:10159000000F02DA481EBB4408900A98A0EB070926
:1015A00004F11400129028B21190D9440898B9F1AE
:1015B000000FA4BFA9EB0709401C238B82440344FE
:1015C0001BB22383B4F81AC00CEB401212B2628330
:1015D0000198B4F914100644B4F9160001EB004C5C
:1015E00006EB0541BCEB01011FD052EA030116D006
:1015F0000028A4BF216C814211DDD4E901018142A0
:1016000024BF012084F8440009D22069129922F0F5
:10161000DDFB206908302061A068401CA060A68224
:101620001199E1820021218361834645BDD10C9B44
:101630000E9A0B98D21AA0EB0A002032238B424359
:1016400018442083608B04F114011044C88023B037
:10165000BDE8F08FF8B5044690F83C0016460D46FC
:1016600010F0020F08BFF8BDE769226A87EA05009B
:1016700082EA0601084308BFF8BD7811D4F82CC0EF
:101680008445A8BF8446401CC4F82CC0616B8142CD
:10169000A8BF0846691160638C45A8BF8C46491CE9
:1016A000C4F82CC08842A8BF014661632B46394666
:1016B00020460096FFF79DF9C4E90756E06B40F01D
:1016C0000100E063F8BD2DE9F84F044690F83C00B6
:1016D0001746884610F0020F4FF000061ED1FFF7A4
:1016E00017F9E060FFF717F9C008C4E90106E068E0
:1016F00047F6FF712061A182E18226836683E06B59
:1017000020F0010040F00200E0636FF00040E06272
:101710002063C0076063A06384F84460E06B10F04E
:10172000010F32D0D4E9095910F0020F2DD0E06931
:10173000216A80EA050281EA0901114325D0E16AA4
:1017400040118142A8BF0146401CE162616B8142A9
:10175000A8BF08466063E16A68118142A8BF0146DC
:10176000401CE162616B8142A8BF08466063CDF80E
:101770000090D4E9071220462B46FFF73AF9C4E956
:101780000759E06B40F00101E163B4F91410B4F9BA
:1017900016004FEA681A4FEA671901EB00410AEB9D
:1017A0000942891A24D0B4F91A10B4F91820254630
:1017B000114317D00028A4BF296C814212DDD5E95E
:1017C0000101814224BF012084F844000AD205F1BE
:1017D0001401286922F0FAFA286908302861A868FB
:1017E000401CA860A4F814A0A4F816902683668371
:1017F000C4F81C80C4E90878A762BDE8F88F2DE919
:10180000F04FE5B000EBC10805460DF1180A0DF5E3
:10181000B47B00BFA8EB0500C01009287EDD00EBFB
:10182000D070401005EBC00656AC2046294622F089
:10183000CDFA3146284622F0C9FA2146304622F038
:10184000C5FA38F9081C38F8060C6A8901EB004122
:10185000B5F9080005F1080600EB0240A8F10804FC
:1018600088420CDD5CAF3846314622F0AFFA2146A3
:10187000304622F0ABFA3946204622F0A7FAB5F9F5
:1018800000106888728801EB0041B6F9000000EB97
:10189000024081420CDA5EAF3846294622F096FAC1
:1018A0002846314622F092FA3946304622F08EFA26
:1018B000B4F9001060886A8801EB0041B5F90000B6
:1018C00000EB024081420CDA60AF3846294622F034
:1018D0007DFA2846214622F079FA3946204622F040
:1018E00075FA36F9080F6A88718800EB0141B5F97D
:1018F000000000EB02408142F3DB00BF34F9081D19
:10190000628801EB02418842F8DBA6420ED85846B5
:10191000314622F05BFA3046214600E023E022F017
:1019200055FA5946204622F051FADAE762AF3846B6
:10193000294622F04BFA2846214622F047FA39463A
:10194000204622F043FA601BC010A8EB0601B0EB62
:10195000E10FC7BFCAE900543546CAE90068A0468E
:101960000AF1080A56E705F108092C46C14538BFB7
:1019700058AE2DD2B4F908006189628800EB0140AD
:10198000B4F9001001EB024188421CDA04F10807A7
:101990003946304622F01AFA3846214622F016FA25
:1019A0003146204622F012FAAC420CD0083CB4F981
:1019B0000800618900EB0142B4F90000618800EB86
:1019C00001408242E2DB4C4609F10809C145D1D30E
:1019D00006A850453CBFAAF1080ADAE90058FFF40E
:1019E00019AF65B0BDE8F08F8168002908BF704766
:1019F000C06804E7F8B50446C06B10F0010F34D09E
:101A0000D4E9095610F0020F2BD0E069216A80EA70
:101A100005027140114324D0E16A40118142A8BF00
:101A20000146401CE162616B8142A8BF08466063C9
:101A3000E16A68118142A8BF0146401CE162616B06
:101A40008142A8BF084660630096D4E90712204689
:101A50002B46FEF7CEFFC4E90756E06B40F00101CC
:101A6000E163E06B20F00100E06394F83C0010F0CB
:101A7000020F2CD0B4F91A00B4F9181008431AD088
:101A8000B4F916000028A4BF216C814213DDD4E90B
:101A90000101814224BF012184F844100BD204F1DA
:101AA0001401206922F092F9206900F108012161F6
:101AB000A068411CA160A168002904BF0020F8BDF6
:101AC000E068FFF79CFEE06B20F00200E063E06856
:101AD000F8BD0021016001718160C1600161704742
:101AE000704710B4DDE9014C01600271C0F810C00C
:101AF000C0E9023410BC704710B4DDE9014C01604C
:101B00000271C0F810C0C0E9023410BC7047000078
:101B100010B50446FEF7F3FEA061FEF7F3FEE061A8
:101B2000FEF7F3FE47F6FF7161602062A16060611D
:101B3000E06920610020E06010BD70B504462D48CA
:101B400047F6FF75C4E900050026C4E90256266180
:101B50006661FEF7D4FEA061FEF7D4FEE061FEF7F9
:101B6000D4FE65602062A5606061E069C4E903603D
:101B7000204670BD2DE9F0411E46DDF8188017465D
:101B80000C1E054607DAA019401E0028A6BF5E18E5
:101B90000024BDE8F081FEF7AFFEA04298BFBDE88B
:101BA000F081FEF7A9FEA119814202D9FEF7A4FE39
:101BB000061BA86908F0FF0120443246FDF70FFA22
:101BC0006868401CA042686903D1018831440180E3
:101BD00009E0801C686106802869801C28610480F7
:101BE000E868401CE860A019401EC5E90107BDE88F
:101BF000F0810000B4FA0B082DE9F04117460E46BB
